{
	"contracts/Crowdfunding.sol": {
		"Crowdfunding": {
			"abi": [
				{
					"inputs": [
						{
							"internalType": "string",
							"name": "_name",
							"type": "string"
						},
						{
							"internalType": "string",
							"name": "_description",
							"type": "string"
						},
						{
							"internalType": "uint256",
							"name": "_goal",
							"type": "uint256"
						},
						{
							"internalType": "uint256",
							"name": "_durationInDays",
							"type": "uint256"
						}
					],
					"stateMutability": "nonpayable",
					"type": "constructor"
				},
				{
					"inputs": [
						{
							"internalType": "string",
							"name": "_name",
							"type": "string"
						},
						{
							"internalType": "uint256",
							"name": "_amount",
							"type": "uint256"
						}
					],
					"name": "addTier",
					"outputs": [],
					"stateMutability": "nonpayable",
					"type": "function"
				},
				{
					"inputs": [
						{
							"internalType": "address",
							"name": "",
							"type": "address"
						}
					],
					"name": "backers",
					"outputs": [
						{
							"internalType": "uint256",
							"name": "totalContribution",
							"type": "uint256"
						}
					],
					"stateMutability": "view",
					"type": "function"
				},
				{
					"inputs": [],
					"name": "deadline",
					"outputs": [
						{
							"internalType": "uint256",
							"name": "",
							"type": "uint256"
						}
					],
					"stateMutability": "view",
					"type": "function"
				},
				{
					"inputs": [],
					"name": "description",
					"outputs": [
						{
							"internalType": "string",
							"name": "",
							"type": "string"
						}
					],
					"stateMutability": "view",
					"type": "function"
				},
				{
					"inputs": [
						{
							"internalType": "uint256",
							"name": "_daysToAdd",
							"type": "uint256"
						}
					],
					"name": "extendDeadline",
					"outputs": [],
					"stateMutability": "nonpayable",
					"type": "function"
				},
				{
					"inputs": [
						{
							"internalType": "uint256",
							"name": "_tierIndex",
							"type": "uint256"
						}
					],
					"name": "fund",
					"outputs": [],
					"stateMutability": "payable",
					"type": "function"
				},
				{
					"inputs": [],
					"name": "getCampaignStatus",
					"outputs": [
						{
							"internalType": "enum Crowdfunding.CampaignState",
							"name": "",
							"type": "uint8"
						}
					],
					"stateMutability": "view",
					"type": "function"
				},
				{
					"inputs": [],
					"name": "getContractBalance",
					"outputs": [
						{
							"internalType": "uint256",
							"name": "",
							"type": "uint256"
						}
					],
					"stateMutability": "view",
					"type": "function"
				},
				{
					"inputs": [],
					"name": "getTiers",
					"outputs": [
						{
							"components": [
								{
									"internalType": "string",
									"name": "name",
									"type": "string"
								},
								{
									"internalType": "uint256",
									"name": "amount",
									"type": "uint256"
								},
								{
									"internalType": "uint256",
									"name": "backers",
									"type": "uint256"
								}
							],
							"internalType": "struct Crowdfunding.Tier[]",
							"name": "",
							"type": "tuple[]"
						}
					],
					"stateMutability": "view",
					"type": "function"
				},
				{
					"inputs": [],
					"name": "goal",
					"outputs": [
						{
							"internalType": "uint256",
							"name": "",
							"type": "uint256"
						}
					],
					"stateMutability": "view",
					"type": "function"
				},
				{
					"inputs": [
						{
							"internalType": "address",
							"name": "_backer",
							"type": "address"
						},
						{
							"internalType": "uint256",
							"name": "_tierIndex",
							"type": "uint256"
						}
					],
					"name": "hasFundedTier",
					"outputs": [
						{
							"internalType": "bool",
							"name": "",
							"type": "bool"
						}
					],
					"stateMutability": "view",
					"type": "function"
				},
				{
					"inputs": [],
					"name": "name",
					"outputs": [
						{
							"internalType": "string",
							"name": "",
							"type": "string"
						}
					],
					"stateMutability": "view",
					"type": "function"
				},
				{
					"inputs": [],
					"name": "owner",
					"outputs": [
						{
							"internalType": "address",
							"name": "",
							"type": "address"
						}
					],
					"stateMutability": "view",
					"type": "function"
				},
				{
					"inputs": [],
					"name": "paused",
					"outputs": [
						{
							"internalType": "bool",
							"name": "",
							"type": "bool"
						}
					],
					"stateMutability": "view",
					"type": "function"
				},
				{
					"inputs": [],
					"name": "refund",
					"outputs": [],
					"stateMutability": "nonpayable",
					"type": "function"
				},
				{
					"inputs": [
						{
							"internalType": "uint256",
							"name": "_index",
							"type": "uint256"
						}
					],
					"name": "removeTier",
					"outputs": [],
					"stateMutability": "nonpayable",
					"type": "function"
				},
				{
					"inputs": [],
					"name": "state",
					"outputs": [
						{
							"internalType": "enum Crowdfunding.CampaignState",
							"name": "",
							"type": "uint8"
						}
					],
					"stateMutability": "view",
					"type": "function"
				},
				{
					"inputs": [
						{
							"internalType": "uint256",
							"name": "",
							"type": "uint256"
						}
					],
					"name": "tiers",
					"outputs": [
						{
							"internalType": "string",
							"name": "name",
							"type": "string"
						},
						{
							"internalType": "uint256",
							"name": "amount",
							"type": "uint256"
						},
						{
							"internalType": "uint256",
							"name": "backers",
							"type": "uint256"
						}
					],
					"stateMutability": "view",
					"type": "function"
				},
				{
					"inputs": [],
					"name": "togglePause",
					"outputs": [],
					"stateMutability": "nonpayable",
					"type": "function"
				},
				{
					"inputs": [],
					"name": "withdraw",
					"outputs": [],
					"stateMutability": "nonpayable",
					"type": "function"
				}
			],
			"devdoc": {
				"kind": "dev",
				"methods": {},
				"version": 1
			},
			"evm": {
				"assembly": "    /* \"contracts/Crowdfunding.sol\":60:4383  contract Crowdfunding {... */\n  mstore(0x40, 0x80)\n    /* \"contracts/Crowdfunding.sol\":1147:1516  constructor (... */\n  callvalue\n  dup1\n  iszero\n  tag_1\n  jumpi\n  0x00\n  dup1\n  revert\ntag_1:\n  pop\n  mload(0x40)\n  sub(codesize, bytecodeSize)\n  dup1\n  bytecodeSize\n  dup4\n  codecopy\n  dup2\n  dup2\n  add\n  0x40\n  mstore\n  dup2\n  add\n  swap1\n  tag_2\n  swap2\n  swap1\n  tag_3\n  jump\t// in\ntag_2:\n    /* \"contracts/Crowdfunding.sol\":1310:1315  _name */\n  dup4\n    /* \"contracts/Crowdfunding.sol\":1304:1308  name */\n  0x00\n    /* \"contracts/Crowdfunding.sol\":1304:1315  name =_name */\n  swap1\n  dup2\n  tag_6\n  swap2\n  swap1\n  tag_7\n  jump\t// in\ntag_6:\n  pop\n    /* \"contracts/Crowdfunding.sol\":1339:1351  _description */\n  dup3\n    /* \"contracts/Crowdfunding.sol\":1326:1337  description */\n  0x01\n    /* \"contracts/Crowdfunding.sol\":1326:1351  description= _description */\n  swap1\n  dup2\n  tag_8\n  swap2\n  swap1\n  tag_7\n  jump\t// in\ntag_8:\n  pop\n    /* \"contracts/Crowdfunding.sol\":1369:1374  _goal */\n  dup2\n    /* \"contracts/Crowdfunding.sol\":1362:1366  goal */\n  0x02\n    /* \"contracts/Crowdfunding.sol\":1362:1374  goal = _goal */\n  dup2\n  swap1\n  sstore\n  pop\n    /* \"contracts/Crowdfunding.sol\":1433:1439  1 days */\n  0x015180\n    /* \"contracts/Crowdfunding.sol\":1415:1430  _durationInDays */\n  dup2\n    /* \"contracts/Crowdfunding.sol\":1415:1439  _durationInDays * 1 days */\n  tag_9\n  swap2\n  swap1\n  tag_10\n  jump\t// in\ntag_9:\n    /* \"contracts/Crowdfunding.sol\":1396:1411  block.timestamp */\n  timestamp\n    /* \"contracts/Crowdfunding.sol\":1396:1440  block.timestamp + (_durationInDays * 1 days) */\n  tag_11\n  swap2\n  swap1\n  tag_12\n  jump\t// in\ntag_11:\n    /* \"contracts/Crowdfunding.sol\":1385:1393  deadline */\n  0x03\n    /* \"contracts/Crowdfunding.sol\":1385:1440  deadline = block.timestamp + (_durationInDays * 1 days) */\n  dup2\n  swap1\n  sstore\n  pop\n    /* \"contracts/Crowdfunding.sol\":1459:1469  msg.sender */\n  caller\n    /* \"contracts/Crowdfunding.sol\":1451:1456  owner */\n  0x04\n  0x00\n    /* \"contracts/Crowdfunding.sol\":1451:1469  owner = msg.sender */\n  0x0100\n  exp\n  dup2\n  sload\n  dup2\n  0xffffffffffffffffffffffffffffffffffffffff\n  mul\n  not\n  and\n  swap1\n  dup4\n  0xffffffffffffffffffffffffffffffffffffffff\n  and\n  mul\n  or\n  swap1\n  sstore\n  pop\n    /* \"contracts/Crowdfunding.sol\":1488:1508  CampaignState.Active */\n  0x00\n    /* \"contracts/Crowdfunding.sol\":1480:1485  state */\n  0x04\n  0x15\n    /* \"contracts/Crowdfunding.sol\":1480:1508  state = CampaignState.Active */\n  0x0100\n  exp\n  dup2\n  sload\n  dup2\n  0xff\n  mul\n  not\n  and\n  swap1\n  dup4\n  0x02\n  dup2\n  gt\n  iszero\n  tag_13\n  jumpi\n  tag_14\n  tag_15\n  jump\t// in\ntag_14:\ntag_13:\n  mul\n  or\n  swap1\n  sstore\n  pop\n    /* \"contracts/Crowdfunding.sol\":1147:1516  constructor (... */\n  pop\n  pop\n  pop\n  pop\n    /* \"contracts/Crowdfunding.sol\":60:4383  contract Crowdfunding {... */\n  jump(tag_16)\n    /* \"#utility.yul\":7:82   */\ntag_17:\n    /* \"#utility.yul\":40:46   */\n  0x00\n    /* \"#utility.yul\":73:75   */\n  0x40\n    /* \"#utility.yul\":67:76   */\n  mload\n    /* \"#utility.yul\":57:76   */\n  swap1\n  pop\n    /* \"#utility.yul\":7:82   */\n  swap1\n  jump\t// out\n    /* \"#utility.yul\":88:205   */\ntag_18:\n    /* \"#utility.yul\":197:198   */\n  0x00\n    /* \"#utility.yul\":194:195   */\n  dup1\n    /* \"#utility.yul\":187:199   */\n  revert\n    /* \"#utility.yul\":211:328   */\ntag_19:\n    /* \"#utility.yul\":320:321   */\n  0x00\n    /* \"#utility.yul\":317:318   */\n  dup1\n    /* \"#utility.yul\":310:322   */\n  revert\n    /* \"#utility.yul\":334:451   */\ntag_20:\n    /* \"#utility.yul\":443:444   */\n  0x00\n    /* \"#utility.yul\":440:441   */\n  dup1\n    /* \"#utility.yul\":433:445   */\n  revert\n    /* \"#utility.yul\":457:574   */\ntag_21:\n    /* \"#utility.yul\":566:567   */\n  0x00\n    /* \"#utility.yul\":563:564   */\n  dup1\n    /* \"#utility.yul\":556:568   */\n  revert\n    /* \"#utility.yul\":580:682   */\ntag_22:\n    /* \"#utility.yul\":621:627   */\n  0x00\n    /* \"#utility.yul\":672:674   */\n  0x1f\n    /* \"#utility.yul\":668:675   */\n  not\n    /* \"#utility.yul\":663:665   */\n  0x1f\n    /* \"#utility.yul\":656:661   */\n  dup4\n    /* \"#utility.yul\":652:666   */\n  add\n    /* \"#utility.yul\":648:676   */\n  and\n    /* \"#utility.yul\":638:676   */\n  swap1\n  pop\n    /* \"#utility.yul\":580:682   */\n  swap2\n  swap1\n  pop\n  jump\t// out\n    /* \"#utility.yul\":688:868   */\ntag_23:\n    /* \"#utility.yul\":736:813   */\n  0x4e487b7100000000000000000000000000000000000000000000000000000000\n    /* \"#utility.yul\":733:734   */\n  0x00\n    /* \"#utility.yul\":726:814   */\n  mstore\n    /* \"#utility.yul\":833:837   */\n  0x41\n    /* \"#utility.yul\":830:831   */\n  0x04\n    /* \"#utility.yul\":823:838   */\n  mstore\n    /* \"#utility.yul\":857:861   */\n  0x24\n    /* \"#utility.yul\":854:855   */\n  0x00\n    /* \"#utility.yul\":847:862   */\n  revert\n    /* \"#utility.yul\":874:1155   */\ntag_24:\n    /* \"#utility.yul\":957:984   */\n  tag_61\n    /* \"#utility.yul\":979:983   */\n  dup3\n    /* \"#utility.yul\":957:984   */\n  tag_22\n  jump\t// in\ntag_61:\n    /* \"#utility.yul\":949:955   */\n  dup2\n    /* \"#utility.yul\":945:985   */\n  add\n    /* \"#utility.yul\":1087:1093   */\n  dup2\n    /* \"#utility.yul\":1075:1085   */\n  dup2\n    /* \"#utility.yul\":1072:1094   */\n  lt\n    /* \"#utility.yul\":1051:1069   */\n  0xffffffffffffffff\n    /* \"#utility.yul\":1039:1049   */\n  dup3\n    /* \"#utility.yul\":1036:1070   */\n  gt\n    /* \"#utility.yul\":1033:1095   */\n  or\n    /* \"#utility.yul\":1030:1118   */\n  iszero\n  tag_62\n  jumpi\n    /* \"#utility.yul\":1098:1116   */\n  tag_63\n  tag_23\n  jump\t// in\ntag_63:\n    /* \"#utility.yul\":1030:1118   */\ntag_62:\n    /* \"#utility.yul\":1138:1148   */\n  dup1\n    /* \"#utility.yul\":1134:1136   */\n  0x40\n    /* \"#utility.yul\":1127:1149   */\n  mstore\n    /* \"#utility.yul\":917:1155   */\n  pop\n    /* \"#utility.yul\":874:1155   */\n  pop\n  pop\n  jump\t// out\n    /* \"#utility.yul\":1161:1290   */\ntag_25:\n    /* \"#utility.yul\":1195:1201   */\n  0x00\n    /* \"#utility.yul\":1222:1242   */\n  tag_65\n  tag_17\n  jump\t// in\ntag_65:\n    /* \"#utility.yul\":1212:1242   */\n  swap1\n  pop\n    /* \"#utility.yul\":1251:1284   */\n  tag_66\n    /* \"#utility.yul\":1279:1283   */\n  dup3\n    /* \"#utility.yul\":1271:1277   */\n  dup3\n    /* \"#utility.yul\":1251:1284   */\n  tag_24\n  jump\t// in\ntag_66:\n    /* \"#utility.yul\":1161:1290   */\n  swap2\n  swap1\n  pop\n  jump\t// out\n    /* \"#utility.yul\":1296:1604   */\ntag_26:\n    /* \"#utility.yul\":1358:1362   */\n  0x00\n    /* \"#utility.yul\":1448:1466   */\n  0xffffffffffffffff\n    /* \"#utility.yul\":1440:1446   */\n  dup3\n    /* \"#utility.yul\":1437:1467   */\n  gt\n    /* \"#utility.yul\":1434:1490   */\n  iszero\n  tag_68\n  jumpi\n    /* \"#utility.yul\":1470:1488   */\n  tag_69\n  tag_23\n  jump\t// in\ntag_69:\n    /* \"#utility.yul\":1434:1490   */\ntag_68:\n    /* \"#utility.yul\":1508:1537   */\n  tag_70\n    /* \"#utility.yul\":1530:1536   */\n  dup3\n    /* \"#utility.yul\":1508:1537   */\n  tag_22\n  jump\t// in\ntag_70:\n    /* \"#utility.yul\":1500:1537   */\n  swap1\n  pop\n    /* \"#utility.yul\":1592:1596   */\n  0x20\n    /* \"#utility.yul\":1586:1590   */\n  dup2\n    /* \"#utility.yul\":1582:1597   */\n  add\n    /* \"#utility.yul\":1574:1597   */\n  swap1\n  pop\n    /* \"#utility.yul\":1296:1604   */\n  swap2\n  swap1\n  pop\n  jump\t// out\n    /* \"#utility.yul\":1610:1749   */\ntag_27:\n    /* \"#utility.yul\":1699:1705   */\n  dup3\n    /* \"#utility.yul\":1694:1697   */\n  dup2\n    /* \"#utility.yul\":1689:1692   */\n  dup4\n    /* \"#utility.yul\":1683:1706   */\n  mcopy\n    /* \"#utility.yul\":1740:1741   */\n  0x00\n    /* \"#utility.yul\":1731:1737   */\n  dup4\n    /* \"#utility.yul\":1726:1729   */\n  dup4\n    /* \"#utility.yul\":1722:1738   */\n  add\n    /* \"#utility.yul\":1715:1742   */\n  mstore\n    /* \"#utility.yul\":1610:1749   */\n  pop\n  pop\n  pop\n  jump\t// out\n    /* \"#utility.yul\":1755:2189   */\ntag_28:\n    /* \"#utility.yul\":1844:1849   */\n  0x00\n    /* \"#utility.yul\":1869:1935   */\n  tag_73\n    /* \"#utility.yul\":1885:1934   */\n  tag_74\n    /* \"#utility.yul\":1927:1933   */\n  dup5\n    /* \"#utility.yul\":1885:1934   */\n  tag_26\n  jump\t// in\ntag_74:\n    /* \"#utility.yul\":1869:1935   */\n  tag_25\n  jump\t// in\ntag_73:\n    /* \"#utility.yul\":1860:1935   */\n  swap1\n  pop\n    /* \"#utility.yul\":1958:1964   */\n  dup3\n    /* \"#utility.yul\":1951:1956   */\n  dup2\n    /* \"#utility.yul\":1944:1965   */\n  mstore\n    /* \"#utility.yul\":1996:2000   */\n  0x20\n    /* \"#utility.yul\":1989:1994   */\n  dup2\n    /* \"#utility.yul\":1985:2001   */\n  add\n    /* \"#utility.yul\":2034:2037   */\n  dup5\n    /* \"#utility.yul\":2025:2031   */\n  dup5\n    /* \"#utility.yul\":2020:2023   */\n  dup5\n    /* \"#utility.yul\":2016:2032   */\n  add\n    /* \"#utility.yul\":2013:2038   */\n  gt\n    /* \"#utility.yul\":2010:2122   */\n  iszero\n  tag_75\n  jumpi\n    /* \"#utility.yul\":2041:2120   */\n  tag_76\n  tag_21\n  jump\t// in\ntag_76:\n    /* \"#utility.yul\":2010:2122   */\ntag_75:\n    /* \"#utility.yul\":2131:2183   */\n  tag_77\n    /* \"#utility.yul\":2176:2182   */\n  dup5\n    /* \"#utility.yul\":2171:2174   */\n  dup3\n    /* \"#utility.yul\":2166:2169   */\n  dup6\n    /* \"#utility.yul\":2131:2183   */\n  tag_27\n  jump\t// in\ntag_77:\n    /* \"#utility.yul\":1850:2189   */\n  pop\n    /* \"#utility.yul\":1755:2189   */\n  swap4\n  swap3\n  pop\n  pop\n  pop\n  jump\t// out\n    /* \"#utility.yul\":2209:2564   */\ntag_29:\n    /* \"#utility.yul\":2276:2281   */\n  0x00\n    /* \"#utility.yul\":2325:2328   */\n  dup3\n    /* \"#utility.yul\":2318:2322   */\n  0x1f\n    /* \"#utility.yul\":2310:2316   */\n  dup4\n    /* \"#utility.yul\":2306:2323   */\n  add\n    /* \"#utility.yul\":2302:2329   */\n  slt\n    /* \"#utility.yul\":2292:2414   */\n  tag_79\n  jumpi\n    /* \"#utility.yul\":2333:2412   */\n  tag_80\n  tag_20\n  jump\t// in\ntag_80:\n    /* \"#utility.yul\":2292:2414   */\ntag_79:\n    /* \"#utility.yul\":2443:2449   */\n  dup2\n    /* \"#utility.yul\":2437:2450   */\n  mload\n    /* \"#utility.yul\":2468:2558   */\n  tag_81\n    /* \"#utility.yul\":2554:2557   */\n  dup5\n    /* \"#utility.yul\":2546:2552   */\n  dup3\n    /* \"#utility.yul\":2539:2543   */\n  0x20\n    /* \"#utility.yul\":2531:2537   */\n  dup7\n    /* \"#utility.yul\":2527:2544   */\n  add\n    /* \"#utility.yul\":2468:2558   */\n  tag_28\n  jump\t// in\ntag_81:\n    /* \"#utility.yul\":2459:2558   */\n  swap2\n  pop\n    /* \"#utility.yul\":2282:2564   */\n  pop\n    /* \"#utility.yul\":2209:2564   */\n  swap3\n  swap2\n  pop\n  pop\n  jump\t// out\n    /* \"#utility.yul\":2570:2647   */\ntag_30:\n    /* \"#utility.yul\":2607:2614   */\n  0x00\n    /* \"#utility.yul\":2636:2641   */\n  dup2\n    /* \"#utility.yul\":2625:2641   */\n  swap1\n  pop\n    /* \"#utility.yul\":2570:2647   */\n  swap2\n  swap1\n  pop\n  jump\t// out\n    /* \"#utility.yul\":2653:2775   */\ntag_31:\n    /* \"#utility.yul\":2726:2750   */\n  tag_84\n    /* \"#utility.yul\":2744:2749   */\n  dup2\n    /* \"#utility.yul\":2726:2750   */\n  tag_30\n  jump\t// in\ntag_84:\n    /* \"#utility.yul\":2719:2724   */\n  dup2\n    /* \"#utility.yul\":2716:2751   */\n  eq\n    /* \"#utility.yul\":2706:2769   */\n  tag_85\n  jumpi\n    /* \"#utility.yul\":2765:2766   */\n  0x00\n    /* \"#utility.yul\":2762:2763   */\n  dup1\n    /* \"#utility.yul\":2755:2767   */\n  revert\n    /* \"#utility.yul\":2706:2769   */\ntag_85:\n    /* \"#utility.yul\":2653:2775   */\n  pop\n  jump\t// out\n    /* \"#utility.yul\":2781:2924   */\ntag_32:\n    /* \"#utility.yul\":2838:2843   */\n  0x00\n    /* \"#utility.yul\":2869:2875   */\n  dup2\n    /* \"#utility.yul\":2863:2876   */\n  mload\n    /* \"#utility.yul\":2854:2876   */\n  swap1\n  pop\n    /* \"#utility.yul\":2885:2918   */\n  tag_87\n    /* \"#utility.yul\":2912:2917   */\n  dup2\n    /* \"#utility.yul\":2885:2918   */\n  tag_31\n  jump\t// in\ntag_87:\n    /* \"#utility.yul\":2781:2924   */\n  swap3\n  swap2\n  pop\n  pop\n  jump\t// out\n    /* \"#utility.yul\":2930:4096   */\ntag_3:\n    /* \"#utility.yul\":3047:3053   */\n  0x00\n    /* \"#utility.yul\":3055:3061   */\n  dup1\n    /* \"#utility.yul\":3063:3069   */\n  0x00\n    /* \"#utility.yul\":3071:3077   */\n  dup1\n    /* \"#utility.yul\":3120:3123   */\n  0x80\n    /* \"#utility.yul\":3108:3117   */\n  dup6\n    /* \"#utility.yul\":3099:3106   */\n  dup8\n    /* \"#utility.yul\":3095:3118   */\n  sub\n    /* \"#utility.yul\":3091:3124   */\n  slt\n    /* \"#utility.yul\":3088:3208   */\n  iszero\n  tag_89\n  jumpi\n    /* \"#utility.yul\":3127:3206   */\n  tag_90\n  tag_18\n  jump\t// in\ntag_90:\n    /* \"#utility.yul\":3088:3208   */\ntag_89:\n    /* \"#utility.yul\":3268:3269   */\n  0x00\n    /* \"#utility.yul\":3257:3266   */\n  dup6\n    /* \"#utility.yul\":3253:3270   */\n  add\n    /* \"#utility.yul\":3247:3271   */\n  mload\n    /* \"#utility.yul\":3298:3316   */\n  0xffffffffffffffff\n    /* \"#utility.yul\":3290:3296   */\n  dup2\n    /* \"#utility.yul\":3287:3317   */\n  gt\n    /* \"#utility.yul\":3284:3401   */\n  iszero\n  tag_91\n  jumpi\n    /* \"#utility.yul\":3320:3399   */\n  tag_92\n  tag_19\n  jump\t// in\ntag_92:\n    /* \"#utility.yul\":3284:3401   */\ntag_91:\n    /* \"#utility.yul\":3425:3499   */\n  tag_93\n    /* \"#utility.yul\":3491:3498   */\n  dup8\n    /* \"#utility.yul\":3482:3488   */\n  dup3\n    /* \"#utility.yul\":3471:3480   */\n  dup9\n    /* \"#utility.yul\":3467:3489   */\n  add\n    /* \"#utility.yul\":3425:3499   */\n  tag_29\n  jump\t// in\ntag_93:\n    /* \"#utility.yul\":3415:3499   */\n  swap5\n  pop\n    /* \"#utility.yul\":3218:3509   */\n  pop\n    /* \"#utility.yul\":3569:3571   */\n  0x20\n    /* \"#utility.yul\":3558:3567   */\n  dup6\n    /* \"#utility.yul\":3554:3572   */\n  add\n    /* \"#utility.yul\":3548:3573   */\n  mload\n    /* \"#utility.yul\":3600:3618   */\n  0xffffffffffffffff\n    /* \"#utility.yul\":3592:3598   */\n  dup2\n    /* \"#utility.yul\":3589:3619   */\n  gt\n    /* \"#utility.yul\":3586:3703   */\n  iszero\n  tag_94\n  jumpi\n    /* \"#utility.yul\":3622:3701   */\n  tag_95\n  tag_19\n  jump\t// in\ntag_95:\n    /* \"#utility.yul\":3586:3703   */\ntag_94:\n    /* \"#utility.yul\":3727:3801   */\n  tag_96\n    /* \"#utility.yul\":3793:3800   */\n  dup8\n    /* \"#utility.yul\":3784:3790   */\n  dup3\n    /* \"#utility.yul\":3773:3782   */\n  dup9\n    /* \"#utility.yul\":3769:3791   */\n  add\n    /* \"#utility.yul\":3727:3801   */\n  tag_29\n  jump\t// in\ntag_96:\n    /* \"#utility.yul\":3717:3801   */\n  swap4\n  pop\n    /* \"#utility.yul\":3519:3811   */\n  pop\n    /* \"#utility.yul\":3850:3852   */\n  0x40\n    /* \"#utility.yul\":3876:3940   */\n  tag_97\n    /* \"#utility.yul\":3932:3939   */\n  dup8\n    /* \"#utility.yul\":3923:3929   */\n  dup3\n    /* \"#utility.yul\":3912:3921   */\n  dup9\n    /* \"#utility.yul\":3908:3930   */\n  add\n    /* \"#utility.yul\":3876:3940   */\n  tag_32\n  jump\t// in\ntag_97:\n    /* \"#utility.yul\":3866:3940   */\n  swap3\n  pop\n    /* \"#utility.yul\":3821:3950   */\n  pop\n    /* \"#utility.yul\":3989:3991   */\n  0x60\n    /* \"#utility.yul\":4015:4079   */\n  tag_98\n    /* \"#utility.yul\":4071:4078   */\n  dup8\n    /* \"#utility.yul\":4062:4068   */\n  dup3\n    /* \"#utility.yul\":4051:4060   */\n  dup9\n    /* \"#utility.yul\":4047:4069   */\n  add\n    /* \"#utility.yul\":4015:4079   */\n  tag_32\n  jump\t// in\ntag_98:\n    /* \"#utility.yul\":4005:4079   */\n  swap2\n  pop\n    /* \"#utility.yul\":3960:4089   */\n  pop\n    /* \"#utility.yul\":2930:4096   */\n  swap3\n  swap6\n  swap2\n  swap5\n  pop\n  swap3\n  pop\n  jump\t// out\n    /* \"#utility.yul\":4102:4201   */\ntag_33:\n    /* \"#utility.yul\":4154:4160   */\n  0x00\n    /* \"#utility.yul\":4188:4193   */\n  dup2\n    /* \"#utility.yul\":4182:4194   */\n  mload\n    /* \"#utility.yul\":4172:4194   */\n  swap1\n  pop\n    /* \"#utility.yul\":4102:4201   */\n  swap2\n  swap1\n  pop\n  jump\t// out\n    /* \"#utility.yul\":4207:4387   */\ntag_34:\n    /* \"#utility.yul\":4255:4332   */\n  0x4e487b7100000000000000000000000000000000000000000000000000000000\n    /* \"#utility.yul\":4252:4253   */\n  0x00\n    /* \"#utility.yul\":4245:4333   */\n  mstore\n    /* \"#utility.yul\":4352:4356   */\n  0x22\n    /* \"#utility.yul\":4349:4350   */\n  0x04\n    /* \"#utility.yul\":4342:4357   */\n  mstore\n    /* \"#utility.yul\":4376:4380   */\n  0x24\n    /* \"#utility.yul\":4373:4374   */\n  0x00\n    /* \"#utility.yul\":4366:4381   */\n  revert\n    /* \"#utility.yul\":4393:4713   */\ntag_35:\n    /* \"#utility.yul\":4437:4443   */\n  0x00\n    /* \"#utility.yul\":4474:4475   */\n  0x02\n    /* \"#utility.yul\":4468:4472   */\n  dup3\n    /* \"#utility.yul\":4464:4476   */\n  div\n    /* \"#utility.yul\":4454:4476   */\n  swap1\n  pop\n    /* \"#utility.yul\":4521:4522   */\n  0x01\n    /* \"#utility.yul\":4515:4519   */\n  dup3\n    /* \"#utility.yul\":4511:4523   */\n  and\n    /* \"#utility.yul\":4542:4560   */\n  dup1\n    /* \"#utility.yul\":4532:4613   */\n  tag_102\n  jumpi\n    /* \"#utility.yul\":4598:4602   */\n  0x7f\n    /* \"#utility.yul\":4590:4596   */\n  dup3\n    /* \"#utility.yul\":4586:4603   */\n  and\n    /* \"#utility.yul\":4576:4603   */\n  swap2\n  pop\n    /* \"#utility.yul\":4532:4613   */\ntag_102:\n    /* \"#utility.yul\":4660:4662   */\n  0x20\n    /* \"#utility.yul\":4652:4658   */\n  dup3\n    /* \"#utility.yul\":4649:4663   */\n  lt\n    /* \"#utility.yul\":4629:4647   */\n  dup2\n    /* \"#utility.yul\":4626:4664   */\n  sub\n    /* \"#utility.yul\":4623:4707   */\n  tag_103\n  jumpi\n    /* \"#utility.yul\":4679:4697   */\n  tag_104\n  tag_34\n  jump\t// in\ntag_104:\n    /* \"#utility.yul\":4623:4707   */\ntag_103:\n    /* \"#utility.yul\":4444:4713   */\n  pop\n    /* \"#utility.yul\":4393:4713   */\n  swap2\n  swap1\n  pop\n  jump\t// out\n    /* \"#utility.yul\":4719:4860   */\ntag_36:\n    /* \"#utility.yul\":4768:4772   */\n  0x00\n    /* \"#utility.yul\":4791:4794   */\n  dup2\n    /* \"#utility.yul\":4783:4794   */\n  swap1\n  pop\n    /* \"#utility.yul\":4814:4817   */\n  dup2\n    /* \"#utility.yul\":4811:4812   */\n  0x00\n    /* \"#utility.yul\":4804:4818   */\n  mstore\n    /* \"#utility.yul\":4848:4852   */\n  0x20\n    /* \"#utility.yul\":4845:4846   */\n  0x00\n    /* \"#utility.yul\":4835:4853   */\n  keccak256\n    /* \"#utility.yul\":4827:4853   */\n  swap1\n  pop\n    /* \"#utility.yul\":4719:4860   */\n  swap2\n  swap1\n  pop\n  jump\t// out\n    /* \"#utility.yul\":4866:4959   */\ntag_37:\n    /* \"#utility.yul\":4903:4909   */\n  0x00\n    /* \"#utility.yul\":4950:4952   */\n  0x20\n    /* \"#utility.yul\":4945:4947   */\n  0x1f\n    /* \"#utility.yul\":4938:4943   */\n  dup4\n    /* \"#utility.yul\":4934:4948   */\n  add\n    /* \"#utility.yul\":4930:4953   */\n  div\n    /* \"#utility.yul\":4920:4953   */\n  swap1\n  pop\n    /* \"#utility.yul\":4866:4959   */\n  swap2\n  swap1\n  pop\n  jump\t// out\n    /* \"#utility.yul\":4965:5072   */\ntag_38:\n    /* \"#utility.yul\":5009:5017   */\n  0x00\n    /* \"#utility.yul\":5059:5064   */\n  dup3\n    /* \"#utility.yul\":5053:5057   */\n  dup3\n    /* \"#utility.yul\":5049:5065   */\n  shl\n    /* \"#utility.yul\":5028:5065   */\n  swap1\n  pop\n    /* \"#utility.yul\":4965:5072   */\n  swap3\n  swap2\n  pop\n  pop\n  jump\t// out\n    /* \"#utility.yul\":5078:5471   */\ntag_39:\n    /* \"#utility.yul\":5147:5153   */\n  0x00\n    /* \"#utility.yul\":5197:5198   */\n  0x08\n    /* \"#utility.yul\":5185:5195   */\n  dup4\n    /* \"#utility.yul\":5181:5199   */\n  mul\n    /* \"#utility.yul\":5220:5317   */\n  tag_109\n    /* \"#utility.yul\":5250:5316   */\n  0xffffffffffffffffffffffffffffffffffffffffffffffffffffffffffffffff\n    /* \"#utility.yul\":5239:5248   */\n  dup3\n    /* \"#utility.yul\":5220:5317   */\n  tag_38\n  jump\t// in\ntag_109:\n    /* \"#utility.yul\":5338:5377   */\n  tag_110\n    /* \"#utility.yul\":5368:5376   */\n  dup7\n    /* \"#utility.yul\":5357:5366   */\n  dup4\n    /* \"#utility.yul\":5338:5377   */\n  tag_38\n  jump\t// in\ntag_110:\n    /* \"#utility.yul\":5326:5377   */\n  swap6\n  pop\n    /* \"#utility.yul\":5410:5414   */\n  dup1\n    /* \"#utility.yul\":5406:5415   */\n  not\n    /* \"#utility.yul\":5399:5404   */\n  dup5\n    /* \"#utility.yul\":5395:5416   */\n  and\n    /* \"#utility.yul\":5386:5416   */\n  swap4\n  pop\n    /* \"#utility.yul\":5459:5463   */\n  dup1\n    /* \"#utility.yul\":5449:5457   */\n  dup7\n    /* \"#utility.yul\":5445:5464   */\n  and\n    /* \"#utility.yul\":5438:5443   */\n  dup5\n    /* \"#utility.yul\":5435:5465   */\n  or\n    /* \"#utility.yul\":5425:5465   */\n  swap3\n  pop\n    /* \"#utility.yul\":5154:5471   */\n  pop\n  pop\n    /* \"#utility.yul\":5078:5471   */\n  swap4\n  swap3\n  pop\n  pop\n  pop\n  jump\t// out\n    /* \"#utility.yul\":5477:5537   */\ntag_40:\n    /* \"#utility.yul\":5505:5508   */\n  0x00\n    /* \"#utility.yul\":5526:5531   */\n  dup2\n    /* \"#utility.yul\":5519:5531   */\n  swap1\n  pop\n    /* \"#utility.yul\":5477:5537   */\n  swap2\n  swap1\n  pop\n  jump\t// out\n    /* \"#utility.yul\":5543:5685   */\ntag_41:\n    /* \"#utility.yul\":5593:5602   */\n  0x00\n    /* \"#utility.yul\":5626:5679   */\n  tag_113\n    /* \"#utility.yul\":5644:5678   */\n  tag_114\n    /* \"#utility.yul\":5653:5677   */\n  tag_115\n    /* \"#utility.yul\":5671:5676   */\n  dup5\n    /* \"#utility.yul\":5653:5677   */\n  tag_30\n  jump\t// in\ntag_115:\n    /* \"#utility.yul\":5644:5678   */\n  tag_40\n  jump\t// in\ntag_114:\n    /* \"#utility.yul\":5626:5679   */\n  tag_30\n  jump\t// in\ntag_113:\n    /* \"#utility.yul\":5613:5679   */\n  swap1\n  pop\n    /* \"#utility.yul\":5543:5685   */\n  swap2\n  swap1\n  pop\n  jump\t// out\n    /* \"#utility.yul\":5691:5766   */\ntag_42:\n    /* \"#utility.yul\":5734:5737   */\n  0x00\n    /* \"#utility.yul\":5755:5760   */\n  dup2\n    /* \"#utility.yul\":5748:5760   */\n  swap1\n  pop\n    /* \"#utility.yul\":5691:5766   */\n  swap2\n  swap1\n  pop\n  jump\t// out\n    /* \"#utility.yul\":5772:6041   */\ntag_43:\n    /* \"#utility.yul\":5882:5921   */\n  tag_118\n    /* \"#utility.yul\":5913:5920   */\n  dup4\n    /* \"#utility.yul\":5882:5921   */\n  tag_41\n  jump\t// in\ntag_118:\n    /* \"#utility.yul\":5943:6034   */\n  tag_119\n    /* \"#utility.yul\":5992:6033   */\n  tag_120\n    /* \"#utility.yul\":6016:6032   */\n  dup3\n    /* \"#utility.yul\":5992:6033   */\n  tag_42\n  jump\t// in\ntag_120:\n    /* \"#utility.yul\":5984:5990   */\n  dup5\n    /* \"#utility.yul\":5977:5981   */\n  dup5\n    /* \"#utility.yul\":5971:5982   */\n  sload\n    /* \"#utility.yul\":5943:6034   */\n  tag_39\n  jump\t// in\ntag_119:\n    /* \"#utility.yul\":5937:5941   */\n  dup3\n    /* \"#utility.yul\":5930:6035   */\n  sstore\n    /* \"#utility.yul\":5848:6041   */\n  pop\n    /* \"#utility.yul\":5772:6041   */\n  pop\n  pop\n  pop\n  jump\t// out\n    /* \"#utility.yul\":6047:6120   */\ntag_44:\n    /* \"#utility.yul\":6092:6095   */\n  0x00\n    /* \"#utility.yul\":6047:6120   */\n  swap1\n  jump\t// out\n    /* \"#utility.yul\":6126:6315   */\ntag_45:\n    /* \"#utility.yul\":6203:6235   */\n  tag_123\n  tag_44\n  jump\t// in\ntag_123:\n    /* \"#utility.yul\":6244:6309   */\n  tag_124\n    /* \"#utility.yul\":6302:6308   */\n  dup2\n    /* \"#utility.yul\":6294:6300   */\n  dup5\n    /* \"#utility.yul\":6288:6292   */\n  dup5\n    /* \"#utility.yul\":6244:6309   */\n  tag_43\n  jump\t// in\ntag_124:\n    /* \"#utility.yul\":6179:6315   */\n  pop\n    /* \"#utility.yul\":6126:6315   */\n  pop\n  pop\n  jump\t// out\n    /* \"#utility.yul\":6321:6507   */\ntag_46:\n    /* \"#utility.yul\":6381:6501   */\ntag_126:\n    /* \"#utility.yul\":6398:6401   */\n  dup2\n    /* \"#utility.yul\":6391:6396   */\n  dup2\n    /* \"#utility.yul\":6388:6402   */\n  lt\n    /* \"#utility.yul\":6381:6501   */\n  iszero\n  tag_128\n  jumpi\n    /* \"#utility.yul\":6452:6491   */\n  tag_129\n    /* \"#utility.yul\":6489:6490   */\n  0x00\n    /* \"#utility.yul\":6482:6487   */\n  dup3\n    /* \"#utility.yul\":6452:6491   */\n  tag_45\n  jump\t// in\ntag_129:\n    /* \"#utility.yul\":6425:6426   */\n  0x01\n    /* \"#utility.yul\":6418:6423   */\n  dup2\n    /* \"#utility.yul\":6414:6427   */\n  add\n    /* \"#utility.yul\":6405:6427   */\n  swap1\n  pop\n    /* \"#utility.yul\":6381:6501   */\n  jump(tag_126)\ntag_128:\n    /* \"#utility.yul\":6321:6507   */\n  pop\n  pop\n  jump\t// out\n    /* \"#utility.yul\":6513:7056   */\ntag_47:\n    /* \"#utility.yul\":6614:6616   */\n  0x1f\n    /* \"#utility.yul\":6609:6612   */\n  dup3\n    /* \"#utility.yul\":6606:6617   */\n  gt\n    /* \"#utility.yul\":6603:7049   */\n  iszero\n  tag_131\n  jumpi\n    /* \"#utility.yul\":6648:6686   */\n  tag_132\n    /* \"#utility.yul\":6680:6685   */\n  dup2\n    /* \"#utility.yul\":6648:6686   */\n  tag_36\n  jump\t// in\ntag_132:\n    /* \"#utility.yul\":6732:6761   */\n  tag_133\n    /* \"#utility.yul\":6750:6760   */\n  dup5\n    /* \"#utility.yul\":6732:6761   */\n  tag_37\n  jump\t// in\ntag_133:\n    /* \"#utility.yul\":6722:6730   */\n  dup2\n    /* \"#utility.yul\":6718:6762   */\n  add\n    /* \"#utility.yul\":6915:6917   */\n  0x20\n    /* \"#utility.yul\":6903:6913   */\n  dup6\n    /* \"#utility.yul\":6900:6918   */\n  lt\n    /* \"#utility.yul\":6897:6946   */\n  iszero\n  tag_134\n  jumpi\n    /* \"#utility.yul\":6936:6944   */\n  dup2\n    /* \"#utility.yul\":6921:6944   */\n  swap1\n  pop\n    /* \"#utility.yul\":6897:6946   */\ntag_134:\n    /* \"#utility.yul\":6959:7039   */\n  tag_135\n    /* \"#utility.yul\":7015:7037   */\n  tag_136\n    /* \"#utility.yul\":7033:7036   */\n  dup6\n    /* \"#utility.yul\":7015:7037   */\n  tag_37\n  jump\t// in\ntag_136:\n    /* \"#utility.yul\":7005:7013   */\n  dup4\n    /* \"#utility.yul\":7001:7038   */\n  add\n    /* \"#utility.yul\":6988:6999   */\n  dup3\n    /* \"#utility.yul\":6959:7039   */\n  tag_46\n  jump\t// in\ntag_135:\n    /* \"#utility.yul\":6618:7049   */\n  pop\n  pop\n    /* \"#utility.yul\":6603:7049   */\ntag_131:\n    /* \"#utility.yul\":6513:7056   */\n  pop\n  pop\n  pop\n  jump\t// out\n    /* \"#utility.yul\":7062:7179   */\ntag_48:\n    /* \"#utility.yul\":7116:7124   */\n  0x00\n    /* \"#utility.yul\":7166:7171   */\n  dup3\n    /* \"#utility.yul\":7160:7164   */\n  dup3\n    /* \"#utility.yul\":7156:7172   */\n  shr\n    /* \"#utility.yul\":7135:7172   */\n  swap1\n  pop\n    /* \"#utility.yul\":7062:7179   */\n  swap3\n  swap2\n  pop\n  pop\n  jump\t// out\n    /* \"#utility.yul\":7185:7354   */\ntag_49:\n    /* \"#utility.yul\":7229:7235   */\n  0x00\n    /* \"#utility.yul\":7262:7313   */\n  tag_139\n    /* \"#utility.yul\":7310:7311   */\n  0x00\n    /* \"#utility.yul\":7306:7312   */\n  not\n    /* \"#utility.yul\":7298:7303   */\n  dup5\n    /* \"#utility.yul\":7295:7296   */\n  0x08\n    /* \"#utility.yul\":7291:7304   */\n  mul\n    /* \"#utility.yul\":7262:7313   */\n  tag_48\n  jump\t// in\ntag_139:\n    /* \"#utility.yul\":7258:7314   */\n  not\n    /* \"#utility.yul\":7343:7347   */\n  dup1\n    /* \"#utility.yul\":7337:7341   */\n  dup4\n    /* \"#utility.yul\":7333:7348   */\n  and\n    /* \"#utility.yul\":7323:7348   */\n  swap2\n  pop\n    /* \"#utility.yul\":7236:7354   */\n  pop\n    /* \"#utility.yul\":7185:7354   */\n  swap3\n  swap2\n  pop\n  pop\n  jump\t// out\n    /* \"#utility.yul\":7359:7654   */\ntag_50:\n    /* \"#utility.yul\":7435:7439   */\n  0x00\n    /* \"#utility.yul\":7581:7610   */\n  tag_141\n    /* \"#utility.yul\":7606:7609   */\n  dup4\n    /* \"#utility.yul\":7600:7604   */\n  dup4\n    /* \"#utility.yul\":7581:7610   */\n  tag_49\n  jump\t// in\ntag_141:\n    /* \"#utility.yul\":7573:7610   */\n  swap2\n  pop\n    /* \"#utility.yul\":7643:7646   */\n  dup3\n    /* \"#utility.yul\":7640:7641   */\n  0x02\n    /* \"#utility.yul\":7636:7647   */\n  mul\n    /* \"#utility.yul\":7630:7634   */\n  dup3\n    /* \"#utility.yul\":7627:7648   */\n  or\n    /* \"#utility.yul\":7619:7648   */\n  swap1\n  pop\n    /* \"#utility.yul\":7359:7654   */\n  swap3\n  swap2\n  pop\n  pop\n  jump\t// out\n    /* \"#utility.yul\":7659:9054   */\ntag_7:\n    /* \"#utility.yul\":7776:7813   */\n  tag_143\n    /* \"#utility.yul\":7809:7812   */\n  dup3\n    /* \"#utility.yul\":7776:7813   */\n  tag_33\n  jump\t// in\ntag_143:\n    /* \"#utility.yul\":7878:7896   */\n  0xffffffffffffffff\n    /* \"#utility.yul\":7870:7876   */\n  dup2\n    /* \"#utility.yul\":7867:7897   */\n  gt\n    /* \"#utility.yul\":7864:7920   */\n  iszero\n  tag_144\n  jumpi\n    /* \"#utility.yul\":7900:7918   */\n  tag_145\n  tag_23\n  jump\t// in\ntag_145:\n    /* \"#utility.yul\":7864:7920   */\ntag_144:\n    /* \"#utility.yul\":7944:7982   */\n  tag_146\n    /* \"#utility.yul\":7976:7980   */\n  dup3\n    /* \"#utility.yul\":7970:7981   */\n  sload\n    /* \"#utility.yul\":7944:7982   */\n  tag_35\n  jump\t// in\ntag_146:\n    /* \"#utility.yul\":8029:8096   */\n  tag_147\n    /* \"#utility.yul\":8089:8095   */\n  dup3\n    /* \"#utility.yul\":8081:8087   */\n  dup3\n    /* \"#utility.yul\":8075:8079   */\n  dup6\n    /* \"#utility.yul\":8029:8096   */\n  tag_47\n  jump\t// in\ntag_147:\n    /* \"#utility.yul\":8123:8124   */\n  0x00\n    /* \"#utility.yul\":8147:8151   */\n  0x20\n    /* \"#utility.yul\":8134:8151   */\n  swap1\n  pop\n    /* \"#utility.yul\":8179:8181   */\n  0x1f\n    /* \"#utility.yul\":8171:8177   */\n  dup4\n    /* \"#utility.yul\":8168:8182   */\n  gt\n    /* \"#utility.yul\":8196:8197   */\n  0x01\n    /* \"#utility.yul\":8191:8809   */\n  dup2\n  eq\n  tag_149\n  jumpi\n    /* \"#utility.yul\":8853:8854   */\n  0x00\n    /* \"#utility.yul\":8870:8876   */\n  dup5\n    /* \"#utility.yul\":8867:8944   */\n  iszero\n  tag_150\n  jumpi\n    /* \"#utility.yul\":8919:8928   */\n  dup3\n    /* \"#utility.yul\":8914:8917   */\n  dup8\n    /* \"#utility.yul\":8910:8929   */\n  add\n    /* \"#utility.yul\":8904:8930   */\n  mload\n    /* \"#utility.yul\":8895:8930   */\n  swap1\n  pop\n    /* \"#utility.yul\":8867:8944   */\ntag_150:\n    /* \"#utility.yul\":8970:9037   */\n  tag_151\n    /* \"#utility.yul\":9030:9036   */\n  dup6\n    /* \"#utility.yul\":9023:9028   */\n  dup3\n    /* \"#utility.yul\":8970:9037   */\n  tag_50\n  jump\t// in\ntag_151:\n    /* \"#utility.yul\":8964:8968   */\n  dup7\n    /* \"#utility.yul\":8957:9038   */\n  sstore\n    /* \"#utility.yul\":8826:9048   */\n  pop\n    /* \"#utility.yul\":8161:9048   */\n  jump(tag_148)\n    /* \"#utility.yul\":8191:8809   */\ntag_149:\n    /* \"#utility.yul\":8243:8247   */\n  0x1f\n    /* \"#utility.yul\":8239:8248   */\n  not\n    /* \"#utility.yul\":8231:8237   */\n  dup5\n    /* \"#utility.yul\":8227:8249   */\n  and\n    /* \"#utility.yul\":8277:8314   */\n  tag_152\n    /* \"#utility.yul\":8309:8313   */\n  dup7\n    /* \"#utility.yul\":8277:8314   */\n  tag_36\n  jump\t// in\ntag_152:\n    /* \"#utility.yul\":8336:8337   */\n  0x00\n    /* \"#utility.yul\":8350:8558   */\ntag_153:\n    /* \"#utility.yul\":8364:8371   */\n  dup3\n    /* \"#utility.yul\":8361:8362   */\n  dup2\n    /* \"#utility.yul\":8358:8372   */\n  lt\n    /* \"#utility.yul\":8350:8558   */\n  iszero\n  tag_155\n  jumpi\n    /* \"#utility.yul\":8443:8452   */\n  dup5\n    /* \"#utility.yul\":8438:8441   */\n  dup10\n    /* \"#utility.yul\":8434:8453   */\n  add\n    /* \"#utility.yul\":8428:8454   */\n  mload\n    /* \"#utility.yul\":8420:8426   */\n  dup3\n    /* \"#utility.yul\":8413:8455   */\n  sstore\n    /* \"#utility.yul\":8494:8495   */\n  0x01\n    /* \"#utility.yul\":8486:8492   */\n  dup3\n    /* \"#utility.yul\":8482:8496   */\n  add\n    /* \"#utility.yul\":8472:8496   */\n  swap2\n  pop\n    /* \"#utility.yul\":8541:8543   */\n  0x20\n    /* \"#utility.yul\":8530:8539   */\n  dup6\n    /* \"#utility.yul\":8526:8544   */\n  add\n    /* \"#utility.yul\":8513:8544   */\n  swap5\n  pop\n    /* \"#utility.yul\":8387:8391   */\n  0x20\n    /* \"#utility.yul\":8384:8385   */\n  dup2\n    /* \"#utility.yul\":8380:8392   */\n  add\n    /* \"#utility.yul\":8375:8392   */\n  swap1\n  pop\n    /* \"#utility.yul\":8350:8558   */\n  jump(tag_153)\ntag_155:\n    /* \"#utility.yul\":8586:8592   */\n  dup7\n    /* \"#utility.yul\":8577:8584   */\n  dup4\n    /* \"#utility.yul\":8574:8593   */\n  lt\n    /* \"#utility.yul\":8571:8750   */\n  iszero\n  tag_156\n  jumpi\n    /* \"#utility.yul\":8644:8653   */\n  dup5\n    /* \"#utility.yul\":8639:8642   */\n  dup10\n    /* \"#utility.yul\":8635:8654   */\n  add\n    /* \"#utility.yul\":8629:8655   */\n  mload\n    /* \"#utility.yul\":8687:8735   */\n  tag_157\n    /* \"#utility.yul\":8729:8733   */\n  0x1f\n    /* \"#utility.yul\":8721:8727   */\n  dup10\n    /* \"#utility.yul\":8717:8734   */\n  and\n    /* \"#utility.yul\":8706:8715   */\n  dup3\n    /* \"#utility.yul\":8687:8735   */\n  tag_49\n  jump\t// in\ntag_157:\n    /* \"#utility.yul\":8679:8685   */\n  dup4\n    /* \"#utility.yul\":8672:8736   */\n  sstore\n    /* \"#utility.yul\":8594:8750   */\n  pop\n    /* \"#utility.yul\":8571:8750   */\ntag_156:\n    /* \"#utility.yul\":8796:8797   */\n  0x01\n    /* \"#utility.yul\":8792:8793   */\n  0x02\n    /* \"#utility.yul\":8784:8790   */\n  dup9\n    /* \"#utility.yul\":8780:8794   */\n  mul\n    /* \"#utility.yul\":8776:8798   */\n  add\n    /* \"#utility.yul\":8770:8774   */\n  dup9\n    /* \"#utility.yul\":8763:8799   */\n  sstore\n    /* \"#utility.yul\":8198:8809   */\n  pop\n  pop\n  pop\n    /* \"#utility.yul\":8161:9048   */\ntag_148:\n  pop\n    /* \"#utility.yul\":7751:9054   */\n  pop\n  pop\n  pop\n    /* \"#utility.yul\":7659:9054   */\n  pop\n  pop\n  jump\t// out\n    /* \"#utility.yul\":9060:9240   */\ntag_51:\n    /* \"#utility.yul\":9108:9185   */\n  0x4e487b7100000000000000000000000000000000000000000000000000000000\n    /* \"#utility.yul\":9105:9106   */\n  0x00\n    /* \"#utility.yul\":9098:9186   */\n  mstore\n    /* \"#utility.yul\":9205:9209   */\n  0x11\n    /* \"#utility.yul\":9202:9203   */\n  0x04\n    /* \"#utility.yul\":9195:9210   */\n  mstore\n    /* \"#utility.yul\":9229:9233   */\n  0x24\n    /* \"#utility.yul\":9226:9227   */\n  0x00\n    /* \"#utility.yul\":9219:9234   */\n  revert\n    /* \"#utility.yul\":9246:9656   */\ntag_10:\n    /* \"#utility.yul\":9286:9293   */\n  0x00\n    /* \"#utility.yul\":9309:9329   */\n  tag_160\n    /* \"#utility.yul\":9327:9328   */\n  dup3\n    /* \"#utility.yul\":9309:9329   */\n  tag_30\n  jump\t// in\ntag_160:\n    /* \"#utility.yul\":9304:9329   */\n  swap2\n  pop\n    /* \"#utility.yul\":9343:9363   */\n  tag_161\n    /* \"#utility.yul\":9361:9362   */\n  dup4\n    /* \"#utility.yul\":9343:9363   */\n  tag_30\n  jump\t// in\ntag_161:\n    /* \"#utility.yul\":9338:9363   */\n  swap3\n  pop\n    /* \"#utility.yul\":9398:9399   */\n  dup3\n    /* \"#utility.yul\":9395:9396   */\n  dup3\n    /* \"#utility.yul\":9391:9400   */\n  mul\n    /* \"#utility.yul\":9420:9450   */\n  tag_162\n    /* \"#utility.yul\":9438:9449   */\n  dup2\n    /* \"#utility.yul\":9420:9450   */\n  tag_30\n  jump\t// in\ntag_162:\n    /* \"#utility.yul\":9409:9450   */\n  swap2\n  pop\n    /* \"#utility.yul\":9599:9600   */\n  dup3\n    /* \"#utility.yul\":9590:9597   */\n  dup3\n    /* \"#utility.yul\":9586:9601   */\n  div\n    /* \"#utility.yul\":9583:9584   */\n  dup5\n    /* \"#utility.yul\":9580:9602   */\n  eq\n    /* \"#utility.yul\":9560:9561   */\n  dup4\n    /* \"#utility.yul\":9553:9562   */\n  iszero\n    /* \"#utility.yul\":9533:9616   */\n  or\n    /* \"#utility.yul\":9510:9649   */\n  tag_163\n  jumpi\n    /* \"#utility.yul\":9629:9647   */\n  tag_164\n  tag_51\n  jump\t// in\ntag_164:\n    /* \"#utility.yul\":9510:9649   */\ntag_163:\n    /* \"#utility.yul\":9294:9656   */\n  pop\n    /* \"#utility.yul\":9246:9656   */\n  swap3\n  swap2\n  pop\n  pop\n  jump\t// out\n    /* \"#utility.yul\":9662:9853   */\ntag_12:\n    /* \"#utility.yul\":9702:9705   */\n  0x00\n    /* \"#utility.yul\":9721:9741   */\n  tag_166\n    /* \"#utility.yul\":9739:9740   */\n  dup3\n    /* \"#utility.yul\":9721:9741   */\n  tag_30\n  jump\t// in\ntag_166:\n    /* \"#utility.yul\":9716:9741   */\n  swap2\n  pop\n    /* \"#utility.yul\":9755:9775   */\n  tag_167\n    /* \"#utility.yul\":9773:9774   */\n  dup4\n    /* \"#utility.yul\":9755:9775   */\n  tag_30\n  jump\t// in\ntag_167:\n    /* \"#utility.yul\":9750:9775   */\n  swap3\n  pop\n    /* \"#utility.yul\":9798:9799   */\n  dup3\n    /* \"#utility.yul\":9795:9796   */\n  dup3\n    /* \"#utility.yul\":9791:9800   */\n  add\n    /* \"#utility.yul\":9784:9800   */\n  swap1\n  pop\n    /* \"#utility.yul\":9819:9822   */\n  dup1\n    /* \"#utility.yul\":9816:9817   */\n  dup3\n    /* \"#utility.yul\":9813:9823   */\n  gt\n    /* \"#utility.yul\":9810:9846   */\n  iszero\n  tag_168\n  jumpi\n    /* \"#utility.yul\":9826:9844   */\n  tag_169\n  tag_51\n  jump\t// in\ntag_169:\n    /* \"#utility.yul\":9810:9846   */\ntag_168:\n    /* \"#utility.yul\":9662:9853   */\n  swap3\n  swap2\n  pop\n  pop\n  jump\t// out\n    /* \"#utility.yul\":9859:10039   */\ntag_15:\n    /* \"#utility.yul\":9907:9984   */\n  0x4e487b7100000000000000000000000000000000000000000000000000000000\n    /* \"#utility.yul\":9904:9905   */\n  0x00\n    /* \"#utility.yul\":9897:9985   */\n  mstore\n    /* \"#utility.yul\":10004:10008   */\n  0x21\n    /* \"#utility.yul\":10001:10002   */\n  0x04\n    /* \"#utility.yul\":9994:10009   */\n  mstore\n    /* \"#utility.yul\":10028:10032   */\n  0x24\n    /* \"#utility.yul\":10025:10026   */\n  0x00\n    /* \"#utility.yul\":10018:10033   */\n  revert\n    /* \"contracts/Crowdfunding.sol\":60:4383  contract Crowdfunding {... */\ntag_16:\n  dataSize(sub_0)\n  dup1\n  dataOffset(sub_0)\n  0x00\n  codecopy\n  0x00\n  return\nstop\n\nsub_0: assembly {\n        /* \"contracts/Crowdfunding.sol\":60:4383  contract Crowdfunding {... */\n      mstore(0x40, 0x80)\n      jumpi(tag_1, lt(calldatasize, 0x04))\n      shr(0xe0, calldataload(0x00))\n      dup1\n      0x7284e416\n      gt\n      tag_22\n      jumpi\n      dup1\n      0xb85dfb80\n      gt\n      tag_23\n      jumpi\n      dup1\n      0xb85dfb80\n      eq\n      tag_17\n      jumpi\n      dup1\n      0xc19d93fb\n      eq\n      tag_18\n      jumpi\n      dup1\n      0xc4ae3168\n      eq\n      tag_19\n      jumpi\n      dup1\n      0xca1d209d\n      eq\n      tag_20\n      jumpi\n      dup1\n      0xde170570\n      eq\n      tag_21\n      jumpi\n      jump(tag_1)\n    tag_23:\n      dup1\n      0x7284e416\n      eq\n      tag_12\n      jumpi\n      dup1\n      0x7497211b\n      eq\n      tag_13\n      jumpi\n      dup1\n      0x7adba527\n      eq\n      tag_14\n      jumpi\n      dup1\n      0x8da5cb5b\n      eq\n      tag_15\n      jumpi\n      dup1\n      0x8ece7b91\n      eq\n      tag_16\n      jumpi\n      jump(tag_1)\n    tag_22:\n      dup1\n      0x3ccfd60b\n      gt\n      tag_24\n      jumpi\n      dup1\n      0x3ccfd60b\n      eq\n      tag_7\n      jumpi\n      dup1\n      0x40193883\n      eq\n      tag_8\n      jumpi\n      dup1\n      0x590e1ae3\n      eq\n      tag_9\n      jumpi\n      dup1\n      0x5c975abb\n      eq\n      tag_10\n      jumpi\n      dup1\n      0x6f9fb98a\n      eq\n      tag_11\n      jumpi\n      jump(tag_1)\n    tag_24:\n      dup1\n      0x039af9eb\n      eq\n      tag_2\n      jumpi\n      dup1\n      0x06fdde03\n      eq\n      tag_3\n      jumpi\n      dup1\n      0x10550515\n      eq\n      tag_4\n      jumpi\n      dup1\n      0x29dcb0cf\n      eq\n      tag_5\n      jumpi\n      dup1\n      0x389b7533\n      eq\n      tag_6\n      jumpi\n    tag_1:\n      0x00\n      dup1\n      revert\n        /* \"contracts/Crowdfunding.sol\":595:613  Tier[]public tiers */\n    tag_2:\n      callvalue\n      dup1\n      iszero\n      tag_25\n      jumpi\n      0x00\n      dup1\n      revert\n    tag_25:\n      pop\n      tag_26\n      0x04\n      dup1\n      calldatasize\n      sub\n      dup2\n      add\n      swap1\n      tag_27\n      swap2\n      swap1\n      tag_28\n      jump\t// in\n    tag_27:\n      tag_29\n      jump\t// in\n    tag_26:\n      mload(0x40)\n      tag_30\n      swap4\n      swap3\n      swap2\n      swap1\n      tag_31\n      jump\t// in\n    tag_30:\n      mload(0x40)\n      dup1\n      swap2\n      sub\n      swap1\n      return\n        /* \"contracts/Crowdfunding.sol\":89:107  string public name */\n    tag_3:\n      callvalue\n      dup1\n      iszero\n      tag_32\n      jumpi\n      0x00\n      dup1\n      revert\n    tag_32:\n      pop\n      tag_33\n      tag_34\n      jump\t// in\n    tag_33:\n      mload(0x40)\n      tag_35\n      swap2\n      swap1\n      tag_36\n      jump\t// in\n    tag_35:\n      mload(0x40)\n      dup1\n      swap2\n      sub\n      swap1\n      return\n        /* \"contracts/Crowdfunding.sol\":3972:4249  function getCampaignStatus() public view returns (CampaignState){... */\n    tag_4:\n      callvalue\n      dup1\n      iszero\n      tag_37\n      jumpi\n      0x00\n      dup1\n      revert\n    tag_37:\n      pop\n      tag_38\n      tag_39\n      jump\t// in\n    tag_38:\n      mload(0x40)\n      tag_40\n      swap2\n      swap1\n      tag_41\n      jump\t// in\n    tag_40:\n      mload(0x40)\n      dup1\n      swap2\n      sub\n      swap1\n      return\n        /* \"contracts/Crowdfunding.sol\":172:195  uint256 public deadline */\n    tag_5:\n      callvalue\n      dup1\n      iszero\n      tag_42\n      jumpi\n      0x00\n      dup1\n      revert\n    tag_42:\n      pop\n      tag_43\n      tag_44\n      jump\t// in\n    tag_43:\n      mload(0x40)\n      tag_45\n      swap2\n      swap1\n      tag_46\n      jump\t// in\n    tag_45:\n      mload(0x40)\n      dup1\n      swap2\n      sub\n      swap1\n      return\n        /* \"contracts/Crowdfunding.sol\":4257:4380  function extendDeadline(uint256 _daysToAdd) public onlyOwner campaignOpen{... */\n    tag_6:\n      callvalue\n      dup1\n      iszero\n      tag_47\n      jumpi\n      0x00\n      dup1\n      revert\n    tag_47:\n      pop\n      tag_48\n      0x04\n      dup1\n      calldatasize\n      sub\n      dup2\n      add\n      swap1\n      tag_49\n      swap2\n      swap1\n      tag_28\n      jump\t// in\n    tag_49:\n      tag_50\n      jump\t// in\n    tag_48:\n      stop\n        /* \"contracts/Crowdfunding.sol\":2795:3111  function withdraw() public onlyOwner{... */\n    tag_7:\n      callvalue\n      dup1\n      iszero\n      tag_51\n      jumpi\n      0x00\n      dup1\n      revert\n    tag_51:\n      pop\n      tag_52\n      tag_53\n      jump\t// in\n    tag_52:\n      stop\n        /* \"contracts/Crowdfunding.sol\":146:165  uint256 public goal */\n    tag_8:\n      callvalue\n      dup1\n      iszero\n      tag_54\n      jumpi\n      0x00\n      dup1\n      revert\n    tag_54:\n      pop\n      tag_55\n      tag_56\n      jump\t// in\n    tag_55:\n      mload(0x40)\n      tag_57\n      swap2\n      swap1\n      tag_46\n      jump\t// in\n    tag_57:\n      mload(0x40)\n      dup1\n      swap2\n      sub\n      swap1\n      return\n        /* \"contracts/Crowdfunding.sol\":3233:3627  function refund() public {... */\n    tag_9:\n      callvalue\n      dup1\n      iszero\n      tag_58\n      jumpi\n      0x00\n      dup1\n      revert\n    tag_58:\n      pop\n      tag_59\n      tag_60\n      jump\t// in\n    tag_59:\n      stop\n        /* \"contracts/Crowdfunding.sol\":229:247  bool public paused */\n    tag_10:\n      callvalue\n      dup1\n      iszero\n      tag_61\n      jumpi\n      0x00\n      dup1\n      revert\n    tag_61:\n      pop\n      tag_62\n      tag_63\n      jump\t// in\n    tag_62:\n      mload(0x40)\n      tag_64\n      swap2\n      swap1\n      tag_65\n      jump\t// in\n    tag_64:\n      mload(0x40)\n      dup1\n      swap2\n      sub\n      swap1\n      return\n        /* \"contracts/Crowdfunding.sol\":3119:3225  function getContractBalance() public view returns (uint256){... */\n    tag_11:\n      callvalue\n      dup1\n      iszero\n      tag_66\n      jumpi\n      0x00\n      dup1\n      revert\n    tag_66:\n      pop\n      tag_67\n      tag_68\n      jump\t// in\n    tag_67:\n      mload(0x40)\n      tag_69\n      swap2\n      swap1\n      tag_46\n      jump\t// in\n    tag_69:\n      mload(0x40)\n      dup1\n      swap2\n      sub\n      swap1\n      return\n        /* \"contracts/Crowdfunding.sol\":114:139  string public description */\n    tag_12:\n      callvalue\n      dup1\n      iszero\n      tag_70\n      jumpi\n      0x00\n      dup1\n      revert\n    tag_70:\n      pop\n      tag_71\n      tag_72\n      jump\t// in\n    tag_71:\n      mload(0x40)\n      tag_73\n      swap2\n      swap1\n      tag_36\n      jump\t// in\n    tag_73:\n      mload(0x40)\n      dup1\n      swap2\n      sub\n      swap1\n      return\n        /* \"contracts/Crowdfunding.sol\":2595:2787  function removeTier(uint256 _index) public onlyOwner{... */\n    tag_13:\n      callvalue\n      dup1\n      iszero\n      tag_74\n      jumpi\n      0x00\n      dup1\n      revert\n    tag_74:\n      pop\n      tag_75\n      0x04\n      dup1\n      calldatasize\n      sub\n      dup2\n      add\n      swap1\n      tag_76\n      swap2\n      swap1\n      tag_28\n      jump\t// in\n    tag_76:\n      tag_77\n      jump\t// in\n    tag_75:\n      stop\n        /* \"contracts/Crowdfunding.sol\":3635:3787  function hasFundedTier(address _backer, uint256 _tierIndex) public view returns (bool){... */\n    tag_14:\n      callvalue\n      dup1\n      iszero\n      tag_78\n      jumpi\n      0x00\n      dup1\n      revert\n    tag_78:\n      pop\n      tag_79\n      0x04\n      dup1\n      calldatasize\n      sub\n      dup2\n      add\n      swap1\n      tag_80\n      swap2\n      swap1\n      tag_81\n      jump\t// in\n    tag_80:\n      tag_82\n      jump\t// in\n    tag_79:\n      mload(0x40)\n      tag_83\n      swap2\n      swap1\n      tag_65\n      jump\t// in\n    tag_83:\n      mload(0x40)\n      dup1\n      swap2\n      sub\n      swap1\n      return\n        /* \"contracts/Crowdfunding.sol\":202:222  address public owner */\n    tag_15:\n      callvalue\n      dup1\n      iszero\n      tag_84\n      jumpi\n      0x00\n      dup1\n      revert\n    tag_84:\n      pop\n      tag_85\n      tag_86\n      jump\t// in\n    tag_85:\n      mload(0x40)\n      tag_87\n      swap2\n      swap1\n      tag_88\n      jump\t// in\n    tag_87:\n      mload(0x40)\n      dup1\n      swap2\n      sub\n      swap1\n      return\n        /* \"contracts/Crowdfunding.sol\":2372:2587  function addTier(... */\n    tag_16:\n      callvalue\n      dup1\n      iszero\n      tag_89\n      jumpi\n      0x00\n      dup1\n      revert\n    tag_89:\n      pop\n      tag_90\n      0x04\n      dup1\n      calldatasize\n      sub\n      dup2\n      add\n      swap1\n      tag_91\n      swap2\n      swap1\n      tag_92\n      jump\t// in\n    tag_91:\n      tag_93\n      jump\t// in\n    tag_90:\n      stop\n        /* \"contracts/Crowdfunding.sol\":620:659  mapping(address =>Backer)public backers */\n    tag_17:\n      callvalue\n      dup1\n      iszero\n      tag_94\n      jumpi\n      0x00\n      dup1\n      revert\n    tag_94:\n      pop\n      tag_95\n      0x04\n      dup1\n      calldatasize\n      sub\n      dup2\n      add\n      swap1\n      tag_96\n      swap2\n      swap1\n      tag_97\n      jump\t// in\n    tag_96:\n      tag_98\n      jump\t// in\n    tag_95:\n      mload(0x40)\n      tag_99\n      swap2\n      swap1\n      tag_46\n      jump\t// in\n    tag_99:\n      mload(0x40)\n      dup1\n      swap2\n      sub\n      swap1\n      return\n        /* \"contracts/Crowdfunding.sol\":314:340  CampaignState public state */\n    tag_18:\n      callvalue\n      dup1\n      iszero\n      tag_100\n      jumpi\n      0x00\n      dup1\n      revert\n    tag_100:\n      pop\n      tag_101\n      tag_102\n      jump\t// in\n    tag_101:\n      mload(0x40)\n      tag_103\n      swap2\n      swap1\n      tag_41\n      jump\t// in\n    tag_103:\n      mload(0x40)\n      dup1\n      swap2\n      sub\n      swap1\n      return\n        /* \"contracts/Crowdfunding.sol\":3889:3964  function togglePause( ) public onlyOwner {... */\n    tag_19:\n      callvalue\n      dup1\n      iszero\n      tag_104\n      jumpi\n      0x00\n      dup1\n      revert\n    tag_104:\n      pop\n      tag_105\n      tag_106\n      jump\t// in\n    tag_105:\n      stop\n        /* \"contracts/Crowdfunding.sol\":1938:2364  function fund(uint256 _tierIndex) public payable  campaignOpen notPaused {... */\n    tag_20:\n      tag_107\n      0x04\n      dup1\n      calldatasize\n      sub\n      dup2\n      add\n      swap1\n      tag_108\n      swap2\n      swap1\n      tag_28\n      jump\t// in\n    tag_108:\n      tag_109\n      jump\t// in\n    tag_107:\n      stop\n        /* \"contracts/Crowdfunding.sol\":3795:3881  function getTiers() public view returns (Tier[] memory){... */\n    tag_21:\n      callvalue\n      dup1\n      iszero\n      tag_110\n      jumpi\n      0x00\n      dup1\n      revert\n    tag_110:\n      pop\n      tag_111\n      tag_112\n      jump\t// in\n    tag_111:\n      mload(0x40)\n      tag_113\n      swap2\n      swap1\n      tag_114\n      jump\t// in\n    tag_113:\n      mload(0x40)\n      dup1\n      swap2\n      sub\n      swap1\n      return\n        /* \"contracts/Crowdfunding.sol\":595:613  Tier[]public tiers */\n    tag_29:\n      0x05\n      dup2\n      dup2\n      sload\n      dup2\n      lt\n      tag_115\n      jumpi\n      0x00\n      dup1\n      revert\n    tag_115:\n      swap1\n      0x00\n      mstore\n      keccak256(0x00, 0x20)\n      swap1\n      0x03\n      mul\n      add\n      0x00\n      swap2\n      pop\n      swap1\n      pop\n      dup1\n      0x00\n      add\n      dup1\n      sload\n      tag_117\n      swap1\n      tag_118\n      jump\t// in\n    tag_117:\n      dup1\n      0x1f\n      add\n      0x20\n      dup1\n      swap2\n      div\n      mul\n      0x20\n      add\n      mload(0x40)\n      swap1\n      dup2\n      add\n      0x40\n      mstore\n      dup1\n      swap3\n      swap2\n      swap1\n      dup2\n      dup2\n      mstore\n      0x20\n      add\n      dup3\n      dup1\n      sload\n      tag_119\n      swap1\n      tag_118\n      jump\t// in\n    tag_119:\n      dup1\n      iszero\n      tag_120\n      jumpi\n      dup1\n      0x1f\n      lt\n      tag_121\n      jumpi\n      0x0100\n      dup1\n      dup4\n      sload\n      div\n      mul\n      dup4\n      mstore\n      swap2\n      0x20\n      add\n      swap2\n      jump(tag_120)\n    tag_121:\n      dup3\n      add\n      swap2\n      swap1\n      0x00\n      mstore\n      keccak256(0x00, 0x20)\n      swap1\n    tag_122:\n      dup2\n      sload\n      dup2\n      mstore\n      swap1\n      0x01\n      add\n      swap1\n      0x20\n      add\n      dup1\n      dup4\n      gt\n      tag_122\n      jumpi\n      dup3\n      swap1\n      sub\n      0x1f\n      and\n      dup3\n      add\n      swap2\n    tag_120:\n      pop\n      pop\n      pop\n      pop\n      pop\n      swap1\n      dup1\n      0x01\n      add\n      sload\n      swap1\n      dup1\n      0x02\n      add\n      sload\n      swap1\n      pop\n      dup4\n      jump\t// out\n        /* \"contracts/Crowdfunding.sol\":89:107  string public name */\n    tag_34:\n      0x00\n      dup1\n      sload\n      tag_123\n      swap1\n      tag_118\n      jump\t// in\n    tag_123:\n      dup1\n      0x1f\n      add\n      0x20\n      dup1\n      swap2\n      div\n      mul\n      0x20\n      add\n      mload(0x40)\n      swap1\n      dup2\n      add\n      0x40\n      mstore\n      dup1\n      swap3\n      swap2\n      swap1\n      dup2\n      dup2\n      mstore\n      0x20\n      add\n      dup3\n      dup1\n      sload\n      tag_124\n      swap1\n      tag_118\n      jump\t// in\n    tag_124:\n      dup1\n      iszero\n      tag_125\n      jumpi\n      dup1\n      0x1f\n      lt\n      tag_126\n      jumpi\n      0x0100\n      dup1\n      dup4\n      sload\n      div\n      mul\n      dup4\n      mstore\n      swap2\n      0x20\n      add\n      swap2\n      jump(tag_125)\n    tag_126:\n      dup3\n      add\n      swap2\n      swap1\n      0x00\n      mstore\n      keccak256(0x00, 0x20)\n      swap1\n    tag_127:\n      dup2\n      sload\n      dup2\n      mstore\n      swap1\n      0x01\n      add\n      swap1\n      0x20\n      add\n      dup1\n      dup4\n      gt\n      tag_127\n      jumpi\n      dup3\n      swap1\n      sub\n      0x1f\n      and\n      dup3\n      add\n      swap2\n    tag_125:\n      pop\n      pop\n      pop\n      pop\n      pop\n      dup2\n      jump\t// out\n        /* \"contracts/Crowdfunding.sol\":3972:4249  function getCampaignStatus() public view returns (CampaignState){... */\n    tag_39:\n        /* \"contracts/Crowdfunding.sol\":4022:4035  CampaignState */\n      0x00\n        /* \"contracts/Crowdfunding.sol\":4059:4079  CampaignState.Active */\n      dup1\n        /* \"contracts/Crowdfunding.sol\":4050:4079  state == CampaignState.Active */\n      0x02\n      dup2\n      gt\n      iszero\n      tag_129\n      jumpi\n      tag_130\n      tag_131\n      jump\t// in\n    tag_130:\n    tag_129:\n        /* \"contracts/Crowdfunding.sol\":4050:4055  state */\n      0x04\n      0x15\n      swap1\n      sload\n      swap1\n      0x0100\n      exp\n      swap1\n      div\n      0xff\n      and\n        /* \"contracts/Crowdfunding.sol\":4050:4079  state == CampaignState.Active */\n      0x02\n      dup2\n      gt\n      iszero\n      tag_132\n      jumpi\n      tag_133\n      tag_131\n      jump\t// in\n    tag_133:\n    tag_132:\n      eq\n        /* \"contracts/Crowdfunding.sol\":4050:4107  state == CampaignState.Active && block.timestamp>deadline */\n      dup1\n      iszero\n      tag_134\n      jumpi\n      pop\n        /* \"contracts/Crowdfunding.sol\":4099:4107  deadline */\n      sload(0x03)\n        /* \"contracts/Crowdfunding.sol\":4083:4098  block.timestamp */\n      timestamp\n        /* \"contracts/Crowdfunding.sol\":4083:4107  block.timestamp>deadline */\n      gt\n        /* \"contracts/Crowdfunding.sol\":4050:4107  state == CampaignState.Active && block.timestamp>deadline */\n    tag_134:\n        /* \"contracts/Crowdfunding.sol\":4047:4219  if(state == CampaignState.Active && block.timestamp>deadline){... */\n      iszero\n      tag_135\n      jumpi\n        /* \"contracts/Crowdfunding.sol\":4154:4158  goal */\n      sload(0x02)\n        /* \"contracts/Crowdfunding.sol\":4130:4151  address(this).balance */\n      selfbalance\n        /* \"contracts/Crowdfunding.sol\":4130:4158  address(this).balance >=goal */\n      lt\n      iszero\n        /* \"contracts/Crowdfunding.sol\":4130:4207  address(this).balance >=goal ? CampaignState.Successful :CampaignState.Failed */\n      tag_136\n      jumpi\n        /* \"contracts/Crowdfunding.sol\":4187:4207  CampaignState.Failed */\n      0x02\n        /* \"contracts/Crowdfunding.sol\":4130:4207  address(this).balance >=goal ? CampaignState.Successful :CampaignState.Failed */\n      jump(tag_137)\n    tag_136:\n        /* \"contracts/Crowdfunding.sol\":4161:4185  CampaignState.Successful */\n      0x01\n        /* \"contracts/Crowdfunding.sol\":4130:4207  address(this).balance >=goal ? CampaignState.Successful :CampaignState.Failed */\n    tag_137:\n        /* \"contracts/Crowdfunding.sol\":4123:4207  return address(this).balance >=goal ? CampaignState.Successful :CampaignState.Failed */\n      swap1\n      pop\n      jump(tag_128)\n        /* \"contracts/Crowdfunding.sol\":4047:4219  if(state == CampaignState.Active && block.timestamp>deadline){... */\n    tag_135:\n        /* \"contracts/Crowdfunding.sol\":4236:4241  state */\n      0x04\n      0x15\n      swap1\n      sload\n      swap1\n      0x0100\n      exp\n      swap1\n      div\n      0xff\n      and\n        /* \"contracts/Crowdfunding.sol\":4229:4241  return state */\n      swap1\n      pop\n        /* \"contracts/Crowdfunding.sol\":3972:4249  function getCampaignStatus() public view returns (CampaignState){... */\n    tag_128:\n      swap1\n      jump\t// out\n        /* \"contracts/Crowdfunding.sol\":172:195  uint256 public deadline */\n    tag_44:\n      sload(0x03)\n      dup2\n      jump\t// out\n        /* \"contracts/Crowdfunding.sol\":4257:4380  function extendDeadline(uint256 _daysToAdd) public onlyOwner campaignOpen{... */\n    tag_50:\n        /* \"contracts/Crowdfunding.sol\":812:817  owner */\n      0x04\n      0x00\n      swap1\n      sload\n      swap1\n      0x0100\n      exp\n      swap1\n      div\n      0xffffffffffffffffffffffffffffffffffffffff\n      and\n        /* \"contracts/Crowdfunding.sol\":799:817  msg.sender ==owner */\n      0xffffffffffffffffffffffffffffffffffffffff\n      and\n        /* \"contracts/Crowdfunding.sol\":799:809  msg.sender */\n      caller\n        /* \"contracts/Crowdfunding.sol\":799:817  msg.sender ==owner */\n      0xffffffffffffffffffffffffffffffffffffffff\n      and\n      eq\n        /* \"contracts/Crowdfunding.sol\":790:835  require (msg.sender ==owner, \"Not the owner\") */\n      tag_139\n      jumpi\n      mload(0x40)\n      0x08c379a000000000000000000000000000000000000000000000000000000000\n      dup2\n      mstore\n      0x04\n      add\n      tag_140\n      swap1\n      tag_141\n      jump\t// in\n    tag_140:\n      mload(0x40)\n      dup1\n      swap2\n      sub\n      swap1\n      revert\n    tag_139:\n        /* \"contracts/Crowdfunding.sol\":976:996  CampaignState.Active */\n      0x00\n        /* \"contracts/Crowdfunding.sol\":969:996  state==CampaignState.Active */\n      0x02\n      dup2\n      gt\n      iszero\n      tag_143\n      jumpi\n      tag_144\n      tag_131\n      jump\t// in\n    tag_144:\n    tag_143:\n        /* \"contracts/Crowdfunding.sol\":969:974  state */\n      0x04\n      0x15\n      swap1\n      sload\n      swap1\n      0x0100\n      exp\n      swap1\n      div\n      0xff\n      and\n        /* \"contracts/Crowdfunding.sol\":969:996  state==CampaignState.Active */\n      0x02\n      dup2\n      gt\n      iszero\n      tag_145\n      jumpi\n      tag_146\n      tag_131\n      jump\t// in\n    tag_146:\n    tag_145:\n      eq\n        /* \"contracts/Crowdfunding.sol\":961:1022  require(state==CampaignState.Active,\"Campiagn is not active\") */\n      tag_147\n      jumpi\n      mload(0x40)\n      0x08c379a000000000000000000000000000000000000000000000000000000000\n      dup2\n      mstore\n      0x04\n      add\n      tag_148\n      swap1\n      tag_149\n      jump\t// in\n    tag_148:\n      mload(0x40)\n      dup1\n      swap2\n      sub\n      swap1\n      revert\n    tag_147:\n        /* \"contracts/Crowdfunding.sol\":4366:4372  1 days */\n      0x015180\n        /* \"contracts/Crowdfunding.sol\":4353:4363  _daysToAdd */\n      dup2\n        /* \"contracts/Crowdfunding.sol\":4353:4372  _daysToAdd * 1 days */\n      tag_151\n      swap2\n      swap1\n      tag_152\n      jump\t// in\n    tag_151:\n        /* \"contracts/Crowdfunding.sol\":4341:4349  deadline */\n      0x03\n      0x00\n        /* \"contracts/Crowdfunding.sol\":4341:4372  deadline += _daysToAdd * 1 days */\n      dup3\n      dup3\n      sload\n      tag_153\n      swap2\n      swap1\n      tag_154\n      jump\t// in\n    tag_153:\n      swap3\n      pop\n      pop\n      dup2\n      swap1\n      sstore\n      pop\n        /* \"contracts/Crowdfunding.sol\":4257:4380  function extendDeadline(uint256 _daysToAdd) public onlyOwner campaignOpen{... */\n      pop\n      jump\t// out\n        /* \"contracts/Crowdfunding.sol\":2795:3111  function withdraw() public onlyOwner{... */\n    tag_53:\n        /* \"contracts/Crowdfunding.sol\":812:817  owner */\n      0x04\n      0x00\n      swap1\n      sload\n      swap1\n      0x0100\n      exp\n      swap1\n      div\n      0xffffffffffffffffffffffffffffffffffffffff\n      and\n        /* \"contracts/Crowdfunding.sol\":799:817  msg.sender ==owner */\n      0xffffffffffffffffffffffffffffffffffffffff\n      and\n        /* \"contracts/Crowdfunding.sol\":799:809  msg.sender */\n      caller\n        /* \"contracts/Crowdfunding.sol\":799:817  msg.sender ==owner */\n      0xffffffffffffffffffffffffffffffffffffffff\n      and\n      eq\n        /* \"contracts/Crowdfunding.sol\":790:835  require (msg.sender ==owner, \"Not the owner\") */\n      tag_156\n      jumpi\n      mload(0x40)\n      0x08c379a000000000000000000000000000000000000000000000000000000000\n      dup2\n      mstore\n      0x04\n      add\n      tag_157\n      swap1\n      tag_141\n      jump\t// in\n    tag_157:\n      mload(0x40)\n      dup1\n      swap2\n      sub\n      swap1\n      revert\n    tag_156:\n        /* \"contracts/Crowdfunding.sol\":2840:2869  checkandUpdateCampaignState() */\n      tag_159\n        /* \"contracts/Crowdfunding.sol\":2840:2867  checkandUpdateCampaignState */\n      tag_160\n        /* \"contracts/Crowdfunding.sol\":2840:2869  checkandUpdateCampaignState() */\n      jump\t// in\n    tag_159:\n        /* \"contracts/Crowdfunding.sol\":2895:2919  CampaignState.Successful */\n      0x01\n        /* \"contracts/Crowdfunding.sol\":2886:2919  state == CampaignState.Successful */\n      0x02\n      dup2\n      gt\n      iszero\n      tag_161\n      jumpi\n      tag_162\n      tag_131\n      jump\t// in\n    tag_162:\n    tag_161:\n        /* \"contracts/Crowdfunding.sol\":2886:2891  state */\n      0x04\n      0x15\n      swap1\n      sload\n      swap1\n      0x0100\n      exp\n      swap1\n      div\n      0xff\n      and\n        /* \"contracts/Crowdfunding.sol\":2886:2919  state == CampaignState.Successful */\n      0x02\n      dup2\n      gt\n      iszero\n      tag_163\n      jumpi\n      tag_164\n      tag_131\n      jump\t// in\n    tag_164:\n    tag_163:\n      eq\n        /* \"contracts/Crowdfunding.sol\":2878:2951  require(state == CampaignState.Successful, \"Campaign no successful yet.\") */\n      tag_165\n      jumpi\n      mload(0x40)\n      0x08c379a000000000000000000000000000000000000000000000000000000000\n      dup2\n      mstore\n      0x04\n      add\n      tag_166\n      swap1\n      tag_167\n      jump\t// in\n    tag_166:\n      mload(0x40)\n      dup1\n      swap2\n      sub\n      swap1\n      revert\n    tag_165:\n        /* \"contracts/Crowdfunding.sol\":2962:2977  uint256 balance */\n      0x00\n        /* \"contracts/Crowdfunding.sol\":2979:3000  address(this).balance */\n      selfbalance\n        /* \"contracts/Crowdfunding.sol\":2962:3000  uint256 balance =address(this).balance */\n      swap1\n      pop\n        /* \"contracts/Crowdfunding.sol\":3030:3031  0 */\n      0x00\n        /* \"contracts/Crowdfunding.sol\":3020:3027  balance */\n      dup2\n        /* \"contracts/Crowdfunding.sol\":3020:3031  balance >=0 */\n      lt\n      iszero\n        /* \"contracts/Crowdfunding.sol\":3011:3058  require (balance >=0, \"No balance to withdraw\") */\n      tag_168\n      jumpi\n      mload(0x40)\n      0x08c379a000000000000000000000000000000000000000000000000000000000\n      dup2\n      mstore\n      0x04\n      add\n      tag_169\n      swap1\n      tag_170\n      jump\t// in\n    tag_169:\n      mload(0x40)\n      dup1\n      swap2\n      sub\n      swap1\n      revert\n    tag_168:\n        /* \"contracts/Crowdfunding.sol\":3079:3084  owner */\n      0x04\n      0x00\n      swap1\n      sload\n      swap1\n      0x0100\n      exp\n      swap1\n      div\n      0xffffffffffffffffffffffffffffffffffffffff\n      and\n        /* \"contracts/Crowdfunding.sol\":3071:3094  payable(owner).transfer */\n      0xffffffffffffffffffffffffffffffffffffffff\n      and\n        /* \"contracts/Crowdfunding.sol\":3071:3103  payable(owner).transfer(balance) */\n      0x08fc\n        /* \"contracts/Crowdfunding.sol\":3095:3102  balance */\n      dup3\n        /* \"contracts/Crowdfunding.sol\":3071:3103  payable(owner).transfer(balance) */\n      swap1\n      dup2\n      iszero\n      mul\n      swap1\n      mload(0x40)\n      0x00\n      mload(0x40)\n      dup1\n      dup4\n      sub\n      dup2\n      dup6\n      dup9\n      dup9\n      call\n      swap4\n      pop\n      pop\n      pop\n      pop\n      iszero\n      dup1\n      iszero\n      tag_172\n      jumpi\n      returndatasize\n      0x00\n      dup1\n      returndatacopy\n      revert(0x00, returndatasize)\n    tag_172:\n      pop\n        /* \"contracts/Crowdfunding.sol\":2831:3111  {... */\n      pop\n        /* \"contracts/Crowdfunding.sol\":2795:3111  function withdraw() public onlyOwner{... */\n      jump\t// out\n        /* \"contracts/Crowdfunding.sol\":146:165  uint256 public goal */\n    tag_56:\n      sload(0x02)\n      dup2\n      jump\t// out\n        /* \"contracts/Crowdfunding.sol\":3233:3627  function refund() public {... */\n    tag_60:\n        /* \"contracts/Crowdfunding.sol\":3269:3386  checkandUpdateCampaignState(... */\n      tag_174\n        /* \"contracts/Crowdfunding.sol\":3269:3296  checkandUpdateCampaignState */\n      tag_160\n        /* \"contracts/Crowdfunding.sol\":3269:3386  checkandUpdateCampaignState(... */\n      jump\t// in\n    tag_174:\n        /* \"contracts/Crowdfunding.sol\":3407:3421  uint256 amount */\n      0x00\n        /* \"contracts/Crowdfunding.sol\":3424:3431  backers */\n      0x06\n        /* \"contracts/Crowdfunding.sol\":3424:3443  backers[msg.sender] */\n      0x00\n        /* \"contracts/Crowdfunding.sol\":3432:3442  msg.sender */\n      caller\n        /* \"contracts/Crowdfunding.sol\":3424:3443  backers[msg.sender] */\n      0xffffffffffffffffffffffffffffffffffffffff\n      and\n      0xffffffffffffffffffffffffffffffffffffffff\n      and\n      dup2\n      mstore\n      0x20\n      add\n      swap1\n      dup2\n      mstore\n      0x20\n      add\n      0x00\n      keccak256\n        /* \"contracts/Crowdfunding.sol\":3424:3461  backers[msg.sender].totalContribution */\n      0x00\n      add\n      sload\n        /* \"contracts/Crowdfunding.sol\":3407:3461  uint256 amount = backers[msg.sender].totalContribution */\n      swap1\n      pop\n        /* \"contracts/Crowdfunding.sol\":3488:3489  0 */\n      0x00\n        /* \"contracts/Crowdfunding.sol\":3480:3486  amount */\n      dup2\n        /* \"contracts/Crowdfunding.sol\":3480:3489  amount >0 */\n      gt\n        /* \"contracts/Crowdfunding.sol\":3472:3519  require(amount >0, \"No contribution to refund\") */\n      tag_175\n      jumpi\n      mload(0x40)\n      0x08c379a000000000000000000000000000000000000000000000000000000000\n      dup2\n      mstore\n      0x04\n      add\n      tag_176\n      swap1\n      tag_177\n      jump\t// in\n    tag_176:\n      mload(0x40)\n      dup1\n      swap2\n      sub\n      swap1\n      revert\n    tag_175:\n        /* \"contracts/Crowdfunding.sol\":3571:3572  0 */\n      0x00\n        /* \"contracts/Crowdfunding.sol\":3532:3539  backers */\n      0x06\n        /* \"contracts/Crowdfunding.sol\":3532:3551  backers[msg.sender] */\n      0x00\n        /* \"contracts/Crowdfunding.sol\":3540:3550  msg.sender */\n      caller\n        /* \"contracts/Crowdfunding.sol\":3532:3551  backers[msg.sender] */\n      0xffffffffffffffffffffffffffffffffffffffff\n      and\n      0xffffffffffffffffffffffffffffffffffffffff\n      and\n      dup2\n      mstore\n      0x20\n      add\n      swap1\n      dup2\n      mstore\n      0x20\n      add\n      0x00\n      keccak256\n        /* \"contracts/Crowdfunding.sol\":3532:3569  backers[msg.sender].totalContribution */\n      0x00\n      add\n        /* \"contracts/Crowdfunding.sol\":3532:3572  backers[msg.sender].totalContribution =0 */\n      dup2\n      swap1\n      sstore\n      pop\n        /* \"contracts/Crowdfunding.sol\":3591:3601  msg.sender */\n      caller\n        /* \"contracts/Crowdfunding.sol\":3583:3611  payable(msg.sender).transfer */\n      0xffffffffffffffffffffffffffffffffffffffff\n      and\n        /* \"contracts/Crowdfunding.sol\":3583:3619  payable(msg.sender).transfer(amount) */\n      0x08fc\n        /* \"contracts/Crowdfunding.sol\":3612:3618  amount */\n      dup3\n        /* \"contracts/Crowdfunding.sol\":3583:3619  payable(msg.sender).transfer(amount) */\n      swap1\n      dup2\n      iszero\n      mul\n      swap1\n      mload(0x40)\n      0x00\n      mload(0x40)\n      dup1\n      dup4\n      sub\n      dup2\n      dup6\n      dup9\n      dup9\n      call\n      swap4\n      pop\n      pop\n      pop\n      pop\n      iszero\n      dup1\n      iszero\n      tag_179\n      jumpi\n      returndatasize\n      0x00\n      dup1\n      returndatacopy\n      revert(0x00, returndatasize)\n    tag_179:\n      pop\n        /* \"contracts/Crowdfunding.sol\":3258:3627  {... */\n      pop\n        /* \"contracts/Crowdfunding.sol\":3233:3627  function refund() public {... */\n      jump\t// out\n        /* \"contracts/Crowdfunding.sol\":229:247  bool public paused */\n    tag_63:\n      0x04\n      0x14\n      swap1\n      sload\n      swap1\n      0x0100\n      exp\n      swap1\n      div\n      0xff\n      and\n      dup2\n      jump\t// out\n        /* \"contracts/Crowdfunding.sol\":3119:3225  function getContractBalance() public view returns (uint256){... */\n    tag_68:\n        /* \"contracts/Crowdfunding.sol\":3170:3177  uint256 */\n      0x00\n        /* \"contracts/Crowdfunding.sol\":3196:3217  address(this).balance */\n      selfbalance\n        /* \"contracts/Crowdfunding.sol\":3189:3217  return address(this).balance */\n      swap1\n      pop\n        /* \"contracts/Crowdfunding.sol\":3119:3225  function getContractBalance() public view returns (uint256){... */\n      swap1\n      jump\t// out\n        /* \"contracts/Crowdfunding.sol\":114:139  string public description */\n    tag_72:\n      0x01\n      dup1\n      sload\n      tag_181\n      swap1\n      tag_118\n      jump\t// in\n    tag_181:\n      dup1\n      0x1f\n      add\n      0x20\n      dup1\n      swap2\n      div\n      mul\n      0x20\n      add\n      mload(0x40)\n      swap1\n      dup2\n      add\n      0x40\n      mstore\n      dup1\n      swap3\n      swap2\n      swap1\n      dup2\n      dup2\n      mstore\n      0x20\n      add\n      dup3\n      dup1\n      sload\n      tag_182\n      swap1\n      tag_118\n      jump\t// in\n    tag_182:\n      dup1\n      iszero\n      tag_183\n      jumpi\n      dup1\n      0x1f\n      lt\n      tag_184\n      jumpi\n      0x0100\n      dup1\n      dup4\n      sload\n      div\n      mul\n      dup4\n      mstore\n      swap2\n      0x20\n      add\n      swap2\n      jump(tag_183)\n    tag_184:\n      dup3\n      add\n      swap2\n      swap1\n      0x00\n      mstore\n      keccak256(0x00, 0x20)\n      swap1\n    tag_185:\n      dup2\n      sload\n      dup2\n      mstore\n      swap1\n      0x01\n      add\n      swap1\n      0x20\n      add\n      dup1\n      dup4\n      gt\n      tag_185\n      jumpi\n      dup3\n      swap1\n      sub\n      0x1f\n      and\n      dup3\n      add\n      swap2\n    tag_183:\n      pop\n      pop\n      pop\n      pop\n      pop\n      dup2\n      jump\t// out\n        /* \"contracts/Crowdfunding.sol\":2595:2787  function removeTier(uint256 _index) public onlyOwner{... */\n    tag_77:\n        /* \"contracts/Crowdfunding.sol\":812:817  owner */\n      0x04\n      0x00\n      swap1\n      sload\n      swap1\n      0x0100\n      exp\n      swap1\n      div\n      0xffffffffffffffffffffffffffffffffffffffff\n      and\n        /* \"contracts/Crowdfunding.sol\":799:817  msg.sender ==owner */\n      0xffffffffffffffffffffffffffffffffffffffff\n      and\n        /* \"contracts/Crowdfunding.sol\":799:809  msg.sender */\n      caller\n        /* \"contracts/Crowdfunding.sol\":799:817  msg.sender ==owner */\n      0xffffffffffffffffffffffffffffffffffffffff\n      and\n      eq\n        /* \"contracts/Crowdfunding.sol\":790:835  require (msg.sender ==owner, \"Not the owner\") */\n      tag_187\n      jumpi\n      mload(0x40)\n      0x08c379a000000000000000000000000000000000000000000000000000000000\n      dup2\n      mstore\n      0x04\n      add\n      tag_188\n      swap1\n      tag_141\n      jump\t// in\n    tag_188:\n      mload(0x40)\n      dup1\n      swap2\n      sub\n      swap1\n      revert\n    tag_187:\n        /* \"contracts/Crowdfunding.sol\":2674:2679  tiers */\n      0x05\n        /* \"contracts/Crowdfunding.sol\":2674:2686  tiers.length */\n      dup1\n      sload\n      swap1\n      pop\n        /* \"contracts/Crowdfunding.sol\":2666:2672  _index */\n      dup2\n        /* \"contracts/Crowdfunding.sol\":2666:2686  _index <tiers.length */\n      lt\n        /* \"contracts/Crowdfunding.sol\":2658:2710  require(_index <tiers.length, \"Tier does not exist\") */\n      tag_190\n      jumpi\n      mload(0x40)\n      0x08c379a000000000000000000000000000000000000000000000000000000000\n      dup2\n      mstore\n      0x04\n      add\n      tag_191\n      swap1\n      tag_192\n      jump\t// in\n    tag_191:\n      mload(0x40)\n      dup1\n      swap2\n      sub\n      swap1\n      revert\n    tag_190:\n        /* \"contracts/Crowdfunding.sol\":2735:2740  tiers */\n      0x05\n        /* \"contracts/Crowdfunding.sol\":2755:2756  1 */\n      0x01\n        /* \"contracts/Crowdfunding.sol\":2741:2746  tiers */\n      0x05\n        /* \"contracts/Crowdfunding.sol\":2741:2753  tiers.length */\n      dup1\n      sload\n      swap1\n      pop\n        /* \"contracts/Crowdfunding.sol\":2741:2756  tiers.length -1 */\n      tag_193\n      swap2\n      swap1\n      tag_194\n      jump\t// in\n    tag_193:\n        /* \"contracts/Crowdfunding.sol\":2735:2757  tiers[tiers.length -1] */\n      dup2\n      sload\n      dup2\n      lt\n      tag_195\n      jumpi\n      tag_196\n      tag_197\n      jump\t// in\n    tag_196:\n    tag_195:\n      swap1\n      0x00\n      mstore\n      keccak256(0x00, 0x20)\n      swap1\n      0x03\n      mul\n      add\n        /* \"contracts/Crowdfunding.sol\":2721:2726  tiers */\n      0x05\n        /* \"contracts/Crowdfunding.sol\":2727:2733  _index */\n      dup3\n        /* \"contracts/Crowdfunding.sol\":2721:2734  tiers[_index] */\n      dup2\n      sload\n      dup2\n      lt\n      tag_199\n      jumpi\n      tag_200\n      tag_197\n      jump\t// in\n    tag_200:\n    tag_199:\n      swap1\n      0x00\n      mstore\n      keccak256(0x00, 0x20)\n      swap1\n      0x03\n      mul\n      add\n        /* \"contracts/Crowdfunding.sol\":2721:2757  tiers[_index]=tiers[tiers.length -1] */\n      0x00\n      dup3\n      add\n      dup2\n      0x00\n      add\n      swap1\n      dup2\n      tag_202\n      swap2\n      swap1\n      tag_203\n      jump\t// in\n    tag_202:\n      pop\n      0x01\n      dup3\n      add\n      sload\n      dup2\n      0x01\n      add\n      sstore\n      0x02\n      dup3\n      add\n      sload\n      dup2\n      0x02\n      add\n      sstore\n      swap1\n      pop\n      pop\n        /* \"contracts/Crowdfunding.sol\":2768:2773  tiers */\n      0x05\n        /* \"contracts/Crowdfunding.sol\":2768:2779  tiers.pop() */\n      dup1\n      sload\n      dup1\n      tag_204\n      jumpi\n      tag_205\n      tag_206\n      jump\t// in\n    tag_205:\n    tag_204:\n      0x01\n      swap1\n      sub\n      dup2\n      dup2\n      swap1\n      0x00\n      mstore\n      keccak256(0x00, 0x20)\n      swap1\n      0x03\n      mul\n      add\n      0x00\n      dup1\n      dup3\n      add\n      0x00\n      tag_208\n      swap2\n      swap1\n      tag_209\n      jump\t// in\n    tag_208:\n      0x01\n      dup3\n      add\n      0x00\n      swap1\n      sstore\n      0x02\n      dup3\n      add\n      0x00\n      swap1\n      sstore\n      pop\n      pop\n      swap1\n      sstore\n        /* \"contracts/Crowdfunding.sol\":2595:2787  function removeTier(uint256 _index) public onlyOwner{... */\n      pop\n      jump\t// out\n        /* \"contracts/Crowdfunding.sol\":3635:3787  function hasFundedTier(address _backer, uint256 _tierIndex) public view returns (bool){... */\n    tag_82:\n        /* \"contracts/Crowdfunding.sol\":3716:3720  bool */\n      0x00\n        /* \"contracts/Crowdfunding.sol\":3739:3746  backers */\n      0x06\n        /* \"contracts/Crowdfunding.sol\":3739:3755  backers[_backer] */\n      0x00\n        /* \"contracts/Crowdfunding.sol\":3747:3754  _backer */\n      dup5\n        /* \"contracts/Crowdfunding.sol\":3739:3755  backers[_backer] */\n      0xffffffffffffffffffffffffffffffffffffffff\n      and\n      0xffffffffffffffffffffffffffffffffffffffff\n      and\n      dup2\n      mstore\n      0x20\n      add\n      swap1\n      dup2\n      mstore\n      0x20\n      add\n      0x00\n      keccak256\n        /* \"contracts/Crowdfunding.sol\":3739:3767  backers[_backer].fundedTiers */\n      0x01\n      add\n        /* \"contracts/Crowdfunding.sol\":3739:3779  backers[_backer].fundedTiers[_tierIndex] */\n      0x00\n        /* \"contracts/Crowdfunding.sol\":3768:3778  _tierIndex */\n      dup4\n        /* \"contracts/Crowdfunding.sol\":3739:3779  backers[_backer].fundedTiers[_tierIndex] */\n      dup2\n      mstore\n      0x20\n      add\n      swap1\n      dup2\n      mstore\n      0x20\n      add\n      0x00\n      keccak256\n      0x00\n      swap1\n      sload\n      swap1\n      0x0100\n      exp\n      swap1\n      div\n      0xff\n      and\n        /* \"contracts/Crowdfunding.sol\":3732:3779  return backers[_backer].fundedTiers[_tierIndex] */\n      swap1\n      pop\n        /* \"contracts/Crowdfunding.sol\":3635:3787  function hasFundedTier(address _backer, uint256 _tierIndex) public view returns (bool){... */\n      swap3\n      swap2\n      pop\n      pop\n      jump\t// out\n        /* \"contracts/Crowdfunding.sol\":202:222  address public owner */\n    tag_86:\n      0x04\n      0x00\n      swap1\n      sload\n      swap1\n      0x0100\n      exp\n      swap1\n      div\n      0xffffffffffffffffffffffffffffffffffffffff\n      and\n      dup2\n      jump\t// out\n        /* \"contracts/Crowdfunding.sol\":2372:2587  function addTier(... */\n    tag_93:\n        /* \"contracts/Crowdfunding.sol\":812:817  owner */\n      0x04\n      0x00\n      swap1\n      sload\n      swap1\n      0x0100\n      exp\n      swap1\n      div\n      0xffffffffffffffffffffffffffffffffffffffff\n      and\n        /* \"contracts/Crowdfunding.sol\":799:817  msg.sender ==owner */\n      0xffffffffffffffffffffffffffffffffffffffff\n      and\n        /* \"contracts/Crowdfunding.sol\":799:809  msg.sender */\n      caller\n        /* \"contracts/Crowdfunding.sol\":799:817  msg.sender ==owner */\n      0xffffffffffffffffffffffffffffffffffffffff\n      and\n      eq\n        /* \"contracts/Crowdfunding.sol\":790:835  require (msg.sender ==owner, \"Not the owner\") */\n      tag_212\n      jumpi\n      mload(0x40)\n      0x08c379a000000000000000000000000000000000000000000000000000000000\n      dup2\n      mstore\n      0x04\n      add\n      tag_213\n      swap1\n      tag_141\n      jump\t// in\n    tag_213:\n      mload(0x40)\n      dup1\n      swap2\n      sub\n      swap1\n      revert\n    tag_212:\n        /* \"contracts/Crowdfunding.sol\":2499:2500  0 */\n      0x00\n        /* \"contracts/Crowdfunding.sol\":2490:2497  _amount */\n      dup2\n        /* \"contracts/Crowdfunding.sol\":2490:2500  _amount >0 */\n      gt\n        /* \"contracts/Crowdfunding.sol\":2482:2535  require(_amount >0, \"Amount must be greater than O.\") */\n      tag_215\n      jumpi\n      mload(0x40)\n      0x08c379a000000000000000000000000000000000000000000000000000000000\n      dup2\n      mstore\n      0x04\n      add\n      tag_216\n      swap1\n      tag_217\n      jump\t// in\n    tag_216:\n      mload(0x40)\n      dup1\n      swap2\n      sub\n      swap1\n      revert\n    tag_215:\n        /* \"contracts/Crowdfunding.sol\":2546:2551  tiers */\n      0x05\n        /* \"contracts/Crowdfunding.sol\":2557:2578  Tier(_name,_amount,0) */\n      mload(0x40)\n      dup1\n      0x60\n      add\n      0x40\n      mstore\n      dup1\n        /* \"contracts/Crowdfunding.sol\":2562:2567  _name */\n      dup5\n        /* \"contracts/Crowdfunding.sol\":2557:2578  Tier(_name,_amount,0) */\n      dup2\n      mstore\n      0x20\n      add\n        /* \"contracts/Crowdfunding.sol\":2568:2575  _amount */\n      dup4\n        /* \"contracts/Crowdfunding.sol\":2557:2578  Tier(_name,_amount,0) */\n      dup2\n      mstore\n      0x20\n      add\n        /* \"contracts/Crowdfunding.sol\":2576:2577  0 */\n      0x00\n        /* \"contracts/Crowdfunding.sol\":2557:2578  Tier(_name,_amount,0) */\n      dup2\n      mstore\n      pop\n        /* \"contracts/Crowdfunding.sol\":2546:2579  tiers.push(Tier(_name,_amount,0)) */\n      swap1\n      dup1\n      0x01\n      dup2\n      sload\n      add\n      dup1\n      dup3\n      sstore\n      dup1\n      swap2\n      pop\n      pop\n      0x01\n      swap1\n      sub\n      swap1\n      0x00\n      mstore\n      keccak256(0x00, 0x20)\n      swap1\n      0x03\n      mul\n      add\n      0x00\n      swap1\n      swap2\n      swap1\n      swap2\n      swap1\n      swap2\n      pop\n      0x00\n      dup3\n      add\n      mload\n      dup2\n      0x00\n      add\n      swap1\n      dup2\n      tag_219\n      swap2\n      swap1\n      tag_220\n      jump\t// in\n    tag_219:\n      pop\n      0x20\n      dup3\n      add\n      mload\n      dup2\n      0x01\n      add\n      sstore\n      0x40\n      dup3\n      add\n      mload\n      dup2\n      0x02\n      add\n      sstore\n      pop\n      pop\n        /* \"contracts/Crowdfunding.sol\":2372:2587  function addTier(... */\n      pop\n      pop\n      jump\t// out\n        /* \"contracts/Crowdfunding.sol\":620:659  mapping(address =>Backer)public backers */\n    tag_98:\n      mstore(0x20, 0x06)\n      dup1\n      0x00\n      mstore\n      keccak256(0x00, 0x40)\n      0x00\n      swap2\n      pop\n      swap1\n      pop\n      dup1\n      0x00\n      add\n      sload\n      swap1\n      pop\n      dup2\n      jump\t// out\n        /* \"contracts/Crowdfunding.sol\":314:340  CampaignState public state */\n    tag_102:\n      0x04\n      0x15\n      swap1\n      sload\n      swap1\n      0x0100\n      exp\n      swap1\n      div\n      0xff\n      and\n      dup2\n      jump\t// out\n        /* \"contracts/Crowdfunding.sol\":3889:3964  function togglePause( ) public onlyOwner {... */\n    tag_106:\n        /* \"contracts/Crowdfunding.sol\":812:817  owner */\n      0x04\n      0x00\n      swap1\n      sload\n      swap1\n      0x0100\n      exp\n      swap1\n      div\n      0xffffffffffffffffffffffffffffffffffffffff\n      and\n        /* \"contracts/Crowdfunding.sol\":799:817  msg.sender ==owner */\n      0xffffffffffffffffffffffffffffffffffffffff\n      and\n        /* \"contracts/Crowdfunding.sol\":799:809  msg.sender */\n      caller\n        /* \"contracts/Crowdfunding.sol\":799:817  msg.sender ==owner */\n      0xffffffffffffffffffffffffffffffffffffffff\n      and\n      eq\n        /* \"contracts/Crowdfunding.sol\":790:835  require (msg.sender ==owner, \"Not the owner\") */\n      tag_222\n      jumpi\n      mload(0x40)\n      0x08c379a000000000000000000000000000000000000000000000000000000000\n      dup2\n      mstore\n      0x04\n      add\n      tag_223\n      swap1\n      tag_141\n      jump\t// in\n    tag_223:\n      mload(0x40)\n      dup1\n      swap2\n      sub\n      swap1\n      revert\n    tag_222:\n        /* \"contracts/Crowdfunding.sol\":3950:3956  paused */\n      0x04\n      0x14\n      swap1\n      sload\n      swap1\n      0x0100\n      exp\n      swap1\n      div\n      0xff\n      and\n        /* \"contracts/Crowdfunding.sol\":3949:3956  !paused */\n      iszero\n        /* \"contracts/Crowdfunding.sol\":3941:3947  paused */\n      0x04\n      0x14\n        /* \"contracts/Crowdfunding.sol\":3941:3956  paused =!paused */\n      0x0100\n      exp\n      dup2\n      sload\n      dup2\n      0xff\n      mul\n      not\n      and\n      swap1\n      dup4\n      iszero\n      iszero\n      mul\n      or\n      swap1\n      sstore\n      pop\n        /* \"contracts/Crowdfunding.sol\":3889:3964  function togglePause( ) public onlyOwner {... */\n      jump\t// out\n        /* \"contracts/Crowdfunding.sol\":1938:2364  function fund(uint256 _tierIndex) public payable  campaignOpen notPaused {... */\n    tag_109:\n        /* \"contracts/Crowdfunding.sol\":976:996  CampaignState.Active */\n      0x00\n        /* \"contracts/Crowdfunding.sol\":969:996  state==CampaignState.Active */\n      0x02\n      dup2\n      gt\n      iszero\n      tag_226\n      jumpi\n      tag_227\n      tag_131\n      jump\t// in\n    tag_227:\n    tag_226:\n        /* \"contracts/Crowdfunding.sol\":969:974  state */\n      0x04\n      0x15\n      swap1\n      sload\n      swap1\n      0x0100\n      exp\n      swap1\n      div\n      0xff\n      and\n        /* \"contracts/Crowdfunding.sol\":969:996  state==CampaignState.Active */\n      0x02\n      dup2\n      gt\n      iszero\n      tag_228\n      jumpi\n      tag_229\n      tag_131\n      jump\t// in\n    tag_229:\n    tag_228:\n      eq\n        /* \"contracts/Crowdfunding.sol\":961:1022  require(state==CampaignState.Active,\"Campiagn is not active\") */\n      tag_230\n      jumpi\n      mload(0x40)\n      0x08c379a000000000000000000000000000000000000000000000000000000000\n      dup2\n      mstore\n      0x04\n      add\n      tag_231\n      swap1\n      tag_149\n      jump\t// in\n    tag_231:\n      mload(0x40)\n      dup1\n      swap2\n      sub\n      swap1\n      revert\n    tag_230:\n        /* \"contracts/Crowdfunding.sol\":1090:1096  paused */\n      0x04\n      0x14\n      swap1\n      sload\n      swap1\n      0x0100\n      exp\n      swap1\n      div\n      0xff\n      and\n        /* \"contracts/Crowdfunding.sol\":1089:1096  !paused */\n      iszero\n        /* \"contracts/Crowdfunding.sol\":1081:1119  require(!paused,\"Contract is paused.\") */\n      tag_233\n      jumpi\n      mload(0x40)\n      0x08c379a000000000000000000000000000000000000000000000000000000000\n      dup2\n      mstore\n      0x04\n      add\n      tag_234\n      swap1\n      tag_235\n      jump\t// in\n    tag_234:\n      mload(0x40)\n      dup1\n      swap2\n      sub\n      swap1\n      revert\n    tag_233:\n        /* \"contracts/Crowdfunding.sol\":2051:2056  tiers */\n      0x05\n        /* \"contracts/Crowdfunding.sol\":2051:2063  tiers.length */\n      dup1\n      sload\n      swap1\n      pop\n        /* \"contracts/Crowdfunding.sol\":2039:2049  _tierIndex */\n      dup2\n        /* \"contracts/Crowdfunding.sol\":2039:2063  _tierIndex <tiers.length */\n      lt\n        /* \"contracts/Crowdfunding.sol\":2031:2081  require(_tierIndex <tiers.length, \"Invalid Tier.\") */\n      tag_237\n      jumpi\n      mload(0x40)\n      0x08c379a000000000000000000000000000000000000000000000000000000000\n      dup2\n      mstore\n      0x04\n      add\n      tag_238\n      swap1\n      tag_239\n      jump\t// in\n    tag_238:\n      mload(0x40)\n      dup1\n      swap2\n      sub\n      swap1\n      revert\n    tag_237:\n        /* \"contracts/Crowdfunding.sol\":2112:2117  tiers */\n      0x05\n        /* \"contracts/Crowdfunding.sol\":2118:2128  _tierIndex */\n      dup2\n        /* \"contracts/Crowdfunding.sol\":2112:2129  tiers[_tierIndex] */\n      dup2\n      sload\n      dup2\n      lt\n      tag_240\n      jumpi\n      tag_241\n      tag_197\n      jump\t// in\n    tag_241:\n    tag_240:\n      swap1\n      0x00\n      mstore\n      keccak256(0x00, 0x20)\n      swap1\n      0x03\n      mul\n      add\n        /* \"contracts/Crowdfunding.sol\":2112:2136  tiers[_tierIndex].amount */\n      0x01\n      add\n      sload\n        /* \"contracts/Crowdfunding.sol\":2100:2109  msg.value */\n      callvalue\n        /* \"contracts/Crowdfunding.sol\":2100:2136  msg.value ==tiers[_tierIndex].amount */\n      eq\n        /* \"contracts/Crowdfunding.sol\":2092:2156  require(msg.value ==tiers[_tierIndex].amount,\"Incorrect Amount\") */\n      tag_243\n      jumpi\n      mload(0x40)\n      0x08c379a000000000000000000000000000000000000000000000000000000000\n      dup2\n      mstore\n      0x04\n      add\n      tag_244\n      swap1\n      tag_245\n      jump\t// in\n    tag_244:\n      mload(0x40)\n      dup1\n      swap2\n      sub\n      swap1\n      revert\n    tag_243:\n        /* \"contracts/Crowdfunding.sol\":2169:2174  tiers */\n      0x05\n        /* \"contracts/Crowdfunding.sol\":2175:2185  _tierIndex */\n      dup2\n        /* \"contracts/Crowdfunding.sol\":2169:2186  tiers[_tierIndex] */\n      dup2\n      sload\n      dup2\n      lt\n      tag_246\n      jumpi\n      tag_247\n      tag_197\n      jump\t// in\n    tag_247:\n    tag_246:\n      swap1\n      0x00\n      mstore\n      keccak256(0x00, 0x20)\n      swap1\n      0x03\n      mul\n      add\n        /* \"contracts/Crowdfunding.sol\":2169:2194  tiers[_tierIndex].backers */\n      0x02\n      add\n      0x00\n        /* \"contracts/Crowdfunding.sol\":2169:2196  tiers[_tierIndex].backers++ */\n      dup2\n      sload\n      dup1\n      swap3\n      swap2\n      swap1\n      tag_249\n      swap1\n      tag_250\n      jump\t// in\n    tag_249:\n      swap2\n      swap1\n      pop\n      sstore\n      pop\n        /* \"contracts/Crowdfunding.sol\":2247:2256  msg.value */\n      callvalue\n        /* \"contracts/Crowdfunding.sol\":2207:2214  backers */\n      0x06\n        /* \"contracts/Crowdfunding.sol\":2207:2226  backers[msg.sender] */\n      0x00\n        /* \"contracts/Crowdfunding.sol\":2215:2225  msg.sender */\n      caller\n        /* \"contracts/Crowdfunding.sol\":2207:2226  backers[msg.sender] */\n      0xffffffffffffffffffffffffffffffffffffffff\n      and\n      0xffffffffffffffffffffffffffffffffffffffff\n      and\n      dup2\n      mstore\n      0x20\n      add\n      swap1\n      dup2\n      mstore\n      0x20\n      add\n      0x00\n      keccak256\n        /* \"contracts/Crowdfunding.sol\":2207:2244  backers[msg.sender].totalContribution */\n      0x00\n      add\n      0x00\n        /* \"contracts/Crowdfunding.sol\":2207:2256  backers[msg.sender].totalContribution +=msg.value */\n      dup3\n      dup3\n      sload\n      tag_251\n      swap2\n      swap1\n      tag_154\n      jump\t// in\n    tag_251:\n      swap3\n      pop\n      pop\n      dup2\n      swap1\n      sstore\n      pop\n        /* \"contracts/Crowdfunding.sol\":2312:2316  true */\n      0x01\n        /* \"contracts/Crowdfunding.sol\":2267:2274  backers */\n      0x06\n        /* \"contracts/Crowdfunding.sol\":2267:2286  backers[msg.sender] */\n      0x00\n        /* \"contracts/Crowdfunding.sol\":2275:2285  msg.sender */\n      caller\n        /* \"contracts/Crowdfunding.sol\":2267:2286  backers[msg.sender] */\n      0xffffffffffffffffffffffffffffffffffffffff\n      and\n      0xffffffffffffffffffffffffffffffffffffffff\n      and\n      dup2\n      mstore\n      0x20\n      add\n      swap1\n      dup2\n      mstore\n      0x20\n      add\n      0x00\n      keccak256\n        /* \"contracts/Crowdfunding.sol\":2267:2298  backers[msg.sender].fundedTiers */\n      0x01\n      add\n        /* \"contracts/Crowdfunding.sol\":2267:2310  backers[msg.sender].fundedTiers[_tierIndex] */\n      0x00\n        /* \"contracts/Crowdfunding.sol\":2299:2309  _tierIndex */\n      dup4\n        /* \"contracts/Crowdfunding.sol\":2267:2310  backers[msg.sender].fundedTiers[_tierIndex] */\n      dup2\n      mstore\n      0x20\n      add\n      swap1\n      dup2\n      mstore\n      0x20\n      add\n      0x00\n      keccak256\n      0x00\n        /* \"contracts/Crowdfunding.sol\":2267:2316  backers[msg.sender].fundedTiers[_tierIndex] =true */\n      0x0100\n      exp\n      dup2\n      sload\n      dup2\n      0xff\n      mul\n      not\n      and\n      swap1\n      dup4\n      iszero\n      iszero\n      mul\n      or\n      swap1\n      sstore\n      pop\n        /* \"contracts/Crowdfunding.sol\":2327:2356  checkandUpdateCampaignState() */\n      tag_252\n        /* \"contracts/Crowdfunding.sol\":2327:2354  checkandUpdateCampaignState */\n      tag_160\n        /* \"contracts/Crowdfunding.sol\":2327:2356  checkandUpdateCampaignState() */\n      jump\t// in\n    tag_252:\n        /* \"contracts/Crowdfunding.sol\":1938:2364  function fund(uint256 _tierIndex) public payable  campaignOpen notPaused {... */\n      pop\n      jump\t// out\n        /* \"contracts/Crowdfunding.sol\":3795:3881  function getTiers() public view returns (Tier[] memory){... */\n    tag_112:\n        /* \"contracts/Crowdfunding.sol\":3836:3849  Tier[] memory */\n      0x60\n        /* \"contracts/Crowdfunding.sol\":3868:3873  tiers */\n      0x05\n        /* \"contracts/Crowdfunding.sol\":3861:3873  return tiers */\n      dup1\n      sload\n      dup1\n      0x20\n      mul\n      0x20\n      add\n      mload(0x40)\n      swap1\n      dup2\n      add\n      0x40\n      mstore\n      dup1\n      swap3\n      swap2\n      swap1\n      dup2\n      dup2\n      mstore\n      0x20\n      add\n      0x00\n      swap1\n    tag_254:\n      dup3\n      dup3\n      lt\n      iszero\n      tag_255\n      jumpi\n      dup4\n      dup3\n      swap1\n      0x00\n      mstore\n      keccak256(0x00, 0x20)\n      swap1\n      0x03\n      mul\n      add\n      mload(0x40)\n      dup1\n      0x60\n      add\n      0x40\n      mstore\n      swap1\n      dup2\n      0x00\n      dup3\n      add\n      dup1\n      sload\n      tag_257\n      swap1\n      tag_118\n      jump\t// in\n    tag_257:\n      dup1\n      0x1f\n      add\n      0x20\n      dup1\n      swap2\n      div\n      mul\n      0x20\n      add\n      mload(0x40)\n      swap1\n      dup2\n      add\n      0x40\n      mstore\n      dup1\n      swap3\n      swap2\n      swap1\n      dup2\n      dup2\n      mstore\n      0x20\n      add\n      dup3\n      dup1\n      sload\n      tag_258\n      swap1\n      tag_118\n      jump\t// in\n    tag_258:\n      dup1\n      iszero\n      tag_259\n      jumpi\n      dup1\n      0x1f\n      lt\n      tag_260\n      jumpi\n      0x0100\n      dup1\n      dup4\n      sload\n      div\n      mul\n      dup4\n      mstore\n      swap2\n      0x20\n      add\n      swap2\n      jump(tag_259)\n    tag_260:\n      dup3\n      add\n      swap2\n      swap1\n      0x00\n      mstore\n      keccak256(0x00, 0x20)\n      swap1\n    tag_261:\n      dup2\n      sload\n      dup2\n      mstore\n      swap1\n      0x01\n      add\n      swap1\n      0x20\n      add\n      dup1\n      dup4\n      gt\n      tag_261\n      jumpi\n      dup3\n      swap1\n      sub\n      0x1f\n      and\n      dup3\n      add\n      swap2\n    tag_259:\n      pop\n      pop\n      pop\n      pop\n      pop\n      dup2\n      mstore\n      0x20\n      add\n      0x01\n      dup3\n      add\n      sload\n      dup2\n      mstore\n      0x20\n      add\n      0x02\n      dup3\n      add\n      sload\n      dup2\n      mstore\n      pop\n      pop\n      dup2\n      mstore\n      0x20\n      add\n      swap1\n      0x01\n      add\n      swap1\n      jump(tag_254)\n    tag_255:\n      pop\n      pop\n      pop\n      pop\n      swap1\n      pop\n        /* \"contracts/Crowdfunding.sol\":3795:3881  function getTiers() public view returns (Tier[] memory){... */\n      swap1\n      jump\t// out\n        /* \"contracts/Crowdfunding.sol\":1524:1930  function checkandUpdateCampaignState() internal {... */\n    tag_160:\n        /* \"contracts/Crowdfunding.sol\":1594:1614  CampaignState.Active */\n      0x00\n        /* \"contracts/Crowdfunding.sol\":1586:1614  state ==CampaignState.Active */\n      0x02\n      dup2\n      gt\n      iszero\n      tag_263\n      jumpi\n      tag_264\n      tag_131\n      jump\t// in\n    tag_264:\n    tag_263:\n        /* \"contracts/Crowdfunding.sol\":1586:1591  state */\n      0x04\n      0x15\n      swap1\n      sload\n      swap1\n      0x0100\n      exp\n      swap1\n      div\n      0xff\n      and\n        /* \"contracts/Crowdfunding.sol\":1586:1614  state ==CampaignState.Active */\n      0x02\n      dup2\n      gt\n      iszero\n      tag_265\n      jumpi\n      tag_266\n      tag_131\n      jump\t// in\n    tag_266:\n    tag_265:\n      sub\n        /* \"contracts/Crowdfunding.sol\":1583:1923  if(state ==CampaignState.Active){... */\n      tag_267\n      jumpi\n        /* \"contracts/Crowdfunding.sol\":1652:1660  deadline */\n      sload(0x03)\n        /* \"contracts/Crowdfunding.sol\":1633:1648  block.timestamp */\n      timestamp\n        /* \"contracts/Crowdfunding.sol\":1633:1660  block.timestamp >= deadline */\n      lt\n        /* \"contracts/Crowdfunding.sol\":1630:1912  if(block.timestamp >= deadline){... */\n      tag_268\n      jumpi\n        /* \"contracts/Crowdfunding.sol\":1712:1716  goal */\n      sload(0x02)\n        /* \"contracts/Crowdfunding.sol\":1688:1709  address(this).balance */\n      selfbalance\n        /* \"contracts/Crowdfunding.sol\":1688:1716  address(this).balance >=goal */\n      lt\n      iszero\n        /* \"contracts/Crowdfunding.sol\":1688:1766  address(this).balance >=goal ? CampaignState.Successful : CampaignState.Failed */\n      tag_269\n      jumpi\n        /* \"contracts/Crowdfunding.sol\":1746:1766  CampaignState.Failed */\n      0x02\n        /* \"contracts/Crowdfunding.sol\":1688:1766  address(this).balance >=goal ? CampaignState.Successful : CampaignState.Failed */\n      jump(tag_270)\n    tag_269:\n        /* \"contracts/Crowdfunding.sol\":1719:1743  CampaignState.Successful */\n      0x01\n        /* \"contracts/Crowdfunding.sol\":1688:1766  address(this).balance >=goal ? CampaignState.Successful : CampaignState.Failed */\n    tag_270:\n        /* \"contracts/Crowdfunding.sol\":1680:1685  state */\n      0x04\n      0x15\n        /* \"contracts/Crowdfunding.sol\":1680:1766  state = address(this).balance >=goal ? CampaignState.Successful : CampaignState.Failed */\n      0x0100\n      exp\n      dup2\n      sload\n      dup2\n      0xff\n      mul\n      not\n      and\n      swap1\n      dup4\n      0x02\n      dup2\n      gt\n      iszero\n      tag_271\n      jumpi\n      tag_272\n      tag_131\n      jump\t// in\n    tag_272:\n    tag_271:\n      mul\n      or\n      swap1\n      sstore\n      pop\n        /* \"contracts/Crowdfunding.sol\":1630:1912  if(block.timestamp >= deadline){... */\n      jump(tag_273)\n    tag_268:\n        /* \"contracts/Crowdfunding.sol\":1842:1846  goal */\n      sload(0x02)\n        /* \"contracts/Crowdfunding.sol\":1818:1839  address(this).balance */\n      selfbalance\n        /* \"contracts/Crowdfunding.sol\":1818:1846  address(this).balance >=goal */\n      lt\n      iszero\n        /* \"contracts/Crowdfunding.sol\":1818:1896  address(this).balance >=goal ? CampaignState.Successful : CampaignState.Active */\n      tag_274\n      jumpi\n        /* \"contracts/Crowdfunding.sol\":1876:1896  CampaignState.Active */\n      0x00\n        /* \"contracts/Crowdfunding.sol\":1818:1896  address(this).balance >=goal ? CampaignState.Successful : CampaignState.Active */\n      jump(tag_275)\n    tag_274:\n        /* \"contracts/Crowdfunding.sol\":1849:1873  CampaignState.Successful */\n      0x01\n        /* \"contracts/Crowdfunding.sol\":1818:1896  address(this).balance >=goal ? CampaignState.Successful : CampaignState.Active */\n    tag_275:\n        /* \"contracts/Crowdfunding.sol\":1810:1815  state */\n      0x04\n      0x15\n        /* \"contracts/Crowdfunding.sol\":1810:1896  state = address(this).balance >=goal ? CampaignState.Successful : CampaignState.Active */\n      0x0100\n      exp\n      dup2\n      sload\n      dup2\n      0xff\n      mul\n      not\n      and\n      swap1\n      dup4\n      0x02\n      dup2\n      gt\n      iszero\n      tag_276\n      jumpi\n      tag_277\n      tag_131\n      jump\t// in\n    tag_277:\n    tag_276:\n      mul\n      or\n      swap1\n      sstore\n      pop\n        /* \"contracts/Crowdfunding.sol\":1630:1912  if(block.timestamp >= deadline){... */\n    tag_273:\n        /* \"contracts/Crowdfunding.sol\":1583:1923  if(state ==CampaignState.Active){... */\n    tag_267:\n        /* \"contracts/Crowdfunding.sol\":1524:1930  function checkandUpdateCampaignState() internal {... */\n      jump\t// out\n    tag_209:\n      pop\n      dup1\n      sload\n      tag_278\n      swap1\n      tag_118\n      jump\t// in\n    tag_278:\n      0x00\n      dup3\n      sstore\n      dup1\n      0x1f\n      lt\n      tag_280\n      jumpi\n      pop\n      jump(tag_279)\n    tag_280:\n      0x1f\n      add\n      0x20\n      swap1\n      div\n      swap1\n      0x00\n      mstore\n      keccak256(0x00, 0x20)\n      swap1\n      dup2\n      add\n      swap1\n      tag_281\n      swap2\n      swap1\n      tag_282\n      jump\t// in\n    tag_281:\n    tag_279:\n      pop\n      jump\t// out\n    tag_282:\n    tag_283:\n      dup1\n      dup3\n      gt\n      iszero\n      tag_284\n      jumpi\n      0x00\n      dup2\n      0x00\n      swap1\n      sstore\n      pop\n      0x01\n      add\n      jump(tag_283)\n    tag_284:\n      pop\n      swap1\n      jump\t// out\n        /* \"#utility.yul\":7:82   */\n    tag_285:\n        /* \"#utility.yul\":40:46   */\n      0x00\n        /* \"#utility.yul\":73:75   */\n      0x40\n        /* \"#utility.yul\":67:76   */\n      mload\n        /* \"#utility.yul\":57:76   */\n      swap1\n      pop\n        /* \"#utility.yul\":7:82   */\n      swap1\n      jump\t// out\n        /* \"#utility.yul\":88:205   */\n    tag_286:\n        /* \"#utility.yul\":197:198   */\n      0x00\n        /* \"#utility.yul\":194:195   */\n      dup1\n        /* \"#utility.yul\":187:199   */\n      revert\n        /* \"#utility.yul\":211:328   */\n    tag_287:\n        /* \"#utility.yul\":320:321   */\n      0x00\n        /* \"#utility.yul\":317:318   */\n      dup1\n        /* \"#utility.yul\":310:322   */\n      revert\n        /* \"#utility.yul\":334:411   */\n    tag_288:\n        /* \"#utility.yul\":371:378   */\n      0x00\n        /* \"#utility.yul\":400:405   */\n      dup2\n        /* \"#utility.yul\":389:405   */\n      swap1\n      pop\n        /* \"#utility.yul\":334:411   */\n      swap2\n      swap1\n      pop\n      jump\t// out\n        /* \"#utility.yul\":417:539   */\n    tag_289:\n        /* \"#utility.yul\":490:514   */\n      tag_371\n        /* \"#utility.yul\":508:513   */\n      dup2\n        /* \"#utility.yul\":490:514   */\n      tag_288\n      jump\t// in\n    tag_371:\n        /* \"#utility.yul\":483:488   */\n      dup2\n        /* \"#utility.yul\":480:515   */\n      eq\n        /* \"#utility.yul\":470:533   */\n      tag_372\n      jumpi\n        /* \"#utility.yul\":529:530   */\n      0x00\n        /* \"#utility.yul\":526:527   */\n      dup1\n        /* \"#utility.yul\":519:531   */\n      revert\n        /* \"#utility.yul\":470:533   */\n    tag_372:\n        /* \"#utility.yul\":417:539   */\n      pop\n      jump\t// out\n        /* \"#utility.yul\":545:684   */\n    tag_290:\n        /* \"#utility.yul\":591:596   */\n      0x00\n        /* \"#utility.yul\":629:635   */\n      dup2\n        /* \"#utility.yul\":616:636   */\n      calldataload\n        /* \"#utility.yul\":607:636   */\n      swap1\n      pop\n        /* \"#utility.yul\":645:678   */\n      tag_374\n        /* \"#utility.yul\":672:677   */\n      dup2\n        /* \"#utility.yul\":645:678   */\n      tag_289\n      jump\t// in\n    tag_374:\n        /* \"#utility.yul\":545:684   */\n      swap3\n      swap2\n      pop\n      pop\n      jump\t// out\n        /* \"#utility.yul\":690:1019   */\n    tag_28:\n        /* \"#utility.yul\":749:755   */\n      0x00\n        /* \"#utility.yul\":798:800   */\n      0x20\n        /* \"#utility.yul\":786:795   */\n      dup3\n        /* \"#utility.yul\":777:784   */\n      dup5\n        /* \"#utility.yul\":773:796   */\n      sub\n        /* \"#utility.yul\":769:801   */\n      slt\n        /* \"#utility.yul\":766:885   */\n      iszero\n      tag_376\n      jumpi\n        /* \"#utility.yul\":804:883   */\n      tag_377\n      tag_286\n      jump\t// in\n    tag_377:\n        /* \"#utility.yul\":766:885   */\n    tag_376:\n        /* \"#utility.yul\":924:925   */\n      0x00\n        /* \"#utility.yul\":949:1002   */\n      tag_378\n        /* \"#utility.yul\":994:1001   */\n      dup5\n        /* \"#utility.yul\":985:991   */\n      dup3\n        /* \"#utility.yul\":974:983   */\n      dup6\n        /* \"#utility.yul\":970:992   */\n      add\n        /* \"#utility.yul\":949:1002   */\n      tag_290\n      jump\t// in\n    tag_378:\n        /* \"#utility.yul\":939:1002   */\n      swap2\n      pop\n        /* \"#utility.yul\":895:1012   */\n      pop\n        /* \"#utility.yul\":690:1019   */\n      swap3\n      swap2\n      pop\n      pop\n      jump\t// out\n        /* \"#utility.yul\":1025:1124   */\n    tag_291:\n        /* \"#utility.yul\":1077:1083   */\n      0x00\n        /* \"#utility.yul\":1111:1116   */\n      dup2\n        /* \"#utility.yul\":1105:1117   */\n      mload\n        /* \"#utility.yul\":1095:1117   */\n      swap1\n      pop\n        /* \"#utility.yul\":1025:1124   */\n      swap2\n      swap1\n      pop\n      jump\t// out\n        /* \"#utility.yul\":1130:1299   */\n    tag_292:\n        /* \"#utility.yul\":1214:1225   */\n      0x00\n        /* \"#utility.yul\":1248:1254   */\n      dup3\n        /* \"#utility.yul\":1243:1246   */\n      dup3\n        /* \"#utility.yul\":1236:1255   */\n      mstore\n        /* \"#utility.yul\":1288:1292   */\n      0x20\n        /* \"#utility.yul\":1283:1286   */\n      dup3\n        /* \"#utility.yul\":1279:1293   */\n      add\n        /* \"#utility.yul\":1264:1293   */\n      swap1\n      pop\n        /* \"#utility.yul\":1130:1299   */\n      swap3\n      swap2\n      pop\n      pop\n      jump\t// out\n        /* \"#utility.yul\":1305:1444   */\n    tag_293:\n        /* \"#utility.yul\":1394:1400   */\n      dup3\n        /* \"#utility.yul\":1389:1392   */\n      dup2\n        /* \"#utility.yul\":1384:1387   */\n      dup4\n        /* \"#utility.yul\":1378:1401   */\n      mcopy\n        /* \"#utility.yul\":1435:1436   */\n      0x00\n        /* \"#utility.yul\":1426:1432   */\n      dup4\n        /* \"#utility.yul\":1421:1424   */\n      dup4\n        /* \"#utility.yul\":1417:1433   */\n      add\n        /* \"#utility.yul\":1410:1437   */\n      mstore\n        /* \"#utility.yul\":1305:1444   */\n      pop\n      pop\n      pop\n      jump\t// out\n        /* \"#utility.yul\":1450:1552   */\n    tag_294:\n        /* \"#utility.yul\":1491:1497   */\n      0x00\n        /* \"#utility.yul\":1542:1544   */\n      0x1f\n        /* \"#utility.yul\":1538:1545   */\n      not\n        /* \"#utility.yul\":1533:1535   */\n      0x1f\n        /* \"#utility.yul\":1526:1531   */\n      dup4\n        /* \"#utility.yul\":1522:1536   */\n      add\n        /* \"#utility.yul\":1518:1546   */\n      and\n        /* \"#utility.yul\":1508:1546   */\n      swap1\n      pop\n        /* \"#utility.yul\":1450:1552   */\n      swap2\n      swap1\n      pop\n      jump\t// out\n        /* \"#utility.yul\":1558:1935   */\n    tag_295:\n        /* \"#utility.yul\":1646:1649   */\n      0x00\n        /* \"#utility.yul\":1674:1713   */\n      tag_384\n        /* \"#utility.yul\":1707:1712   */\n      dup3\n        /* \"#utility.yul\":1674:1713   */\n      tag_291\n      jump\t// in\n    tag_384:\n        /* \"#utility.yul\":1729:1800   */\n      tag_385\n        /* \"#utility.yul\":1793:1799   */\n      dup2\n        /* \"#utility.yul\":1788:1791   */\n      dup6\n        /* \"#utility.yul\":1729:1800   */\n      tag_292\n      jump\t// in\n    tag_385:\n        /* \"#utility.yul\":1722:1800   */\n      swap4\n      pop\n        /* \"#utility.yul\":1809:1874   */\n      tag_386\n        /* \"#utility.yul\":1867:1873   */\n      dup2\n        /* \"#utility.yul\":1862:1865   */\n      dup6\n        /* \"#utility.yul\":1855:1859   */\n      0x20\n        /* \"#utility.yul\":1848:1853   */\n      dup7\n        /* \"#utility.yul\":1844:1860   */\n      add\n        /* \"#utility.yul\":1809:1874   */\n      tag_293\n      jump\t// in\n    tag_386:\n        /* \"#utility.yul\":1899:1928   */\n      tag_387\n        /* \"#utility.yul\":1921:1927   */\n      dup2\n        /* \"#utility.yul\":1899:1928   */\n      tag_294\n      jump\t// in\n    tag_387:\n        /* \"#utility.yul\":1894:1897   */\n      dup5\n        /* \"#utility.yul\":1890:1929   */\n      add\n        /* \"#utility.yul\":1883:1929   */\n      swap2\n      pop\n        /* \"#utility.yul\":1650:1935   */\n      pop\n        /* \"#utility.yul\":1558:1935   */\n      swap3\n      swap2\n      pop\n      pop\n      jump\t// out\n        /* \"#utility.yul\":1941:2059   */\n    tag_296:\n        /* \"#utility.yul\":2028:2052   */\n      tag_389\n        /* \"#utility.yul\":2046:2051   */\n      dup2\n        /* \"#utility.yul\":2028:2052   */\n      tag_288\n      jump\t// in\n    tag_389:\n        /* \"#utility.yul\":2023:2026   */\n      dup3\n        /* \"#utility.yul\":2016:2053   */\n      mstore\n        /* \"#utility.yul\":1941:2059   */\n      pop\n      pop\n      jump\t// out\n        /* \"#utility.yul\":2065:2598   */\n    tag_31:\n        /* \"#utility.yul\":2234:2238   */\n      0x00\n        /* \"#utility.yul\":2272:2274   */\n      0x60\n        /* \"#utility.yul\":2261:2270   */\n      dup3\n        /* \"#utility.yul\":2257:2275   */\n      add\n        /* \"#utility.yul\":2249:2275   */\n      swap1\n      pop\n        /* \"#utility.yul\":2321:2330   */\n      dup2\n        /* \"#utility.yul\":2315:2319   */\n      dup2\n        /* \"#utility.yul\":2311:2331   */\n      sub\n        /* \"#utility.yul\":2307:2308   */\n      0x00\n        /* \"#utility.yul\":2296:2305   */\n      dup4\n        /* \"#utility.yul\":2292:2309   */\n      add\n        /* \"#utility.yul\":2285:2332   */\n      mstore\n        /* \"#utility.yul\":2349:2427   */\n      tag_391\n        /* \"#utility.yul\":2422:2426   */\n      dup2\n        /* \"#utility.yul\":2413:2419   */\n      dup7\n        /* \"#utility.yul\":2349:2427   */\n      tag_295\n      jump\t// in\n    tag_391:\n        /* \"#utility.yul\":2341:2427   */\n      swap1\n      pop\n        /* \"#utility.yul\":2437:2509   */\n      tag_392\n        /* \"#utility.yul\":2505:2507   */\n      0x20\n        /* \"#utility.yul\":2494:2503   */\n      dup4\n        /* \"#utility.yul\":2490:2508   */\n      add\n        /* \"#utility.yul\":2481:2487   */\n      dup6\n        /* \"#utility.yul\":2437:2509   */\n      tag_296\n      jump\t// in\n    tag_392:\n        /* \"#utility.yul\":2519:2591   */\n      tag_393\n        /* \"#utility.yul\":2587:2589   */\n      0x40\n        /* \"#utility.yul\":2576:2585   */\n      dup4\n        /* \"#utility.yul\":2572:2590   */\n      add\n        /* \"#utility.yul\":2563:2569   */\n      dup5\n        /* \"#utility.yul\":2519:2591   */\n      tag_296\n      jump\t// in\n    tag_393:\n        /* \"#utility.yul\":2065:2598   */\n      swap5\n      swap4\n      pop\n      pop\n      pop\n      pop\n      jump\t// out\n        /* \"#utility.yul\":2604:2917   */\n    tag_36:\n        /* \"#utility.yul\":2717:2721   */\n      0x00\n        /* \"#utility.yul\":2755:2757   */\n      0x20\n        /* \"#utility.yul\":2744:2753   */\n      dup3\n        /* \"#utility.yul\":2740:2758   */\n      add\n        /* \"#utility.yul\":2732:2758   */\n      swap1\n      pop\n        /* \"#utility.yul\":2804:2813   */\n      dup2\n        /* \"#utility.yul\":2798:2802   */\n      dup2\n        /* \"#utility.yul\":2794:2814   */\n      sub\n        /* \"#utility.yul\":2790:2791   */\n      0x00\n        /* \"#utility.yul\":2779:2788   */\n      dup4\n        /* \"#utility.yul\":2775:2792   */\n      add\n        /* \"#utility.yul\":2768:2815   */\n      mstore\n        /* \"#utility.yul\":2832:2910   */\n      tag_395\n        /* \"#utility.yul\":2905:2909   */\n      dup2\n        /* \"#utility.yul\":2896:2902   */\n      dup5\n        /* \"#utility.yul\":2832:2910   */\n      tag_295\n      jump\t// in\n    tag_395:\n        /* \"#utility.yul\":2824:2910   */\n      swap1\n      pop\n        /* \"#utility.yul\":2604:2917   */\n      swap3\n      swap2\n      pop\n      pop\n      jump\t// out\n        /* \"#utility.yul\":2923:3103   */\n    tag_131:\n        /* \"#utility.yul\":2971:3048   */\n      0x4e487b7100000000000000000000000000000000000000000000000000000000\n        /* \"#utility.yul\":2968:2969   */\n      0x00\n        /* \"#utility.yul\":2961:3049   */\n      mstore\n        /* \"#utility.yul\":3068:3072   */\n      0x21\n        /* \"#utility.yul\":3065:3066   */\n      0x04\n        /* \"#utility.yul\":3058:3073   */\n      mstore\n        /* \"#utility.yul\":3092:3096   */\n      0x24\n        /* \"#utility.yul\":3089:3090   */\n      0x00\n        /* \"#utility.yul\":3082:3097   */\n      revert\n        /* \"#utility.yul\":3109:3230   */\n    tag_297:\n        /* \"#utility.yul\":3198:3199   */\n      0x03\n        /* \"#utility.yul\":3191:3196   */\n      dup2\n        /* \"#utility.yul\":3188:3200   */\n      lt\n        /* \"#utility.yul\":3178:3224   */\n      tag_398\n      jumpi\n        /* \"#utility.yul\":3204:3222   */\n      tag_399\n      tag_131\n      jump\t// in\n    tag_399:\n        /* \"#utility.yul\":3178:3224   */\n    tag_398:\n        /* \"#utility.yul\":3109:3230   */\n      pop\n      jump\t// out\n        /* \"#utility.yul\":3236:3379   */\n    tag_298:\n        /* \"#utility.yul\":3289:3296   */\n      0x00\n        /* \"#utility.yul\":3318:3323   */\n      dup2\n        /* \"#utility.yul\":3307:3323   */\n      swap1\n      pop\n        /* \"#utility.yul\":3324:3373   */\n      tag_401\n        /* \"#utility.yul\":3367:3372   */\n      dup3\n        /* \"#utility.yul\":3324:3373   */\n      tag_297\n      jump\t// in\n    tag_401:\n        /* \"#utility.yul\":3236:3379   */\n      swap2\n      swap1\n      pop\n      jump\t// out\n        /* \"#utility.yul\":3385:3528   */\n    tag_299:\n        /* \"#utility.yul\":3449:3458   */\n      0x00\n        /* \"#utility.yul\":3482:3522   */\n      tag_403\n        /* \"#utility.yul\":3516:3521   */\n      dup3\n        /* \"#utility.yul\":3482:3522   */\n      tag_298\n      jump\t// in\n    tag_403:\n        /* \"#utility.yul\":3469:3522   */\n      swap1\n      pop\n        /* \"#utility.yul\":3385:3528   */\n      swap2\n      swap1\n      pop\n      jump\t// out\n        /* \"#utility.yul\":3534:3693   */\n    tag_300:\n        /* \"#utility.yul\":3635:3686   */\n      tag_405\n        /* \"#utility.yul\":3680:3685   */\n      dup2\n        /* \"#utility.yul\":3635:3686   */\n      tag_299\n      jump\t// in\n    tag_405:\n        /* \"#utility.yul\":3630:3633   */\n      dup3\n        /* \"#utility.yul\":3623:3687   */\n      mstore\n        /* \"#utility.yul\":3534:3693   */\n      pop\n      pop\n      jump\t// out\n        /* \"#utility.yul\":3699:3949   */\n    tag_41:\n        /* \"#utility.yul\":3806:3810   */\n      0x00\n        /* \"#utility.yul\":3844:3846   */\n      0x20\n        /* \"#utility.yul\":3833:3842   */\n      dup3\n        /* \"#utility.yul\":3829:3847   */\n      add\n        /* \"#utility.yul\":3821:3847   */\n      swap1\n      pop\n        /* \"#utility.yul\":3857:3942   */\n      tag_407\n        /* \"#utility.yul\":3939:3940   */\n      0x00\n        /* \"#utility.yul\":3928:3937   */\n      dup4\n        /* \"#utility.yul\":3924:3941   */\n      add\n        /* \"#utility.yul\":3915:3921   */\n      dup5\n        /* \"#utility.yul\":3857:3942   */\n      tag_300\n      jump\t// in\n    tag_407:\n        /* \"#utility.yul\":3699:3949   */\n      swap3\n      swap2\n      pop\n      pop\n      jump\t// out\n        /* \"#utility.yul\":3955:4177   */\n    tag_46:\n        /* \"#utility.yul\":4048:4052   */\n      0x00\n        /* \"#utility.yul\":4086:4088   */\n      0x20\n        /* \"#utility.yul\":4075:4084   */\n      dup3\n        /* \"#utility.yul\":4071:4089   */\n      add\n        /* \"#utility.yul\":4063:4089   */\n      swap1\n      pop\n        /* \"#utility.yul\":4099:4170   */\n      tag_409\n        /* \"#utility.yul\":4167:4168   */\n      0x00\n        /* \"#utility.yul\":4156:4165   */\n      dup4\n        /* \"#utility.yul\":4152:4169   */\n      add\n        /* \"#utility.yul\":4143:4149   */\n      dup5\n        /* \"#utility.yul\":4099:4170   */\n      tag_296\n      jump\t// in\n    tag_409:\n        /* \"#utility.yul\":3955:4177   */\n      swap3\n      swap2\n      pop\n      pop\n      jump\t// out\n        /* \"#utility.yul\":4183:4273   */\n    tag_301:\n        /* \"#utility.yul\":4217:4224   */\n      0x00\n        /* \"#utility.yul\":4260:4265   */\n      dup2\n        /* \"#utility.yul\":4253:4266   */\n      iszero\n        /* \"#utility.yul\":4246:4267   */\n      iszero\n        /* \"#utility.yul\":4235:4267   */\n      swap1\n      pop\n        /* \"#utility.yul\":4183:4273   */\n      swap2\n      swap1\n      pop\n      jump\t// out\n        /* \"#utility.yul\":4279:4388   */\n    tag_302:\n        /* \"#utility.yul\":4360:4381   */\n      tag_412\n        /* \"#utility.yul\":4375:4380   */\n      dup2\n        /* \"#utility.yul\":4360:4381   */\n      tag_301\n      jump\t// in\n    tag_412:\n        /* \"#utility.yul\":4355:4358   */\n      dup3\n        /* \"#utility.yul\":4348:4382   */\n      mstore\n        /* \"#utility.yul\":4279:4388   */\n      pop\n      pop\n      jump\t// out\n        /* \"#utility.yul\":4394:4604   */\n    tag_65:\n        /* \"#utility.yul\":4481:4485   */\n      0x00\n        /* \"#utility.yul\":4519:4521   */\n      0x20\n        /* \"#utility.yul\":4508:4517   */\n      dup3\n        /* \"#utility.yul\":4504:4522   */\n      add\n        /* \"#utility.yul\":4496:4522   */\n      swap1\n      pop\n        /* \"#utility.yul\":4532:4597   */\n      tag_414\n        /* \"#utility.yul\":4594:4595   */\n      0x00\n        /* \"#utility.yul\":4583:4592   */\n      dup4\n        /* \"#utility.yul\":4579:4596   */\n      add\n        /* \"#utility.yul\":4570:4576   */\n      dup5\n        /* \"#utility.yul\":4532:4597   */\n      tag_302\n      jump\t// in\n    tag_414:\n        /* \"#utility.yul\":4394:4604   */\n      swap3\n      swap2\n      pop\n      pop\n      jump\t// out\n        /* \"#utility.yul\":4610:4736   */\n    tag_303:\n        /* \"#utility.yul\":4647:4654   */\n      0x00\n        /* \"#utility.yul\":4687:4729   */\n      0xffffffffffffffffffffffffffffffffffffffff\n        /* \"#utility.yul\":4680:4685   */\n      dup3\n        /* \"#utility.yul\":4676:4730   */\n      and\n        /* \"#utility.yul\":4665:4730   */\n      swap1\n      pop\n        /* \"#utility.yul\":4610:4736   */\n      swap2\n      swap1\n      pop\n      jump\t// out\n        /* \"#utility.yul\":4742:4838   */\n    tag_304:\n        /* \"#utility.yul\":4779:4786   */\n      0x00\n        /* \"#utility.yul\":4808:4832   */\n      tag_417\n        /* \"#utility.yul\":4826:4831   */\n      dup3\n        /* \"#utility.yul\":4808:4832   */\n      tag_303\n      jump\t// in\n    tag_417:\n        /* \"#utility.yul\":4797:4832   */\n      swap1\n      pop\n        /* \"#utility.yul\":4742:4838   */\n      swap2\n      swap1\n      pop\n      jump\t// out\n        /* \"#utility.yul\":4844:4966   */\n    tag_305:\n        /* \"#utility.yul\":4917:4941   */\n      tag_419\n        /* \"#utility.yul\":4935:4940   */\n      dup2\n        /* \"#utility.yul\":4917:4941   */\n      tag_304\n      jump\t// in\n    tag_419:\n        /* \"#utility.yul\":4910:4915   */\n      dup2\n        /* \"#utility.yul\":4907:4942   */\n      eq\n        /* \"#utility.yul\":4897:4960   */\n      tag_420\n      jumpi\n        /* \"#utility.yul\":4956:4957   */\n      0x00\n        /* \"#utility.yul\":4953:4954   */\n      dup1\n        /* \"#utility.yul\":4946:4958   */\n      revert\n        /* \"#utility.yul\":4897:4960   */\n    tag_420:\n        /* \"#utility.yul\":4844:4966   */\n      pop\n      jump\t// out\n        /* \"#utility.yul\":4972:5111   */\n    tag_306:\n        /* \"#utility.yul\":5018:5023   */\n      0x00\n        /* \"#utility.yul\":5056:5062   */\n      dup2\n        /* \"#utility.yul\":5043:5063   */\n      calldataload\n        /* \"#utility.yul\":5034:5063   */\n      swap1\n      pop\n        /* \"#utility.yul\":5072:5105   */\n      tag_422\n        /* \"#utility.yul\":5099:5104   */\n      dup2\n        /* \"#utility.yul\":5072:5105   */\n      tag_305\n      jump\t// in\n    tag_422:\n        /* \"#utility.yul\":4972:5111   */\n      swap3\n      swap2\n      pop\n      pop\n      jump\t// out\n        /* \"#utility.yul\":5117:5591   */\n    tag_81:\n        /* \"#utility.yul\":5185:5191   */\n      0x00\n        /* \"#utility.yul\":5193:5199   */\n      dup1\n        /* \"#utility.yul\":5242:5244   */\n      0x40\n        /* \"#utility.yul\":5230:5239   */\n      dup4\n        /* \"#utility.yul\":5221:5228   */\n      dup6\n        /* \"#utility.yul\":5217:5240   */\n      sub\n        /* \"#utility.yul\":5213:5245   */\n      slt\n        /* \"#utility.yul\":5210:5329   */\n      iszero\n      tag_424\n      jumpi\n        /* \"#utility.yul\":5248:5327   */\n      tag_425\n      tag_286\n      jump\t// in\n    tag_425:\n        /* \"#utility.yul\":5210:5329   */\n    tag_424:\n        /* \"#utility.yul\":5368:5369   */\n      0x00\n        /* \"#utility.yul\":5393:5446   */\n      tag_426\n        /* \"#utility.yul\":5438:5445   */\n      dup6\n        /* \"#utility.yul\":5429:5435   */\n      dup3\n        /* \"#utility.yul\":5418:5427   */\n      dup7\n        /* \"#utility.yul\":5414:5436   */\n      add\n        /* \"#utility.yul\":5393:5446   */\n      tag_306\n      jump\t// in\n    tag_426:\n        /* \"#utility.yul\":5383:5446   */\n      swap3\n      pop\n        /* \"#utility.yul\":5339:5456   */\n      pop\n        /* \"#utility.yul\":5495:5497   */\n      0x20\n        /* \"#utility.yul\":5521:5574   */\n      tag_427\n        /* \"#utility.yul\":5566:5573   */\n      dup6\n        /* \"#utility.yul\":5557:5563   */\n      dup3\n        /* \"#utility.yul\":5546:5555   */\n      dup7\n        /* \"#utility.yul\":5542:5564   */\n      add\n        /* \"#utility.yul\":5521:5574   */\n      tag_290\n      jump\t// in\n    tag_427:\n        /* \"#utility.yul\":5511:5574   */\n      swap2\n      pop\n        /* \"#utility.yul\":5466:5584   */\n      pop\n        /* \"#utility.yul\":5117:5591   */\n      swap3\n      pop\n      swap3\n      swap1\n      pop\n      jump\t// out\n        /* \"#utility.yul\":5597:5715   */\n    tag_307:\n        /* \"#utility.yul\":5684:5708   */\n      tag_429\n        /* \"#utility.yul\":5702:5707   */\n      dup2\n        /* \"#utility.yul\":5684:5708   */\n      tag_304\n      jump\t// in\n    tag_429:\n        /* \"#utility.yul\":5679:5682   */\n      dup3\n        /* \"#utility.yul\":5672:5709   */\n      mstore\n        /* \"#utility.yul\":5597:5715   */\n      pop\n      pop\n      jump\t// out\n        /* \"#utility.yul\":5721:5943   */\n    tag_88:\n        /* \"#utility.yul\":5814:5818   */\n      0x00\n        /* \"#utility.yul\":5852:5854   */\n      0x20\n        /* \"#utility.yul\":5841:5850   */\n      dup3\n        /* \"#utility.yul\":5837:5855   */\n      add\n        /* \"#utility.yul\":5829:5855   */\n      swap1\n      pop\n        /* \"#utility.yul\":5865:5936   */\n      tag_431\n        /* \"#utility.yul\":5933:5934   */\n      0x00\n        /* \"#utility.yul\":5922:5931   */\n      dup4\n        /* \"#utility.yul\":5918:5935   */\n      add\n        /* \"#utility.yul\":5909:5915   */\n      dup5\n        /* \"#utility.yul\":5865:5936   */\n      tag_307\n      jump\t// in\n    tag_431:\n        /* \"#utility.yul\":5721:5943   */\n      swap3\n      swap2\n      pop\n      pop\n      jump\t// out\n        /* \"#utility.yul\":5949:6066   */\n    tag_308:\n        /* \"#utility.yul\":6058:6059   */\n      0x00\n        /* \"#utility.yul\":6055:6056   */\n      dup1\n        /* \"#utility.yul\":6048:6060   */\n      revert\n        /* \"#utility.yul\":6072:6189   */\n    tag_309:\n        /* \"#utility.yul\":6181:6182   */\n      0x00\n        /* \"#utility.yul\":6178:6179   */\n      dup1\n        /* \"#utility.yul\":6171:6183   */\n      revert\n        /* \"#utility.yul\":6195:6375   */\n    tag_310:\n        /* \"#utility.yul\":6243:6320   */\n      0x4e487b7100000000000000000000000000000000000000000000000000000000\n        /* \"#utility.yul\":6240:6241   */\n      0x00\n        /* \"#utility.yul\":6233:6321   */\n      mstore\n        /* \"#utility.yul\":6340:6344   */\n      0x41\n        /* \"#utility.yul\":6337:6338   */\n      0x04\n        /* \"#utility.yul\":6330:6345   */\n      mstore\n        /* \"#utility.yul\":6364:6368   */\n      0x24\n        /* \"#utility.yul\":6361:6362   */\n      0x00\n        /* \"#utility.yul\":6354:6369   */\n      revert\n        /* \"#utility.yul\":6381:6662   */\n    tag_311:\n        /* \"#utility.yul\":6464:6491   */\n      tag_436\n        /* \"#utility.yul\":6486:6490   */\n      dup3\n        /* \"#utility.yul\":6464:6491   */\n      tag_294\n      jump\t// in\n    tag_436:\n        /* \"#utility.yul\":6456:6462   */\n      dup2\n        /* \"#utility.yul\":6452:6492   */\n      add\n        /* \"#utility.yul\":6594:6600   */\n      dup2\n        /* \"#utility.yul\":6582:6592   */\n      dup2\n        /* \"#utility.yul\":6579:6601   */\n      lt\n        /* \"#utility.yul\":6558:6576   */\n      0xffffffffffffffff\n        /* \"#utility.yul\":6546:6556   */\n      dup3\n        /* \"#utility.yul\":6543:6577   */\n      gt\n        /* \"#utility.yul\":6540:6602   */\n      or\n        /* \"#utility.yul\":6537:6625   */\n      iszero\n      tag_437\n      jumpi\n        /* \"#utility.yul\":6605:6623   */\n      tag_438\n      tag_310\n      jump\t// in\n    tag_438:\n        /* \"#utility.yul\":6537:6625   */\n    tag_437:\n        /* \"#utility.yul\":6645:6655   */\n      dup1\n        /* \"#utility.yul\":6641:6643   */\n      0x40\n        /* \"#utility.yul\":6634:6656   */\n      mstore\n        /* \"#utility.yul\":6424:6662   */\n      pop\n        /* \"#utility.yul\":6381:6662   */\n      pop\n      pop\n      jump\t// out\n        /* \"#utility.yul\":6668:6797   */\n    tag_312:\n        /* \"#utility.yul\":6702:6708   */\n      0x00\n        /* \"#utility.yul\":6729:6749   */\n      tag_440\n      tag_285\n      jump\t// in\n    tag_440:\n        /* \"#utility.yul\":6719:6749   */\n      swap1\n      pop\n        /* \"#utility.yul\":6758:6791   */\n      tag_441\n        /* \"#utility.yul\":6786:6790   */\n      dup3\n        /* \"#utility.yul\":6778:6784   */\n      dup3\n        /* \"#utility.yul\":6758:6791   */\n      tag_311\n      jump\t// in\n    tag_441:\n        /* \"#utility.yul\":6668:6797   */\n      swap2\n      swap1\n      pop\n      jump\t// out\n        /* \"#utility.yul\":6803:7111   */\n    tag_313:\n        /* \"#utility.yul\":6865:6869   */\n      0x00\n        /* \"#utility.yul\":6955:6973   */\n      0xffffffffffffffff\n        /* \"#utility.yul\":6947:6953   */\n      dup3\n        /* \"#utility.yul\":6944:6974   */\n      gt\n        /* \"#utility.yul\":6941:6997   */\n      iszero\n      tag_443\n      jumpi\n        /* \"#utility.yul\":6977:6995   */\n      tag_444\n      tag_310\n      jump\t// in\n    tag_444:\n        /* \"#utility.yul\":6941:6997   */\n    tag_443:\n        /* \"#utility.yul\":7015:7044   */\n      tag_445\n        /* \"#utility.yul\":7037:7043   */\n      dup3\n        /* \"#utility.yul\":7015:7044   */\n      tag_294\n      jump\t// in\n    tag_445:\n        /* \"#utility.yul\":7007:7044   */\n      swap1\n      pop\n        /* \"#utility.yul\":7099:7103   */\n      0x20\n        /* \"#utility.yul\":7093:7097   */\n      dup2\n        /* \"#utility.yul\":7089:7104   */\n      add\n        /* \"#utility.yul\":7081:7104   */\n      swap1\n      pop\n        /* \"#utility.yul\":6803:7111   */\n      swap2\n      swap1\n      pop\n      jump\t// out\n        /* \"#utility.yul\":7117:7265   */\n    tag_314:\n        /* \"#utility.yul\":7215:7221   */\n      dup3\n        /* \"#utility.yul\":7210:7213   */\n      dup2\n        /* \"#utility.yul\":7205:7208   */\n      dup4\n        /* \"#utility.yul\":7192:7222   */\n      calldatacopy\n        /* \"#utility.yul\":7256:7257   */\n      0x00\n        /* \"#utility.yul\":7247:7253   */\n      dup4\n        /* \"#utility.yul\":7242:7245   */\n      dup4\n        /* \"#utility.yul\":7238:7254   */\n      add\n        /* \"#utility.yul\":7231:7258   */\n      mstore\n        /* \"#utility.yul\":7117:7265   */\n      pop\n      pop\n      pop\n      jump\t// out\n        /* \"#utility.yul\":7271:7696   */\n    tag_315:\n        /* \"#utility.yul\":7349:7354   */\n      0x00\n        /* \"#utility.yul\":7374:7440   */\n      tag_448\n        /* \"#utility.yul\":7390:7439   */\n      tag_449\n        /* \"#utility.yul\":7432:7438   */\n      dup5\n        /* \"#utility.yul\":7390:7439   */\n      tag_313\n      jump\t// in\n    tag_449:\n        /* \"#utility.yul\":7374:7440   */\n      tag_312\n      jump\t// in\n    tag_448:\n        /* \"#utility.yul\":7365:7440   */\n      swap1\n      pop\n        /* \"#utility.yul\":7463:7469   */\n      dup3\n        /* \"#utility.yul\":7456:7461   */\n      dup2\n        /* \"#utility.yul\":7449:7470   */\n      mstore\n        /* \"#utility.yul\":7501:7505   */\n      0x20\n        /* \"#utility.yul\":7494:7499   */\n      dup2\n        /* \"#utility.yul\":7490:7506   */\n      add\n        /* \"#utility.yul\":7539:7542   */\n      dup5\n        /* \"#utility.yul\":7530:7536   */\n      dup5\n        /* \"#utility.yul\":7525:7528   */\n      dup5\n        /* \"#utility.yul\":7521:7537   */\n      add\n        /* \"#utility.yul\":7518:7543   */\n      gt\n        /* \"#utility.yul\":7515:7627   */\n      iszero\n      tag_450\n      jumpi\n        /* \"#utility.yul\":7546:7625   */\n      tag_451\n      tag_309\n      jump\t// in\n    tag_451:\n        /* \"#utility.yul\":7515:7627   */\n    tag_450:\n        /* \"#utility.yul\":7636:7690   */\n      tag_452\n        /* \"#utility.yul\":7683:7689   */\n      dup5\n        /* \"#utility.yul\":7678:7681   */\n      dup3\n        /* \"#utility.yul\":7673:7676   */\n      dup6\n        /* \"#utility.yul\":7636:7690   */\n      tag_314\n      jump\t// in\n    tag_452:\n        /* \"#utility.yul\":7355:7696   */\n      pop\n        /* \"#utility.yul\":7271:7696   */\n      swap4\n      swap3\n      pop\n      pop\n      pop\n      jump\t// out\n        /* \"#utility.yul\":7716:8056   */\n    tag_316:\n        /* \"#utility.yul\":7772:7777   */\n      0x00\n        /* \"#utility.yul\":7821:7824   */\n      dup3\n        /* \"#utility.yul\":7814:7818   */\n      0x1f\n        /* \"#utility.yul\":7806:7812   */\n      dup4\n        /* \"#utility.yul\":7802:7819   */\n      add\n        /* \"#utility.yul\":7798:7825   */\n      slt\n        /* \"#utility.yul\":7788:7910   */\n      tag_454\n      jumpi\n        /* \"#utility.yul\":7829:7908   */\n      tag_455\n      tag_308\n      jump\t// in\n    tag_455:\n        /* \"#utility.yul\":7788:7910   */\n    tag_454:\n        /* \"#utility.yul\":7946:7952   */\n      dup2\n        /* \"#utility.yul\":7933:7953   */\n      calldataload\n        /* \"#utility.yul\":7971:8050   */\n      tag_456\n        /* \"#utility.yul\":8046:8049   */\n      dup5\n        /* \"#utility.yul\":8038:8044   */\n      dup3\n        /* \"#utility.yul\":8031:8035   */\n      0x20\n        /* \"#utility.yul\":8023:8029   */\n      dup7\n        /* \"#utility.yul\":8019:8036   */\n      add\n        /* \"#utility.yul\":7971:8050   */\n      tag_315\n      jump\t// in\n    tag_456:\n        /* \"#utility.yul\":7962:8050   */\n      swap2\n      pop\n        /* \"#utility.yul\":7778:8056   */\n      pop\n        /* \"#utility.yul\":7716:8056   */\n      swap3\n      swap2\n      pop\n      pop\n      jump\t// out\n        /* \"#utility.yul\":8062:8716   */\n    tag_92:\n        /* \"#utility.yul\":8140:8146   */\n      0x00\n        /* \"#utility.yul\":8148:8154   */\n      dup1\n        /* \"#utility.yul\":8197:8199   */\n      0x40\n        /* \"#utility.yul\":8185:8194   */\n      dup4\n        /* \"#utility.yul\":8176:8183   */\n      dup6\n        /* \"#utility.yul\":8172:8195   */\n      sub\n        /* \"#utility.yul\":8168:8200   */\n      slt\n        /* \"#utility.yul\":8165:8284   */\n      iszero\n      tag_458\n      jumpi\n        /* \"#utility.yul\":8203:8282   */\n      tag_459\n      tag_286\n      jump\t// in\n    tag_459:\n        /* \"#utility.yul\":8165:8284   */\n    tag_458:\n        /* \"#utility.yul\":8351:8352   */\n      0x00\n        /* \"#utility.yul\":8340:8349   */\n      dup4\n        /* \"#utility.yul\":8336:8353   */\n      add\n        /* \"#utility.yul\":8323:8354   */\n      calldataload\n        /* \"#utility.yul\":8381:8399   */\n      0xffffffffffffffff\n        /* \"#utility.yul\":8373:8379   */\n      dup2\n        /* \"#utility.yul\":8370:8400   */\n      gt\n        /* \"#utility.yul\":8367:8484   */\n      iszero\n      tag_460\n      jumpi\n        /* \"#utility.yul\":8403:8482   */\n      tag_461\n      tag_287\n      jump\t// in\n    tag_461:\n        /* \"#utility.yul\":8367:8484   */\n    tag_460:\n        /* \"#utility.yul\":8508:8571   */\n      tag_462\n        /* \"#utility.yul\":8563:8570   */\n      dup6\n        /* \"#utility.yul\":8554:8560   */\n      dup3\n        /* \"#utility.yul\":8543:8552   */\n      dup7\n        /* \"#utility.yul\":8539:8561   */\n      add\n        /* \"#utility.yul\":8508:8571   */\n      tag_316\n      jump\t// in\n    tag_462:\n        /* \"#utility.yul\":8498:8571   */\n      swap3\n      pop\n        /* \"#utility.yul\":8294:8581   */\n      pop\n        /* \"#utility.yul\":8620:8622   */\n      0x20\n        /* \"#utility.yul\":8646:8699   */\n      tag_463\n        /* \"#utility.yul\":8691:8698   */\n      dup6\n        /* \"#utility.yul\":8682:8688   */\n      dup3\n        /* \"#utility.yul\":8671:8680   */\n      dup7\n        /* \"#utility.yul\":8667:8689   */\n      add\n        /* \"#utility.yul\":8646:8699   */\n      tag_290\n      jump\t// in\n    tag_463:\n        /* \"#utility.yul\":8636:8699   */\n      swap2\n      pop\n        /* \"#utility.yul\":8591:8709   */\n      pop\n        /* \"#utility.yul\":8062:8716   */\n      swap3\n      pop\n      swap3\n      swap1\n      pop\n      jump\t// out\n        /* \"#utility.yul\":8722:9051   */\n    tag_97:\n        /* \"#utility.yul\":8781:8787   */\n      0x00\n        /* \"#utility.yul\":8830:8832   */\n      0x20\n        /* \"#utility.yul\":8818:8827   */\n      dup3\n        /* \"#utility.yul\":8809:8816   */\n      dup5\n        /* \"#utility.yul\":8805:8828   */\n      sub\n        /* \"#utility.yul\":8801:8833   */\n      slt\n        /* \"#utility.yul\":8798:8917   */\n      iszero\n      tag_465\n      jumpi\n        /* \"#utility.yul\":8836:8915   */\n      tag_466\n      tag_286\n      jump\t// in\n    tag_466:\n        /* \"#utility.yul\":8798:8917   */\n    tag_465:\n        /* \"#utility.yul\":8956:8957   */\n      0x00\n        /* \"#utility.yul\":8981:9034   */\n      tag_467\n        /* \"#utility.yul\":9026:9033   */\n      dup5\n        /* \"#utility.yul\":9017:9023   */\n      dup3\n        /* \"#utility.yul\":9006:9015   */\n      dup6\n        /* \"#utility.yul\":9002:9024   */\n      add\n        /* \"#utility.yul\":8981:9034   */\n      tag_306\n      jump\t// in\n    tag_467:\n        /* \"#utility.yul\":8971:9034   */\n      swap2\n      pop\n        /* \"#utility.yul\":8927:9044   */\n      pop\n        /* \"#utility.yul\":8722:9051   */\n      swap3\n      swap2\n      pop\n      pop\n      jump\t// out\n        /* \"#utility.yul\":9057:9191   */\n    tag_317:\n        /* \"#utility.yul\":9144:9150   */\n      0x00\n        /* \"#utility.yul\":9178:9183   */\n      dup2\n        /* \"#utility.yul\":9172:9184   */\n      mload\n        /* \"#utility.yul\":9162:9184   */\n      swap1\n      pop\n        /* \"#utility.yul\":9057:9191   */\n      swap2\n      swap1\n      pop\n      jump\t// out\n        /* \"#utility.yul\":9197:9401   */\n    tag_318:\n        /* \"#utility.yul\":9316:9327   */\n      0x00\n        /* \"#utility.yul\":9350:9356   */\n      dup3\n        /* \"#utility.yul\":9345:9348   */\n      dup3\n        /* \"#utility.yul\":9338:9357   */\n      mstore\n        /* \"#utility.yul\":9390:9394   */\n      0x20\n        /* \"#utility.yul\":9385:9388   */\n      dup3\n        /* \"#utility.yul\":9381:9395   */\n      add\n        /* \"#utility.yul\":9366:9395   */\n      swap1\n      pop\n        /* \"#utility.yul\":9197:9401   */\n      swap3\n      swap2\n      pop\n      pop\n      jump\t// out\n        /* \"#utility.yul\":9407:9559   */\n    tag_319:\n        /* \"#utility.yul\":9494:9498   */\n      0x00\n        /* \"#utility.yul\":9517:9520   */\n      dup2\n        /* \"#utility.yul\":9509:9520   */\n      swap1\n      pop\n        /* \"#utility.yul\":9547:9551   */\n      0x20\n        /* \"#utility.yul\":9542:9545   */\n      dup3\n        /* \"#utility.yul\":9538:9552   */\n      add\n        /* \"#utility.yul\":9530:9552   */\n      swap1\n      pop\n        /* \"#utility.yul\":9407:9559   */\n      swap2\n      swap1\n      pop\n      jump\t// out\n        /* \"#utility.yul\":9565:9724   */\n    tag_320:\n        /* \"#utility.yul\":9639:9650   */\n      0x00\n        /* \"#utility.yul\":9673:9679   */\n      dup3\n        /* \"#utility.yul\":9668:9671   */\n      dup3\n        /* \"#utility.yul\":9661:9680   */\n      mstore\n        /* \"#utility.yul\":9713:9717   */\n      0x20\n        /* \"#utility.yul\":9708:9711   */\n      dup3\n        /* \"#utility.yul\":9704:9718   */\n      add\n        /* \"#utility.yul\":9689:9718   */\n      swap1\n      pop\n        /* \"#utility.yul\":9565:9724   */\n      swap3\n      swap2\n      pop\n      pop\n      jump\t// out\n        /* \"#utility.yul\":9730:10087   */\n    tag_321:\n        /* \"#utility.yul\":9808:9811   */\n      0x00\n        /* \"#utility.yul\":9836:9875   */\n      tag_473\n        /* \"#utility.yul\":9869:9874   */\n      dup3\n        /* \"#utility.yul\":9836:9875   */\n      tag_291\n      jump\t// in\n    tag_473:\n        /* \"#utility.yul\":9891:9952   */\n      tag_474\n        /* \"#utility.yul\":9945:9951   */\n      dup2\n        /* \"#utility.yul\":9940:9943   */\n      dup6\n        /* \"#utility.yul\":9891:9952   */\n      tag_320\n      jump\t// in\n    tag_474:\n        /* \"#utility.yul\":9884:9952   */\n      swap4\n      pop\n        /* \"#utility.yul\":9961:10026   */\n      tag_475\n        /* \"#utility.yul\":10019:10025   */\n      dup2\n        /* \"#utility.yul\":10014:10017   */\n      dup6\n        /* \"#utility.yul\":10007:10011   */\n      0x20\n        /* \"#utility.yul\":10000:10005   */\n      dup7\n        /* \"#utility.yul\":9996:10012   */\n      add\n        /* \"#utility.yul\":9961:10026   */\n      tag_293\n      jump\t// in\n    tag_475:\n        /* \"#utility.yul\":10051:10080   */\n      tag_476\n        /* \"#utility.yul\":10073:10079   */\n      dup2\n        /* \"#utility.yul\":10051:10080   */\n      tag_294\n      jump\t// in\n    tag_476:\n        /* \"#utility.yul\":10046:10049   */\n      dup5\n        /* \"#utility.yul\":10042:10081   */\n      add\n        /* \"#utility.yul\":10035:10081   */\n      swap2\n      pop\n        /* \"#utility.yul\":9812:10087   */\n      pop\n        /* \"#utility.yul\":9730:10087   */\n      swap3\n      swap2\n      pop\n      pop\n      jump\t// out\n        /* \"#utility.yul\":10093:10201   */\n    tag_322:\n        /* \"#utility.yul\":10170:10194   */\n      tag_478\n        /* \"#utility.yul\":10188:10193   */\n      dup2\n        /* \"#utility.yul\":10170:10194   */\n      tag_288\n      jump\t// in\n    tag_478:\n        /* \"#utility.yul\":10165:10168   */\n      dup3\n        /* \"#utility.yul\":10158:10195   */\n      mstore\n        /* \"#utility.yul\":10093:10201   */\n      pop\n      pop\n      jump\t// out\n        /* \"#utility.yul\":10267:11032   */\n    tag_323:\n        /* \"#utility.yul\":10366:10369   */\n      0x00\n        /* \"#utility.yul\":10402:10406   */\n      0x60\n        /* \"#utility.yul\":10397:10400   */\n      dup4\n        /* \"#utility.yul\":10393:10407   */\n      add\n        /* \"#utility.yul\":10489:10493   */\n      0x00\n        /* \"#utility.yul\":10482:10487   */\n      dup4\n        /* \"#utility.yul\":10478:10494   */\n      add\n        /* \"#utility.yul\":10472:10495   */\n      mload\n        /* \"#utility.yul\":10542:10545   */\n      dup5\n        /* \"#utility.yul\":10536:10540   */\n      dup3\n        /* \"#utility.yul\":10532:10546   */\n      sub\n        /* \"#utility.yul\":10525:10529   */\n      0x00\n        /* \"#utility.yul\":10520:10523   */\n      dup7\n        /* \"#utility.yul\":10516:10530   */\n      add\n        /* \"#utility.yul\":10509:10547   */\n      mstore\n        /* \"#utility.yul\":10568:10641   */\n      tag_480\n        /* \"#utility.yul\":10636:10640   */\n      dup3\n        /* \"#utility.yul\":10622:10634   */\n      dup3\n        /* \"#utility.yul\":10568:10641   */\n      tag_321\n      jump\t// in\n    tag_480:\n        /* \"#utility.yul\":10560:10641   */\n      swap2\n      pop\n        /* \"#utility.yul\":10417:10652   */\n      pop\n        /* \"#utility.yul\":10736:10740   */\n      0x20\n        /* \"#utility.yul\":10729:10734   */\n      dup4\n        /* \"#utility.yul\":10725:10741   */\n      add\n        /* \"#utility.yul\":10719:10742   */\n      mload\n        /* \"#utility.yul\":10755:10818   */\n      tag_481\n        /* \"#utility.yul\":10812:10816   */\n      0x20\n        /* \"#utility.yul\":10807:10810   */\n      dup7\n        /* \"#utility.yul\":10803:10817   */\n      add\n        /* \"#utility.yul\":10789:10801   */\n      dup3\n        /* \"#utility.yul\":10755:10818   */\n      tag_322\n      jump\t// in\n    tag_481:\n        /* \"#utility.yul\":10662:10828   */\n      pop\n        /* \"#utility.yul\":10913:10917   */\n      0x40\n        /* \"#utility.yul\":10906:10911   */\n      dup4\n        /* \"#utility.yul\":10902:10918   */\n      add\n        /* \"#utility.yul\":10896:10919   */\n      mload\n        /* \"#utility.yul\":10932:10995   */\n      tag_482\n        /* \"#utility.yul\":10989:10993   */\n      0x40\n        /* \"#utility.yul\":10984:10987   */\n      dup7\n        /* \"#utility.yul\":10980:10994   */\n      add\n        /* \"#utility.yul\":10966:10978   */\n      dup3\n        /* \"#utility.yul\":10932:10995   */\n      tag_322\n      jump\t// in\n    tag_482:\n        /* \"#utility.yul\":10838:11005   */\n      pop\n        /* \"#utility.yul\":11022:11026   */\n      dup1\n        /* \"#utility.yul\":11015:11026   */\n      swap2\n      pop\n        /* \"#utility.yul\":10371:11032   */\n      pop\n        /* \"#utility.yul\":10267:11032   */\n      swap3\n      swap2\n      pop\n      pop\n      jump\t// out\n        /* \"#utility.yul\":11038:11274   */\n    tag_324:\n        /* \"#utility.yul\":11147:11157   */\n      0x00\n        /* \"#utility.yul\":11182:11268   */\n      tag_484\n        /* \"#utility.yul\":11264:11267   */\n      dup4\n        /* \"#utility.yul\":11256:11262   */\n      dup4\n        /* \"#utility.yul\":11182:11268   */\n      tag_323\n      jump\t// in\n    tag_484:\n        /* \"#utility.yul\":11168:11268   */\n      swap1\n      pop\n        /* \"#utility.yul\":11038:11274   */\n      swap3\n      swap2\n      pop\n      pop\n      jump\t// out\n        /* \"#utility.yul\":11280:11413   */\n    tag_325:\n        /* \"#utility.yul\":11370:11374   */\n      0x00\n        /* \"#utility.yul\":11402:11406   */\n      0x20\n        /* \"#utility.yul\":11397:11400   */\n      dup3\n        /* \"#utility.yul\":11393:11407   */\n      add\n        /* \"#utility.yul\":11385:11407   */\n      swap1\n      pop\n        /* \"#utility.yul\":11280:11413   */\n      swap2\n      swap1\n      pop\n      jump\t// out\n        /* \"#utility.yul\":11483:12554   */\n    tag_326:\n        /* \"#utility.yul\":11642:11645   */\n      0x00\n        /* \"#utility.yul\":11671:11745   */\n      tag_487\n        /* \"#utility.yul\":11739:11744   */\n      dup3\n        /* \"#utility.yul\":11671:11745   */\n      tag_317\n      jump\t// in\n    tag_487:\n        /* \"#utility.yul\":11761:11867   */\n      tag_488\n        /* \"#utility.yul\":11860:11866   */\n      dup2\n        /* \"#utility.yul\":11855:11858   */\n      dup6\n        /* \"#utility.yul\":11761:11867   */\n      tag_318\n      jump\t// in\n    tag_488:\n        /* \"#utility.yul\":11754:11867   */\n      swap4\n      pop\n        /* \"#utility.yul\":11893:11896   */\n      dup4\n        /* \"#utility.yul\":11938:11942   */\n      0x20\n        /* \"#utility.yul\":11930:11936   */\n      dup3\n        /* \"#utility.yul\":11926:11943   */\n      mul\n        /* \"#utility.yul\":11921:11924   */\n      dup6\n        /* \"#utility.yul\":11917:11944   */\n      add\n        /* \"#utility.yul\":11968:12044   */\n      tag_489\n        /* \"#utility.yul\":12038:12043   */\n      dup6\n        /* \"#utility.yul\":11968:12044   */\n      tag_319\n      jump\t// in\n    tag_489:\n        /* \"#utility.yul\":12067:12074   */\n      dup1\n        /* \"#utility.yul\":12098:12099   */\n      0x00\n        /* \"#utility.yul\":12083:12509   */\n    tag_490:\n        /* \"#utility.yul\":12108:12114   */\n      dup6\n        /* \"#utility.yul\":12105:12106   */\n      dup2\n        /* \"#utility.yul\":12102:12115   */\n      lt\n        /* \"#utility.yul\":12083:12509   */\n      iszero\n      tag_492\n      jumpi\n        /* \"#utility.yul\":12179:12188   */\n      dup5\n        /* \"#utility.yul\":12173:12177   */\n      dup5\n        /* \"#utility.yul\":12169:12189   */\n      sub\n        /* \"#utility.yul\":12164:12167   */\n      dup10\n        /* \"#utility.yul\":12157:12190   */\n      mstore\n        /* \"#utility.yul\":12230:12236   */\n      dup2\n        /* \"#utility.yul\":12224:12237   */\n      mload\n        /* \"#utility.yul\":12258:12362   */\n      tag_493\n        /* \"#utility.yul\":12357:12361   */\n      dup6\n        /* \"#utility.yul\":12342:12355   */\n      dup3\n        /* \"#utility.yul\":12258:12362   */\n      tag_324\n      jump\t// in\n    tag_493:\n        /* \"#utility.yul\":12250:12362   */\n      swap5\n      pop\n        /* \"#utility.yul\":12385:12465   */\n      tag_494\n        /* \"#utility.yul\":12458:12464   */\n      dup4\n        /* \"#utility.yul\":12385:12465   */\n      tag_325\n      jump\t// in\n    tag_494:\n        /* \"#utility.yul\":12375:12465   */\n      swap3\n      pop\n        /* \"#utility.yul\":12494:12498   */\n      0x20\n        /* \"#utility.yul\":12489:12492   */\n      dup11\n        /* \"#utility.yul\":12485:12499   */\n      add\n        /* \"#utility.yul\":12478:12499   */\n      swap10\n      pop\n        /* \"#utility.yul\":12143:12509   */\n      pop\n        /* \"#utility.yul\":12130:12131   */\n      0x01\n        /* \"#utility.yul\":12127:12128   */\n      dup2\n        /* \"#utility.yul\":12123:12132   */\n      add\n        /* \"#utility.yul\":12118:12132   */\n      swap1\n      pop\n        /* \"#utility.yul\":12083:12509   */\n      jump(tag_490)\n    tag_492:\n        /* \"#utility.yul\":12087:12101   */\n      pop\n        /* \"#utility.yul\":12525:12529   */\n      dup3\n        /* \"#utility.yul\":12518:12529   */\n      swap8\n      pop\n        /* \"#utility.yul\":12545:12548   */\n      dup8\n        /* \"#utility.yul\":12538:12548   */\n      swap6\n      pop\n        /* \"#utility.yul\":11647:12554   */\n      pop\n      pop\n      pop\n      pop\n      pop\n        /* \"#utility.yul\":11483:12554   */\n      swap3\n      swap2\n      pop\n      pop\n      jump\t// out\n        /* \"#utility.yul\":12560:13013   */\n    tag_114:\n        /* \"#utility.yul\":12743:12747   */\n      0x00\n        /* \"#utility.yul\":12781:12783   */\n      0x20\n        /* \"#utility.yul\":12770:12779   */\n      dup3\n        /* \"#utility.yul\":12766:12784   */\n      add\n        /* \"#utility.yul\":12758:12784   */\n      swap1\n      pop\n        /* \"#utility.yul\":12830:12839   */\n      dup2\n        /* \"#utility.yul\":12824:12828   */\n      dup2\n        /* \"#utility.yul\":12820:12840   */\n      sub\n        /* \"#utility.yul\":12816:12817   */\n      0x00\n        /* \"#utility.yul\":12805:12814   */\n      dup4\n        /* \"#utility.yul\":12801:12818   */\n      add\n        /* \"#utility.yul\":12794:12841   */\n      mstore\n        /* \"#utility.yul\":12858:13006   */\n      tag_496\n        /* \"#utility.yul\":13001:13005   */\n      dup2\n        /* \"#utility.yul\":12992:12998   */\n      dup5\n        /* \"#utility.yul\":12858:13006   */\n      tag_326\n      jump\t// in\n    tag_496:\n        /* \"#utility.yul\":12850:13006   */\n      swap1\n      pop\n        /* \"#utility.yul\":12560:13013   */\n      swap3\n      swap2\n      pop\n      pop\n      jump\t// out\n        /* \"#utility.yul\":13019:13199   */\n    tag_327:\n        /* \"#utility.yul\":13067:13144   */\n      0x4e487b7100000000000000000000000000000000000000000000000000000000\n        /* \"#utility.yul\":13064:13065   */\n      0x00\n        /* \"#utility.yul\":13057:13145   */\n      mstore\n        /* \"#utility.yul\":13164:13168   */\n      0x22\n        /* \"#utility.yul\":13161:13162   */\n      0x04\n        /* \"#utility.yul\":13154:13169   */\n      mstore\n        /* \"#utility.yul\":13188:13192   */\n      0x24\n        /* \"#utility.yul\":13185:13186   */\n      0x00\n        /* \"#utility.yul\":13178:13193   */\n      revert\n        /* \"#utility.yul\":13205:13525   */\n    tag_118:\n        /* \"#utility.yul\":13249:13255   */\n      0x00\n        /* \"#utility.yul\":13286:13287   */\n      0x02\n        /* \"#utility.yul\":13280:13284   */\n      dup3\n        /* \"#utility.yul\":13276:13288   */\n      div\n        /* \"#utility.yul\":13266:13288   */\n      swap1\n      pop\n        /* \"#utility.yul\":13333:13334   */\n      0x01\n        /* \"#utility.yul\":13327:13331   */\n      dup3\n        /* \"#utility.yul\":13323:13335   */\n      and\n        /* \"#utility.yul\":13354:13372   */\n      dup1\n        /* \"#utility.yul\":13344:13425   */\n      tag_499\n      jumpi\n        /* \"#utility.yul\":13410:13414   */\n      0x7f\n        /* \"#utility.yul\":13402:13408   */\n      dup3\n        /* \"#utility.yul\":13398:13415   */\n      and\n        /* \"#utility.yul\":13388:13415   */\n      swap2\n      pop\n        /* \"#utility.yul\":13344:13425   */\n    tag_499:\n        /* \"#utility.yul\":13472:13474   */\n      0x20\n        /* \"#utility.yul\":13464:13470   */\n      dup3\n        /* \"#utility.yul\":13461:13475   */\n      lt\n        /* \"#utility.yul\":13441:13459   */\n      dup2\n        /* \"#utility.yul\":13438:13476   */\n      sub\n        /* \"#utility.yul\":13435:13519   */\n      tag_500\n      jumpi\n        /* \"#utility.yul\":13491:13509   */\n      tag_501\n      tag_327\n      jump\t// in\n    tag_501:\n        /* \"#utility.yul\":13435:13519   */\n    tag_500:\n        /* \"#utility.yul\":13256:13525   */\n      pop\n        /* \"#utility.yul\":13205:13525   */\n      swap2\n      swap1\n      pop\n      jump\t// out\n        /* \"#utility.yul\":13531:13694   */\n    tag_328:\n        /* \"#utility.yul\":13671:13686   */\n      0x4e6f7420746865206f776e657200000000000000000000000000000000000000\n        /* \"#utility.yul\":13667:13668   */\n      0x00\n        /* \"#utility.yul\":13659:13665   */\n      dup3\n        /* \"#utility.yul\":13655:13669   */\n      add\n        /* \"#utility.yul\":13648:13687   */\n      mstore\n        /* \"#utility.yul\":13531:13694   */\n      pop\n      jump\t// out\n        /* \"#utility.yul\":13700:14066   */\n    tag_329:\n        /* \"#utility.yul\":13842:13845   */\n      0x00\n        /* \"#utility.yul\":13863:13930   */\n      tag_504\n        /* \"#utility.yul\":13927:13929   */\n      0x0d\n        /* \"#utility.yul\":13922:13925   */\n      dup4\n        /* \"#utility.yul\":13863:13930   */\n      tag_292\n      jump\t// in\n    tag_504:\n        /* \"#utility.yul\":13856:13930   */\n      swap2\n      pop\n        /* \"#utility.yul\":13939:14032   */\n      tag_505\n        /* \"#utility.yul\":14028:14031   */\n      dup3\n        /* \"#utility.yul\":13939:14032   */\n      tag_328\n      jump\t// in\n    tag_505:\n        /* \"#utility.yul\":14057:14059   */\n      0x20\n        /* \"#utility.yul\":14052:14055   */\n      dup3\n        /* \"#utility.yul\":14048:14060   */\n      add\n        /* \"#utility.yul\":14041:14060   */\n      swap1\n      pop\n        /* \"#utility.yul\":13700:14066   */\n      swap2\n      swap1\n      pop\n      jump\t// out\n        /* \"#utility.yul\":14072:14491   */\n    tag_141:\n        /* \"#utility.yul\":14238:14242   */\n      0x00\n        /* \"#utility.yul\":14276:14278   */\n      0x20\n        /* \"#utility.yul\":14265:14274   */\n      dup3\n        /* \"#utility.yul\":14261:14279   */\n      add\n        /* \"#utility.yul\":14253:14279   */\n      swap1\n      pop\n        /* \"#utility.yul\":14325:14334   */\n      dup2\n        /* \"#utility.yul\":14319:14323   */\n      dup2\n        /* \"#utility.yul\":14315:14335   */\n      sub\n        /* \"#utility.yul\":14311:14312   */\n      0x00\n        /* \"#utility.yul\":14300:14309   */\n      dup4\n        /* \"#utility.yul\":14296:14313   */\n      add\n        /* \"#utility.yul\":14289:14336   */\n      mstore\n        /* \"#utility.yul\":14353:14484   */\n      tag_507\n        /* \"#utility.yul\":14479:14483   */\n      dup2\n        /* \"#utility.yul\":14353:14484   */\n      tag_329\n      jump\t// in\n    tag_507:\n        /* \"#utility.yul\":14345:14484   */\n      swap1\n      pop\n        /* \"#utility.yul\":14072:14491   */\n      swap2\n      swap1\n      pop\n      jump\t// out\n        /* \"#utility.yul\":14497:14669   */\n    tag_330:\n        /* \"#utility.yul\":14637:14661   */\n      0x43616d706961676e206973206e6f742061637469766500000000000000000000\n        /* \"#utility.yul\":14633:14634   */\n      0x00\n        /* \"#utility.yul\":14625:14631   */\n      dup3\n        /* \"#utility.yul\":14621:14635   */\n      add\n        /* \"#utility.yul\":14614:14662   */\n      mstore\n        /* \"#utility.yul\":14497:14669   */\n      pop\n      jump\t// out\n        /* \"#utility.yul\":14675:15041   */\n    tag_331:\n        /* \"#utility.yul\":14817:14820   */\n      0x00\n        /* \"#utility.yul\":14838:14905   */\n      tag_510\n        /* \"#utility.yul\":14902:14904   */\n      0x16\n        /* \"#utility.yul\":14897:14900   */\n      dup4\n        /* \"#utility.yul\":14838:14905   */\n      tag_292\n      jump\t// in\n    tag_510:\n        /* \"#utility.yul\":14831:14905   */\n      swap2\n      pop\n        /* \"#utility.yul\":14914:15007   */\n      tag_511\n        /* \"#utility.yul\":15003:15006   */\n      dup3\n        /* \"#utility.yul\":14914:15007   */\n      tag_330\n      jump\t// in\n    tag_511:\n        /* \"#utility.yul\":15032:15034   */\n      0x20\n        /* \"#utility.yul\":15027:15030   */\n      dup3\n        /* \"#utility.yul\":15023:15035   */\n      add\n        /* \"#utility.yul\":15016:15035   */\n      swap1\n      pop\n        /* \"#utility.yul\":14675:15041   */\n      swap2\n      swap1\n      pop\n      jump\t// out\n        /* \"#utility.yul\":15047:15466   */\n    tag_149:\n        /* \"#utility.yul\":15213:15217   */\n      0x00\n        /* \"#utility.yul\":15251:15253   */\n      0x20\n        /* \"#utility.yul\":15240:15249   */\n      dup3\n        /* \"#utility.yul\":15236:15254   */\n      add\n        /* \"#utility.yul\":15228:15254   */\n      swap1\n      pop\n        /* \"#utility.yul\":15300:15309   */\n      dup2\n        /* \"#utility.yul\":15294:15298   */\n      dup2\n        /* \"#utility.yul\":15290:15310   */\n      sub\n        /* \"#utility.yul\":15286:15287   */\n      0x00\n        /* \"#utility.yul\":15275:15284   */\n      dup4\n        /* \"#utility.yul\":15271:15288   */\n      add\n        /* \"#utility.yul\":15264:15311   */\n      mstore\n        /* \"#utility.yul\":15328:15459   */\n      tag_513\n        /* \"#utility.yul\":15454:15458   */\n      dup2\n        /* \"#utility.yul\":15328:15459   */\n      tag_331\n      jump\t// in\n    tag_513:\n        /* \"#utility.yul\":15320:15459   */\n      swap1\n      pop\n        /* \"#utility.yul\":15047:15466   */\n      swap2\n      swap1\n      pop\n      jump\t// out\n        /* \"#utility.yul\":15472:15652   */\n    tag_332:\n        /* \"#utility.yul\":15520:15597   */\n      0x4e487b7100000000000000000000000000000000000000000000000000000000\n        /* \"#utility.yul\":15517:15518   */\n      0x00\n        /* \"#utility.yul\":15510:15598   */\n      mstore\n        /* \"#utility.yul\":15617:15621   */\n      0x11\n        /* \"#utility.yul\":15614:15615   */\n      0x04\n        /* \"#utility.yul\":15607:15622   */\n      mstore\n        /* \"#utility.yul\":15641:15645   */\n      0x24\n        /* \"#utility.yul\":15638:15639   */\n      0x00\n        /* \"#utility.yul\":15631:15646   */\n      revert\n        /* \"#utility.yul\":15658:16068   */\n    tag_152:\n        /* \"#utility.yul\":15698:15705   */\n      0x00\n        /* \"#utility.yul\":15721:15741   */\n      tag_516\n        /* \"#utility.yul\":15739:15740   */\n      dup3\n        /* \"#utility.yul\":15721:15741   */\n      tag_288\n      jump\t// in\n    tag_516:\n        /* \"#utility.yul\":15716:15741   */\n      swap2\n      pop\n        /* \"#utility.yul\":15755:15775   */\n      tag_517\n        /* \"#utility.yul\":15773:15774   */\n      dup4\n        /* \"#utility.yul\":15755:15775   */\n      tag_288\n      jump\t// in\n    tag_517:\n        /* \"#utility.yul\":15750:15775   */\n      swap3\n      pop\n        /* \"#utility.yul\":15810:15811   */\n      dup3\n        /* \"#utility.yul\":15807:15808   */\n      dup3\n        /* \"#utility.yul\":15803:15812   */\n      mul\n        /* \"#utility.yul\":15832:15862   */\n      tag_518\n        /* \"#utility.yul\":15850:15861   */\n      dup2\n        /* \"#utility.yul\":15832:15862   */\n      tag_288\n      jump\t// in\n    tag_518:\n        /* \"#utility.yul\":15821:15862   */\n      swap2\n      pop\n        /* \"#utility.yul\":16011:16012   */\n      dup3\n        /* \"#utility.yul\":16002:16009   */\n      dup3\n        /* \"#utility.yul\":15998:16013   */\n      div\n        /* \"#utility.yul\":15995:15996   */\n      dup5\n        /* \"#utility.yul\":15992:16014   */\n      eq\n        /* \"#utility.yul\":15972:15973   */\n      dup4\n        /* \"#utility.yul\":15965:15974   */\n      iszero\n        /* \"#utility.yul\":15945:16028   */\n      or\n        /* \"#utility.yul\":15922:16061   */\n      tag_519\n      jumpi\n        /* \"#utility.yul\":16041:16059   */\n      tag_520\n      tag_332\n      jump\t// in\n    tag_520:\n        /* \"#utility.yul\":15922:16061   */\n    tag_519:\n        /* \"#utility.yul\":15706:16068   */\n      pop\n        /* \"#utility.yul\":15658:16068   */\n      swap3\n      swap2\n      pop\n      pop\n      jump\t// out\n        /* \"#utility.yul\":16074:16265   */\n    tag_154:\n        /* \"#utility.yul\":16114:16117   */\n      0x00\n        /* \"#utility.yul\":16133:16153   */\n      tag_522\n        /* \"#utility.yul\":16151:16152   */\n      dup3\n        /* \"#utility.yul\":16133:16153   */\n      tag_288\n      jump\t// in\n    tag_522:\n        /* \"#utility.yul\":16128:16153   */\n      swap2\n      pop\n        /* \"#utility.yul\":16167:16187   */\n      tag_523\n        /* \"#utility.yul\":16185:16186   */\n      dup4\n        /* \"#utility.yul\":16167:16187   */\n      tag_288\n      jump\t// in\n    tag_523:\n        /* \"#utility.yul\":16162:16187   */\n      swap3\n      pop\n        /* \"#utility.yul\":16210:16211   */\n      dup3\n        /* \"#utility.yul\":16207:16208   */\n      dup3\n        /* \"#utility.yul\":16203:16212   */\n      add\n        /* \"#utility.yul\":16196:16212   */\n      swap1\n      pop\n        /* \"#utility.yul\":16231:16234   */\n      dup1\n        /* \"#utility.yul\":16228:16229   */\n      dup3\n        /* \"#utility.yul\":16225:16235   */\n      gt\n        /* \"#utility.yul\":16222:16258   */\n      iszero\n      tag_524\n      jumpi\n        /* \"#utility.yul\":16238:16256   */\n      tag_525\n      tag_332\n      jump\t// in\n    tag_525:\n        /* \"#utility.yul\":16222:16258   */\n    tag_524:\n        /* \"#utility.yul\":16074:16265   */\n      swap3\n      swap2\n      pop\n      pop\n      jump\t// out\n        /* \"#utility.yul\":16271:16448   */\n    tag_333:\n        /* \"#utility.yul\":16411:16440   */\n      0x43616d706169676e206e6f207375636365737366756c207965742e0000000000\n        /* \"#utility.yul\":16407:16408   */\n      0x00\n        /* \"#utility.yul\":16399:16405   */\n      dup3\n        /* \"#utility.yul\":16395:16409   */\n      add\n        /* \"#utility.yul\":16388:16441   */\n      mstore\n        /* \"#utility.yul\":16271:16448   */\n      pop\n      jump\t// out\n        /* \"#utility.yul\":16454:16820   */\n    tag_334:\n        /* \"#utility.yul\":16596:16599   */\n      0x00\n        /* \"#utility.yul\":16617:16684   */\n      tag_528\n        /* \"#utility.yul\":16681:16683   */\n      0x1b\n        /* \"#utility.yul\":16676:16679   */\n      dup4\n        /* \"#utility.yul\":16617:16684   */\n      tag_292\n      jump\t// in\n    tag_528:\n        /* \"#utility.yul\":16610:16684   */\n      swap2\n      pop\n        /* \"#utility.yul\":16693:16786   */\n      tag_529\n        /* \"#utility.yul\":16782:16785   */\n      dup3\n        /* \"#utility.yul\":16693:16786   */\n      tag_333\n      jump\t// in\n    tag_529:\n        /* \"#utility.yul\":16811:16813   */\n      0x20\n        /* \"#utility.yul\":16806:16809   */\n      dup3\n        /* \"#utility.yul\":16802:16814   */\n      add\n        /* \"#utility.yul\":16795:16814   */\n      swap1\n      pop\n        /* \"#utility.yul\":16454:16820   */\n      swap2\n      swap1\n      pop\n      jump\t// out\n        /* \"#utility.yul\":16826:17245   */\n    tag_167:\n        /* \"#utility.yul\":16992:16996   */\n      0x00\n        /* \"#utility.yul\":17030:17032   */\n      0x20\n        /* \"#utility.yul\":17019:17028   */\n      dup3\n        /* \"#utility.yul\":17015:17033   */\n      add\n        /* \"#utility.yul\":17007:17033   */\n      swap1\n      pop\n        /* \"#utility.yul\":17079:17088   */\n      dup2\n        /* \"#utility.yul\":17073:17077   */\n      dup2\n        /* \"#utility.yul\":17069:17089   */\n      sub\n        /* \"#utility.yul\":17065:17066   */\n      0x00\n        /* \"#utility.yul\":17054:17063   */\n      dup4\n        /* \"#utility.yul\":17050:17067   */\n      add\n        /* \"#utility.yul\":17043:17090   */\n      mstore\n        /* \"#utility.yul\":17107:17238   */\n      tag_531\n        /* \"#utility.yul\":17233:17237   */\n      dup2\n        /* \"#utility.yul\":17107:17238   */\n      tag_334\n      jump\t// in\n    tag_531:\n        /* \"#utility.yul\":17099:17238   */\n      swap1\n      pop\n        /* \"#utility.yul\":16826:17245   */\n      swap2\n      swap1\n      pop\n      jump\t// out\n        /* \"#utility.yul\":17251:17423   */\n    tag_335:\n        /* \"#utility.yul\":17391:17415   */\n      0x4e6f2062616c616e636520746f20776974686472617700000000000000000000\n        /* \"#utility.yul\":17387:17388   */\n      0x00\n        /* \"#utility.yul\":17379:17385   */\n      dup3\n        /* \"#utility.yul\":17375:17389   */\n      add\n        /* \"#utility.yul\":17368:17416   */\n      mstore\n        /* \"#utility.yul\":17251:17423   */\n      pop\n      jump\t// out\n        /* \"#utility.yul\":17429:17795   */\n    tag_336:\n        /* \"#utility.yul\":17571:17574   */\n      0x00\n        /* \"#utility.yul\":17592:17659   */\n      tag_534\n        /* \"#utility.yul\":17656:17658   */\n      0x16\n        /* \"#utility.yul\":17651:17654   */\n      dup4\n        /* \"#utility.yul\":17592:17659   */\n      tag_292\n      jump\t// in\n    tag_534:\n        /* \"#utility.yul\":17585:17659   */\n      swap2\n      pop\n        /* \"#utility.yul\":17668:17761   */\n      tag_535\n        /* \"#utility.yul\":17757:17760   */\n      dup3\n        /* \"#utility.yul\":17668:17761   */\n      tag_335\n      jump\t// in\n    tag_535:\n        /* \"#utility.yul\":17786:17788   */\n      0x20\n        /* \"#utility.yul\":17781:17784   */\n      dup3\n        /* \"#utility.yul\":17777:17789   */\n      add\n        /* \"#utility.yul\":17770:17789   */\n      swap1\n      pop\n        /* \"#utility.yul\":17429:17795   */\n      swap2\n      swap1\n      pop\n      jump\t// out\n        /* \"#utility.yul\":17801:18220   */\n    tag_170:\n        /* \"#utility.yul\":17967:17971   */\n      0x00\n        /* \"#utility.yul\":18005:18007   */\n      0x20\n        /* \"#utility.yul\":17994:18003   */\n      dup3\n        /* \"#utility.yul\":17990:18008   */\n      add\n        /* \"#utility.yul\":17982:18008   */\n      swap1\n      pop\n        /* \"#utility.yul\":18054:18063   */\n      dup2\n        /* \"#utility.yul\":18048:18052   */\n      dup2\n        /* \"#utility.yul\":18044:18064   */\n      sub\n        /* \"#utility.yul\":18040:18041   */\n      0x00\n        /* \"#utility.yul\":18029:18038   */\n      dup4\n        /* \"#utility.yul\":18025:18042   */\n      add\n        /* \"#utility.yul\":18018:18065   */\n      mstore\n        /* \"#utility.yul\":18082:18213   */\n      tag_537\n        /* \"#utility.yul\":18208:18212   */\n      dup2\n        /* \"#utility.yul\":18082:18213   */\n      tag_336\n      jump\t// in\n    tag_537:\n        /* \"#utility.yul\":18074:18213   */\n      swap1\n      pop\n        /* \"#utility.yul\":17801:18220   */\n      swap2\n      swap1\n      pop\n      jump\t// out\n        /* \"#utility.yul\":18226:18401   */\n    tag_337:\n        /* \"#utility.yul\":18366:18393   */\n      0x4e6f20636f6e747269627574696f6e20746f20726566756e6400000000000000\n        /* \"#utility.yul\":18362:18363   */\n      0x00\n        /* \"#utility.yul\":18354:18360   */\n      dup3\n        /* \"#utility.yul\":18350:18364   */\n      add\n        /* \"#utility.yul\":18343:18394   */\n      mstore\n        /* \"#utility.yul\":18226:18401   */\n      pop\n      jump\t// out\n        /* \"#utility.yul\":18407:18773   */\n    tag_338:\n        /* \"#utility.yul\":18549:18552   */\n      0x00\n        /* \"#utility.yul\":18570:18637   */\n      tag_540\n        /* \"#utility.yul\":18634:18636   */\n      0x19\n        /* \"#utility.yul\":18629:18632   */\n      dup4\n        /* \"#utility.yul\":18570:18637   */\n      tag_292\n      jump\t// in\n    tag_540:\n        /* \"#utility.yul\":18563:18637   */\n      swap2\n      pop\n        /* \"#utility.yul\":18646:18739   */\n      tag_541\n        /* \"#utility.yul\":18735:18738   */\n      dup3\n        /* \"#utility.yul\":18646:18739   */\n      tag_337\n      jump\t// in\n    tag_541:\n        /* \"#utility.yul\":18764:18766   */\n      0x20\n        /* \"#utility.yul\":18759:18762   */\n      dup3\n        /* \"#utility.yul\":18755:18767   */\n      add\n        /* \"#utility.yul\":18748:18767   */\n      swap1\n      pop\n        /* \"#utility.yul\":18407:18773   */\n      swap2\n      swap1\n      pop\n      jump\t// out\n        /* \"#utility.yul\":18779:19198   */\n    tag_177:\n        /* \"#utility.yul\":18945:18949   */\n      0x00\n        /* \"#utility.yul\":18983:18985   */\n      0x20\n        /* \"#utility.yul\":18972:18981   */\n      dup3\n        /* \"#utility.yul\":18968:18986   */\n      add\n        /* \"#utility.yul\":18960:18986   */\n      swap1\n      pop\n        /* \"#utility.yul\":19032:19041   */\n      dup2\n        /* \"#utility.yul\":19026:19030   */\n      dup2\n        /* \"#utility.yul\":19022:19042   */\n      sub\n        /* \"#utility.yul\":19018:19019   */\n      0x00\n        /* \"#utility.yul\":19007:19016   */\n      dup4\n        /* \"#utility.yul\":19003:19020   */\n      add\n        /* \"#utility.yul\":18996:19043   */\n      mstore\n        /* \"#utility.yul\":19060:19191   */\n      tag_543\n        /* \"#utility.yul\":19186:19190   */\n      dup2\n        /* \"#utility.yul\":19060:19191   */\n      tag_338\n      jump\t// in\n    tag_543:\n        /* \"#utility.yul\":19052:19191   */\n      swap1\n      pop\n        /* \"#utility.yul\":18779:19198   */\n      swap2\n      swap1\n      pop\n      jump\t// out\n        /* \"#utility.yul\":19204:19373   */\n    tag_339:\n        /* \"#utility.yul\":19344:19365   */\n      0x5469657220646f6573206e6f7420657869737400000000000000000000000000\n        /* \"#utility.yul\":19340:19341   */\n      0x00\n        /* \"#utility.yul\":19332:19338   */\n      dup3\n        /* \"#utility.yul\":19328:19342   */\n      add\n        /* \"#utility.yul\":19321:19366   */\n      mstore\n        /* \"#utility.yul\":19204:19373   */\n      pop\n      jump\t// out\n        /* \"#utility.yul\":19379:19745   */\n    tag_340:\n        /* \"#utility.yul\":19521:19524   */\n      0x00\n        /* \"#utility.yul\":19542:19609   */\n      tag_546\n        /* \"#utility.yul\":19606:19608   */\n      0x13\n        /* \"#utility.yul\":19601:19604   */\n      dup4\n        /* \"#utility.yul\":19542:19609   */\n      tag_292\n      jump\t// in\n    tag_546:\n        /* \"#utility.yul\":19535:19609   */\n      swap2\n      pop\n        /* \"#utility.yul\":19618:19711   */\n      tag_547\n        /* \"#utility.yul\":19707:19710   */\n      dup3\n        /* \"#utility.yul\":19618:19711   */\n      tag_339\n      jump\t// in\n    tag_547:\n        /* \"#utility.yul\":19736:19738   */\n      0x20\n        /* \"#utility.yul\":19731:19734   */\n      dup3\n        /* \"#utility.yul\":19727:19739   */\n      add\n        /* \"#utility.yul\":19720:19739   */\n      swap1\n      pop\n        /* \"#utility.yul\":19379:19745   */\n      swap2\n      swap1\n      pop\n      jump\t// out\n        /* \"#utility.yul\":19751:20170   */\n    tag_192:\n        /* \"#utility.yul\":19917:19921   */\n      0x00\n        /* \"#utility.yul\":19955:19957   */\n      0x20\n        /* \"#utility.yul\":19944:19953   */\n      dup3\n        /* \"#utility.yul\":19940:19958   */\n      add\n        /* \"#utility.yul\":19932:19958   */\n      swap1\n      pop\n        /* \"#utility.yul\":20004:20013   */\n      dup2\n        /* \"#utility.yul\":19998:20002   */\n      dup2\n        /* \"#utility.yul\":19994:20014   */\n      sub\n        /* \"#utility.yul\":19990:19991   */\n      0x00\n        /* \"#utility.yul\":19979:19988   */\n      dup4\n        /* \"#utility.yul\":19975:19992   */\n      add\n        /* \"#utility.yul\":19968:20015   */\n      mstore\n        /* \"#utility.yul\":20032:20163   */\n      tag_549\n        /* \"#utility.yul\":20158:20162   */\n      dup2\n        /* \"#utility.yul\":20032:20163   */\n      tag_340\n      jump\t// in\n    tag_549:\n        /* \"#utility.yul\":20024:20163   */\n      swap1\n      pop\n        /* \"#utility.yul\":19751:20170   */\n      swap2\n      swap1\n      pop\n      jump\t// out\n        /* \"#utility.yul\":20176:20370   */\n    tag_194:\n        /* \"#utility.yul\":20216:20220   */\n      0x00\n        /* \"#utility.yul\":20236:20256   */\n      tag_551\n        /* \"#utility.yul\":20254:20255   */\n      dup3\n        /* \"#utility.yul\":20236:20256   */\n      tag_288\n      jump\t// in\n    tag_551:\n        /* \"#utility.yul\":20231:20256   */\n      swap2\n      pop\n        /* \"#utility.yul\":20270:20290   */\n      tag_552\n        /* \"#utility.yul\":20288:20289   */\n      dup4\n        /* \"#utility.yul\":20270:20290   */\n      tag_288\n      jump\t// in\n    tag_552:\n        /* \"#utility.yul\":20265:20290   */\n      swap3\n      pop\n        /* \"#utility.yul\":20314:20315   */\n      dup3\n        /* \"#utility.yul\":20311:20312   */\n      dup3\n        /* \"#utility.yul\":20307:20316   */\n      sub\n        /* \"#utility.yul\":20299:20316   */\n      swap1\n      pop\n        /* \"#utility.yul\":20338:20339   */\n      dup2\n        /* \"#utility.yul\":20332:20336   */\n      dup2\n        /* \"#utility.yul\":20329:20340   */\n      gt\n        /* \"#utility.yul\":20326:20363   */\n      iszero\n      tag_553\n      jumpi\n        /* \"#utility.yul\":20343:20361   */\n      tag_554\n      tag_332\n      jump\t// in\n    tag_554:\n        /* \"#utility.yul\":20326:20363   */\n    tag_553:\n        /* \"#utility.yul\":20176:20370   */\n      swap3\n      swap2\n      pop\n      pop\n      jump\t// out\n        /* \"#utility.yul\":20376:20556   */\n    tag_197:\n        /* \"#utility.yul\":20424:20501   */\n      0x4e487b7100000000000000000000000000000000000000000000000000000000\n        /* \"#utility.yul\":20421:20422   */\n      0x00\n        /* \"#utility.yul\":20414:20502   */\n      mstore\n        /* \"#utility.yul\":20521:20525   */\n      0x32\n        /* \"#utility.yul\":20518:20519   */\n      0x04\n        /* \"#utility.yul\":20511:20526   */\n      mstore\n        /* \"#utility.yul\":20545:20549   */\n      0x24\n        /* \"#utility.yul\":20542:20543   */\n      0x00\n        /* \"#utility.yul\":20535:20550   */\n      revert\n        /* \"#utility.yul\":20562:20711   */\n    tag_341:\n        /* \"#utility.yul\":20611:20617   */\n      0x00\n        /* \"#utility.yul\":20645:20650   */\n      dup2\n        /* \"#utility.yul\":20639:20651   */\n      sload\n        /* \"#utility.yul\":20629:20651   */\n      swap1\n      pop\n        /* \"#utility.yul\":20671:20704   */\n      tag_557\n        /* \"#utility.yul\":20697:20703   */\n      dup2\n        /* \"#utility.yul\":20671:20704   */\n      tag_118\n      jump\t// in\n    tag_557:\n        /* \"#utility.yul\":20661:20704   */\n      swap1\n      pop\n        /* \"#utility.yul\":20562:20711   */\n      swap2\n      swap1\n      pop\n      jump\t// out\n        /* \"#utility.yul\":20717:20858   */\n    tag_342:\n        /* \"#utility.yul\":20766:20770   */\n      0x00\n        /* \"#utility.yul\":20789:20792   */\n      dup2\n        /* \"#utility.yul\":20781:20792   */\n      swap1\n      pop\n        /* \"#utility.yul\":20812:20815   */\n      dup2\n        /* \"#utility.yul\":20809:20810   */\n      0x00\n        /* \"#utility.yul\":20802:20816   */\n      mstore\n        /* \"#utility.yul\":20846:20850   */\n      0x20\n        /* \"#utility.yul\":20843:20844   */\n      0x00\n        /* \"#utility.yul\":20833:20851   */\n      keccak256\n        /* \"#utility.yul\":20825:20851   */\n      swap1\n      pop\n        /* \"#utility.yul\":20717:20858   */\n      swap2\n      swap1\n      pop\n      jump\t// out\n        /* \"#utility.yul\":20864:20957   */\n    tag_343:\n        /* \"#utility.yul\":20901:20907   */\n      0x00\n        /* \"#utility.yul\":20948:20950   */\n      0x20\n        /* \"#utility.yul\":20943:20945   */\n      0x1f\n        /* \"#utility.yul\":20936:20941   */\n      dup4\n        /* \"#utility.yul\":20932:20946   */\n      add\n        /* \"#utility.yul\":20928:20951   */\n      div\n        /* \"#utility.yul\":20918:20951   */\n      swap1\n      pop\n        /* \"#utility.yul\":20864:20957   */\n      swap2\n      swap1\n      pop\n      jump\t// out\n        /* \"#utility.yul\":20963:21070   */\n    tag_344:\n        /* \"#utility.yul\":21007:21015   */\n      0x00\n        /* \"#utility.yul\":21057:21062   */\n      dup3\n        /* \"#utility.yul\":21051:21055   */\n      dup3\n        /* \"#utility.yul\":21047:21063   */\n      shl\n        /* \"#utility.yul\":21026:21063   */\n      swap1\n      pop\n        /* \"#utility.yul\":20963:21070   */\n      swap3\n      swap2\n      pop\n      pop\n      jump\t// out\n        /* \"#utility.yul\":21076:21469   */\n    tag_345:\n        /* \"#utility.yul\":21145:21151   */\n      0x00\n        /* \"#utility.yul\":21195:21196   */\n      0x08\n        /* \"#utility.yul\":21183:21193   */\n      dup4\n        /* \"#utility.yul\":21179:21197   */\n      mul\n        /* \"#utility.yul\":21218:21315   */\n      tag_562\n        /* \"#utility.yul\":21248:21314   */\n      0xffffffffffffffffffffffffffffffffffffffffffffffffffffffffffffffff\n        /* \"#utility.yul\":21237:21246   */\n      dup3\n        /* \"#utility.yul\":21218:21315   */\n      tag_344\n      jump\t// in\n    tag_562:\n        /* \"#utility.yul\":21336:21375   */\n      tag_563\n        /* \"#utility.yul\":21366:21374   */\n      dup7\n        /* \"#utility.yul\":21355:21364   */\n      dup4\n        /* \"#utility.yul\":21336:21375   */\n      tag_344\n      jump\t// in\n    tag_563:\n        /* \"#utility.yul\":21324:21375   */\n      swap6\n      pop\n        /* \"#utility.yul\":21408:21412   */\n      dup1\n        /* \"#utility.yul\":21404:21413   */\n      not\n        /* \"#utility.yul\":21397:21402   */\n      dup5\n        /* \"#utility.yul\":21393:21414   */\n      and\n        /* \"#utility.yul\":21384:21414   */\n      swap4\n      pop\n        /* \"#utility.yul\":21457:21461   */\n      dup1\n        /* \"#utility.yul\":21447:21455   */\n      dup7\n        /* \"#utility.yul\":21443:21462   */\n      and\n        /* \"#utility.yul\":21436:21441   */\n      dup5\n        /* \"#utility.yul\":21433:21463   */\n      or\n        /* \"#utility.yul\":21423:21463   */\n      swap3\n      pop\n        /* \"#utility.yul\":21152:21469   */\n      pop\n      pop\n        /* \"#utility.yul\":21076:21469   */\n      swap4\n      swap3\n      pop\n      pop\n      pop\n      jump\t// out\n        /* \"#utility.yul\":21475:21535   */\n    tag_346:\n        /* \"#utility.yul\":21503:21506   */\n      0x00\n        /* \"#utility.yul\":21524:21529   */\n      dup2\n        /* \"#utility.yul\":21517:21529   */\n      swap1\n      pop\n        /* \"#utility.yul\":21475:21535   */\n      swap2\n      swap1\n      pop\n      jump\t// out\n        /* \"#utility.yul\":21541:21683   */\n    tag_347:\n        /* \"#utility.yul\":21591:21600   */\n      0x00\n        /* \"#utility.yul\":21624:21677   */\n      tag_566\n        /* \"#utility.yul\":21642:21676   */\n      tag_567\n        /* \"#utility.yul\":21651:21675   */\n      tag_568\n        /* \"#utility.yul\":21669:21674   */\n      dup5\n        /* \"#utility.yul\":21651:21675   */\n      tag_288\n      jump\t// in\n    tag_568:\n        /* \"#utility.yul\":21642:21676   */\n      tag_346\n      jump\t// in\n    tag_567:\n        /* \"#utility.yul\":21624:21677   */\n      tag_288\n      jump\t// in\n    tag_566:\n        /* \"#utility.yul\":21611:21677   */\n      swap1\n      pop\n        /* \"#utility.yul\":21541:21683   */\n      swap2\n      swap1\n      pop\n      jump\t// out\n        /* \"#utility.yul\":21689:21764   */\n    tag_348:\n        /* \"#utility.yul\":21732:21735   */\n      0x00\n        /* \"#utility.yul\":21753:21758   */\n      dup2\n        /* \"#utility.yul\":21746:21758   */\n      swap1\n      pop\n        /* \"#utility.yul\":21689:21764   */\n      swap2\n      swap1\n      pop\n      jump\t// out\n        /* \"#utility.yul\":21770:22039   */\n    tag_349:\n        /* \"#utility.yul\":21880:21919   */\n      tag_571\n        /* \"#utility.yul\":21911:21918   */\n      dup4\n        /* \"#utility.yul\":21880:21919   */\n      tag_347\n      jump\t// in\n    tag_571:\n        /* \"#utility.yul\":21941:22032   */\n      tag_572\n        /* \"#utility.yul\":21990:22031   */\n      tag_573\n        /* \"#utility.yul\":22014:22030   */\n      dup3\n        /* \"#utility.yul\":21990:22031   */\n      tag_348\n      jump\t// in\n    tag_573:\n        /* \"#utility.yul\":21982:21988   */\n      dup5\n        /* \"#utility.yul\":21975:21979   */\n      dup5\n        /* \"#utility.yul\":21969:21980   */\n      sload\n        /* \"#utility.yul\":21941:22032   */\n      tag_345\n      jump\t// in\n    tag_572:\n        /* \"#utility.yul\":21935:21939   */\n      dup3\n        /* \"#utility.yul\":21928:22033   */\n      sstore\n        /* \"#utility.yul\":21846:22039   */\n      pop\n        /* \"#utility.yul\":21770:22039   */\n      pop\n      pop\n      pop\n      jump\t// out\n        /* \"#utility.yul\":22045:22118   */\n    tag_350:\n        /* \"#utility.yul\":22090:22093   */\n      0x00\n        /* \"#utility.yul\":22045:22118   */\n      swap1\n      jump\t// out\n        /* \"#utility.yul\":22124:22313   */\n    tag_351:\n        /* \"#utility.yul\":22201:22233   */\n      tag_576\n      tag_350\n      jump\t// in\n    tag_576:\n        /* \"#utility.yul\":22242:22307   */\n      tag_577\n        /* \"#utility.yul\":22300:22306   */\n      dup2\n        /* \"#utility.yul\":22292:22298   */\n      dup5\n        /* \"#utility.yul\":22286:22290   */\n      dup5\n        /* \"#utility.yul\":22242:22307   */\n      tag_349\n      jump\t// in\n    tag_577:\n        /* \"#utility.yul\":22177:22313   */\n      pop\n        /* \"#utility.yul\":22124:22313   */\n      pop\n      pop\n      jump\t// out\n        /* \"#utility.yul\":22319:22505   */\n    tag_352:\n        /* \"#utility.yul\":22379:22499   */\n    tag_579:\n        /* \"#utility.yul\":22396:22399   */\n      dup2\n        /* \"#utility.yul\":22389:22394   */\n      dup2\n        /* \"#utility.yul\":22386:22400   */\n      lt\n        /* \"#utility.yul\":22379:22499   */\n      iszero\n      tag_581\n      jumpi\n        /* \"#utility.yul\":22450:22489   */\n      tag_582\n        /* \"#utility.yul\":22487:22488   */\n      0x00\n        /* \"#utility.yul\":22480:22485   */\n      dup3\n        /* \"#utility.yul\":22450:22489   */\n      tag_351\n      jump\t// in\n    tag_582:\n        /* \"#utility.yul\":22423:22424   */\n      0x01\n        /* \"#utility.yul\":22416:22421   */\n      dup2\n        /* \"#utility.yul\":22412:22425   */\n      add\n        /* \"#utility.yul\":22403:22425   */\n      swap1\n      pop\n        /* \"#utility.yul\":22379:22499   */\n      jump(tag_579)\n    tag_581:\n        /* \"#utility.yul\":22319:22505   */\n      pop\n      pop\n      jump\t// out\n        /* \"#utility.yul\":22511:23054   */\n    tag_353:\n        /* \"#utility.yul\":22612:22614   */\n      0x1f\n        /* \"#utility.yul\":22607:22610   */\n      dup3\n        /* \"#utility.yul\":22604:22615   */\n      gt\n        /* \"#utility.yul\":22601:23047   */\n      iszero\n      tag_584\n      jumpi\n        /* \"#utility.yul\":22646:22684   */\n      tag_585\n        /* \"#utility.yul\":22678:22683   */\n      dup2\n        /* \"#utility.yul\":22646:22684   */\n      tag_342\n      jump\t// in\n    tag_585:\n        /* \"#utility.yul\":22730:22759   */\n      tag_586\n        /* \"#utility.yul\":22748:22758   */\n      dup5\n        /* \"#utility.yul\":22730:22759   */\n      tag_343\n      jump\t// in\n    tag_586:\n        /* \"#utility.yul\":22720:22728   */\n      dup2\n        /* \"#utility.yul\":22716:22760   */\n      add\n        /* \"#utility.yul\":22913:22915   */\n      0x20\n        /* \"#utility.yul\":22901:22911   */\n      dup6\n        /* \"#utility.yul\":22898:22916   */\n      lt\n        /* \"#utility.yul\":22895:22944   */\n      iszero\n      tag_587\n      jumpi\n        /* \"#utility.yul\":22934:22942   */\n      dup2\n        /* \"#utility.yul\":22919:22942   */\n      swap1\n      pop\n        /* \"#utility.yul\":22895:22944   */\n    tag_587:\n        /* \"#utility.yul\":22957:23037   */\n      tag_588\n        /* \"#utility.yul\":23013:23035   */\n      tag_589\n        /* \"#utility.yul\":23031:23034   */\n      dup6\n        /* \"#utility.yul\":23013:23035   */\n      tag_343\n      jump\t// in\n    tag_589:\n        /* \"#utility.yul\":23003:23011   */\n      dup4\n        /* \"#utility.yul\":22999:23036   */\n      add\n        /* \"#utility.yul\":22986:22997   */\n      dup3\n        /* \"#utility.yul\":22957:23037   */\n      tag_352\n      jump\t// in\n    tag_588:\n        /* \"#utility.yul\":22616:23047   */\n      pop\n      pop\n        /* \"#utility.yul\":22601:23047   */\n    tag_584:\n        /* \"#utility.yul\":22511:23054   */\n      pop\n      pop\n      pop\n      jump\t// out\n        /* \"#utility.yul\":23060:23177   */\n    tag_354:\n        /* \"#utility.yul\":23114:23122   */\n      0x00\n        /* \"#utility.yul\":23164:23169   */\n      dup3\n        /* \"#utility.yul\":23158:23162   */\n      dup3\n        /* \"#utility.yul\":23154:23170   */\n      shr\n        /* \"#utility.yul\":23133:23170   */\n      swap1\n      pop\n        /* \"#utility.yul\":23060:23177   */\n      swap3\n      swap2\n      pop\n      pop\n      jump\t// out\n        /* \"#utility.yul\":23183:23352   */\n    tag_355:\n        /* \"#utility.yul\":23227:23233   */\n      0x00\n        /* \"#utility.yul\":23260:23311   */\n      tag_592\n        /* \"#utility.yul\":23308:23309   */\n      0x00\n        /* \"#utility.yul\":23304:23310   */\n      not\n        /* \"#utility.yul\":23296:23301   */\n      dup5\n        /* \"#utility.yul\":23293:23294   */\n      0x08\n        /* \"#utility.yul\":23289:23302   */\n      mul\n        /* \"#utility.yul\":23260:23311   */\n      tag_354\n      jump\t// in\n    tag_592:\n        /* \"#utility.yul\":23256:23312   */\n      not\n        /* \"#utility.yul\":23341:23345   */\n      dup1\n        /* \"#utility.yul\":23335:23339   */\n      dup4\n        /* \"#utility.yul\":23331:23346   */\n      and\n        /* \"#utility.yul\":23321:23346   */\n      swap2\n      pop\n        /* \"#utility.yul\":23234:23352   */\n      pop\n        /* \"#utility.yul\":23183:23352   */\n      swap3\n      swap2\n      pop\n      pop\n      jump\t// out\n        /* \"#utility.yul\":23357:23652   */\n    tag_356:\n        /* \"#utility.yul\":23433:23437   */\n      0x00\n        /* \"#utility.yul\":23579:23608   */\n      tag_594\n        /* \"#utility.yul\":23604:23607   */\n      dup4\n        /* \"#utility.yul\":23598:23602   */\n      dup4\n        /* \"#utility.yul\":23579:23608   */\n      tag_355\n      jump\t// in\n    tag_594:\n        /* \"#utility.yul\":23571:23608   */\n      swap2\n      pop\n        /* \"#utility.yul\":23641:23644   */\n      dup3\n        /* \"#utility.yul\":23638:23639   */\n      0x02\n        /* \"#utility.yul\":23634:23645   */\n      mul\n        /* \"#utility.yul\":23628:23632   */\n      dup3\n        /* \"#utility.yul\":23625:23646   */\n      or\n        /* \"#utility.yul\":23617:23646   */\n      swap1\n      pop\n        /* \"#utility.yul\":23357:23652   */\n      swap3\n      swap2\n      pop\n      pop\n      jump\t// out\n        /* \"#utility.yul\":23657:25108   */\n    tag_203:\n        /* \"#utility.yul\":23768:23771   */\n      dup2\n        /* \"#utility.yul\":23762:23766   */\n      dup2\n        /* \"#utility.yul\":23759:23772   */\n      sub\n        /* \"#utility.yul\":23756:23782   */\n      tag_596\n      jumpi\n        /* \"#utility.yul\":23775:23780   */\n      pop\n      pop\n      jump(tag_595)\n        /* \"#utility.yul\":23756:23782   */\n    tag_596:\n        /* \"#utility.yul\":23806:23840   */\n      tag_597\n        /* \"#utility.yul\":23836:23839   */\n      dup3\n        /* \"#utility.yul\":23806:23840   */\n      tag_341\n      jump\t// in\n    tag_597:\n        /* \"#utility.yul\":23905:23923   */\n      0xffffffffffffffff\n        /* \"#utility.yul\":23897:23903   */\n      dup2\n        /* \"#utility.yul\":23894:23924   */\n      gt\n        /* \"#utility.yul\":23891:23947   */\n      iszero\n      tag_598\n      jumpi\n        /* \"#utility.yul\":23927:23945   */\n      tag_599\n      tag_310\n      jump\t// in\n    tag_599:\n        /* \"#utility.yul\":23891:23947   */\n    tag_598:\n        /* \"#utility.yul\":23971:24009   */\n      tag_600\n        /* \"#utility.yul\":24003:24007   */\n      dup3\n        /* \"#utility.yul\":23997:24008   */\n      sload\n        /* \"#utility.yul\":23971:24009   */\n      tag_118\n      jump\t// in\n    tag_600:\n        /* \"#utility.yul\":24056:24123   */\n      tag_601\n        /* \"#utility.yul\":24116:24122   */\n      dup3\n        /* \"#utility.yul\":24108:24114   */\n      dup3\n        /* \"#utility.yul\":24102:24106   */\n      dup6\n        /* \"#utility.yul\":24056:24123   */\n      tag_353\n      jump\t// in\n    tag_601:\n        /* \"#utility.yul\":24150:24151   */\n      0x00\n        /* \"#utility.yul\":24179:24181   */\n      0x1f\n        /* \"#utility.yul\":24171:24177   */\n      dup4\n        /* \"#utility.yul\":24168:24182   */\n      gt\n        /* \"#utility.yul\":24196:24197   */\n      0x01\n        /* \"#utility.yul\":24191:24863   */\n      dup2\n      eq\n      tag_603\n      jumpi\n        /* \"#utility.yul\":24907:24908   */\n      0x00\n        /* \"#utility.yul\":24924:24930   */\n      dup5\n        /* \"#utility.yul\":24921:24998   */\n      iszero\n      tag_604\n      jumpi\n        /* \"#utility.yul\":24973:24982   */\n      dup3\n        /* \"#utility.yul\":24968:24971   */\n      dup8\n        /* \"#utility.yul\":24964:24983   */\n      add\n        /* \"#utility.yul\":24958:24984   */\n      sload\n        /* \"#utility.yul\":24949:24984   */\n      swap1\n      pop\n        /* \"#utility.yul\":24921:24998   */\n    tag_604:\n        /* \"#utility.yul\":25024:25091   */\n      tag_605\n        /* \"#utility.yul\":25084:25090   */\n      dup6\n        /* \"#utility.yul\":25077:25082   */\n      dup3\n        /* \"#utility.yul\":25024:25091   */\n      tag_356\n      jump\t// in\n    tag_605:\n        /* \"#utility.yul\":25018:25022   */\n      dup7\n        /* \"#utility.yul\":25011:25092   */\n      sstore\n        /* \"#utility.yul\":24880:25102   */\n      pop\n        /* \"#utility.yul\":24161:25102   */\n      jump(tag_602)\n        /* \"#utility.yul\":24191:24863   */\n    tag_603:\n        /* \"#utility.yul\":24243:24247   */\n      0x1f\n        /* \"#utility.yul\":24239:24248   */\n      not\n        /* \"#utility.yul\":24231:24237   */\n      dup5\n        /* \"#utility.yul\":24227:24249   */\n      and\n        /* \"#utility.yul\":24269:24305   */\n      tag_606\n        /* \"#utility.yul\":24301:24304   */\n      dup8\n        /* \"#utility.yul\":24269:24305   */\n      tag_342\n      jump\t// in\n    tag_606:\n        /* \"#utility.yul\":24262:24305   */\n      swap7\n      pop\n        /* \"#utility.yul\":24332:24369   */\n      tag_607\n        /* \"#utility.yul\":24364:24368   */\n      dup7\n        /* \"#utility.yul\":24332:24369   */\n      tag_342\n      jump\t// in\n    tag_607:\n        /* \"#utility.yul\":24391:24392   */\n      0x00\n        /* \"#utility.yul\":24405:24612   */\n    tag_608:\n        /* \"#utility.yul\":24419:24426   */\n      dup3\n        /* \"#utility.yul\":24416:24417   */\n      dup2\n        /* \"#utility.yul\":24413:24427   */\n      lt\n        /* \"#utility.yul\":24405:24612   */\n      iszero\n      tag_610\n      jumpi\n        /* \"#utility.yul\":24498:24507   */\n      dup5\n        /* \"#utility.yul\":24493:24496   */\n      dup10\n        /* \"#utility.yul\":24489:24508   */\n      add\n        /* \"#utility.yul\":24483:24509   */\n      sload\n        /* \"#utility.yul\":24475:24481   */\n      dup3\n        /* \"#utility.yul\":24468:24510   */\n      sstore\n        /* \"#utility.yul\":24549:24550   */\n      0x01\n        /* \"#utility.yul\":24541:24547   */\n      dup3\n        /* \"#utility.yul\":24537:24551   */\n      add\n        /* \"#utility.yul\":24527:24551   */\n      swap2\n      pop\n        /* \"#utility.yul\":24596:24597   */\n      0x01\n        /* \"#utility.yul\":24585:24594   */\n      dup6\n        /* \"#utility.yul\":24581:24598   */\n      add\n        /* \"#utility.yul\":24568:24598   */\n      swap5\n      pop\n        /* \"#utility.yul\":24442:24446   */\n      0x20\n        /* \"#utility.yul\":24439:24440   */\n      dup2\n        /* \"#utility.yul\":24435:24447   */\n      add\n        /* \"#utility.yul\":24430:24447   */\n      swap1\n      pop\n        /* \"#utility.yul\":24405:24612   */\n      jump(tag_608)\n    tag_610:\n        /* \"#utility.yul\":24640:24646   */\n      dup7\n        /* \"#utility.yul\":24631:24638   */\n      dup4\n        /* \"#utility.yul\":24628:24647   */\n      lt\n        /* \"#utility.yul\":24625:24804   */\n      iszero\n      tag_611\n      jumpi\n        /* \"#utility.yul\":24698:24707   */\n      dup5\n        /* \"#utility.yul\":24693:24696   */\n      dup10\n        /* \"#utility.yul\":24689:24708   */\n      add\n        /* \"#utility.yul\":24683:24709   */\n      sload\n        /* \"#utility.yul\":24741:24789   */\n      tag_612\n        /* \"#utility.yul\":24783:24787   */\n      0x1f\n        /* \"#utility.yul\":24775:24781   */\n      dup10\n        /* \"#utility.yul\":24771:24788   */\n      and\n        /* \"#utility.yul\":24760:24769   */\n      dup3\n        /* \"#utility.yul\":24741:24789   */\n      tag_355\n      jump\t// in\n    tag_612:\n        /* \"#utility.yul\":24733:24739   */\n      dup4\n        /* \"#utility.yul\":24726:24790   */\n      sstore\n        /* \"#utility.yul\":24648:24804   */\n      pop\n        /* \"#utility.yul\":24625:24804   */\n    tag_611:\n        /* \"#utility.yul\":24850:24851   */\n      0x01\n        /* \"#utility.yul\":24846:24847   */\n      0x02\n        /* \"#utility.yul\":24838:24844   */\n      dup9\n        /* \"#utility.yul\":24834:24848   */\n      mul\n        /* \"#utility.yul\":24830:24852   */\n      add\n        /* \"#utility.yul\":24824:24828   */\n      dup9\n        /* \"#utility.yul\":24817:24853   */\n      sstore\n        /* \"#utility.yul\":24198:24863   */\n      pop\n      pop\n      pop\n        /* \"#utility.yul\":24161:25102   */\n    tag_602:\n      pop\n        /* \"#utility.yul\":23746:25108   */\n      pop\n      pop\n      pop\n        /* \"#utility.yul\":23657:25108   */\n      pop\n      pop\n    tag_595:\n      jump\t// out\n        /* \"#utility.yul\":25114:25294   */\n    tag_206:\n        /* \"#utility.yul\":25162:25239   */\n      0x4e487b7100000000000000000000000000000000000000000000000000000000\n        /* \"#utility.yul\":25159:25160   */\n      0x00\n        /* \"#utility.yul\":25152:25240   */\n      mstore\n        /* \"#utility.yul\":25259:25263   */\n      0x31\n        /* \"#utility.yul\":25256:25257   */\n      0x04\n        /* \"#utility.yul\":25249:25264   */\n      mstore\n        /* \"#utility.yul\":25283:25287   */\n      0x24\n        /* \"#utility.yul\":25280:25281   */\n      0x00\n        /* \"#utility.yul\":25273:25288   */\n      revert\n        /* \"#utility.yul\":25300:25480   */\n    tag_357:\n        /* \"#utility.yul\":25440:25472   */\n      0x416d6f756e74206d7573742062652067726561746572207468616e204f2e0000\n        /* \"#utility.yul\":25436:25437   */\n      0x00\n        /* \"#utility.yul\":25428:25434   */\n      dup3\n        /* \"#utility.yul\":25424:25438   */\n      add\n        /* \"#utility.yul\":25417:25473   */\n      mstore\n        /* \"#utility.yul\":25300:25480   */\n      pop\n      jump\t// out\n        /* \"#utility.yul\":25486:25852   */\n    tag_358:\n        /* \"#utility.yul\":25628:25631   */\n      0x00\n        /* \"#utility.yul\":25649:25716   */\n      tag_616\n        /* \"#utility.yul\":25713:25715   */\n      0x1e\n        /* \"#utility.yul\":25708:25711   */\n      dup4\n        /* \"#utility.yul\":25649:25716   */\n      tag_292\n      jump\t// in\n    tag_616:\n        /* \"#utility.yul\":25642:25716   */\n      swap2\n      pop\n        /* \"#utility.yul\":25725:25818   */\n      tag_617\n        /* \"#utility.yul\":25814:25817   */\n      dup3\n        /* \"#utility.yul\":25725:25818   */\n      tag_357\n      jump\t// in\n    tag_617:\n        /* \"#utility.yul\":25843:25845   */\n      0x20\n        /* \"#utility.yul\":25838:25841   */\n      dup3\n        /* \"#utility.yul\":25834:25846   */\n      add\n        /* \"#utility.yul\":25827:25846   */\n      swap1\n      pop\n        /* \"#utility.yul\":25486:25852   */\n      swap2\n      swap1\n      pop\n      jump\t// out\n        /* \"#utility.yul\":25858:26277   */\n    tag_217:\n        /* \"#utility.yul\":26024:26028   */\n      0x00\n        /* \"#utility.yul\":26062:26064   */\n      0x20\n        /* \"#utility.yul\":26051:26060   */\n      dup3\n        /* \"#utility.yul\":26047:26065   */\n      add\n        /* \"#utility.yul\":26039:26065   */\n      swap1\n      pop\n        /* \"#utility.yul\":26111:26120   */\n      dup2\n        /* \"#utility.yul\":26105:26109   */\n      dup2\n        /* \"#utility.yul\":26101:26121   */\n      sub\n        /* \"#utility.yul\":26097:26098   */\n      0x00\n        /* \"#utility.yul\":26086:26095   */\n      dup4\n        /* \"#utility.yul\":26082:26099   */\n      add\n        /* \"#utility.yul\":26075:26122   */\n      mstore\n        /* \"#utility.yul\":26139:26270   */\n      tag_619\n        /* \"#utility.yul\":26265:26269   */\n      dup2\n        /* \"#utility.yul\":26139:26270   */\n      tag_358\n      jump\t// in\n    tag_619:\n        /* \"#utility.yul\":26131:26270   */\n      swap1\n      pop\n        /* \"#utility.yul\":25858:26277   */\n      swap2\n      swap1\n      pop\n      jump\t// out\n        /* \"#utility.yul\":26283:27678   */\n    tag_220:\n        /* \"#utility.yul\":26400:26437   */\n      tag_621\n        /* \"#utility.yul\":26433:26436   */\n      dup3\n        /* \"#utility.yul\":26400:26437   */\n      tag_291\n      jump\t// in\n    tag_621:\n        /* \"#utility.yul\":26502:26520   */\n      0xffffffffffffffff\n        /* \"#utility.yul\":26494:26500   */\n      dup2\n        /* \"#utility.yul\":26491:26521   */\n      gt\n        /* \"#utility.yul\":26488:26544   */\n      iszero\n      tag_622\n      jumpi\n        /* \"#utility.yul\":26524:26542   */\n      tag_623\n      tag_310\n      jump\t// in\n    tag_623:\n        /* \"#utility.yul\":26488:26544   */\n    tag_622:\n        /* \"#utility.yul\":26568:26606   */\n      tag_624\n        /* \"#utility.yul\":26600:26604   */\n      dup3\n        /* \"#utility.yul\":26594:26605   */\n      sload\n        /* \"#utility.yul\":26568:26606   */\n      tag_118\n      jump\t// in\n    tag_624:\n        /* \"#utility.yul\":26653:26720   */\n      tag_625\n        /* \"#utility.yul\":26713:26719   */\n      dup3\n        /* \"#utility.yul\":26705:26711   */\n      dup3\n        /* \"#utility.yul\":26699:26703   */\n      dup6\n        /* \"#utility.yul\":26653:26720   */\n      tag_353\n      jump\t// in\n    tag_625:\n        /* \"#utility.yul\":26747:26748   */\n      0x00\n        /* \"#utility.yul\":26771:26775   */\n      0x20\n        /* \"#utility.yul\":26758:26775   */\n      swap1\n      pop\n        /* \"#utility.yul\":26803:26805   */\n      0x1f\n        /* \"#utility.yul\":26795:26801   */\n      dup4\n        /* \"#utility.yul\":26792:26806   */\n      gt\n        /* \"#utility.yul\":26820:26821   */\n      0x01\n        /* \"#utility.yul\":26815:27433   */\n      dup2\n      eq\n      tag_627\n      jumpi\n        /* \"#utility.yul\":27477:27478   */\n      0x00\n        /* \"#utility.yul\":27494:27500   */\n      dup5\n        /* \"#utility.yul\":27491:27568   */\n      iszero\n      tag_628\n      jumpi\n        /* \"#utility.yul\":27543:27552   */\n      dup3\n        /* \"#utility.yul\":27538:27541   */\n      dup8\n        /* \"#utility.yul\":27534:27553   */\n      add\n        /* \"#utility.yul\":27528:27554   */\n      mload\n        /* \"#utility.yul\":27519:27554   */\n      swap1\n      pop\n        /* \"#utility.yul\":27491:27568   */\n    tag_628:\n        /* \"#utility.yul\":27594:27661   */\n      tag_629\n        /* \"#utility.yul\":27654:27660   */\n      dup6\n        /* \"#utility.yul\":27647:27652   */\n      dup3\n        /* \"#utility.yul\":27594:27661   */\n      tag_356\n      jump\t// in\n    tag_629:\n        /* \"#utility.yul\":27588:27592   */\n      dup7\n        /* \"#utility.yul\":27581:27662   */\n      sstore\n        /* \"#utility.yul\":27450:27672   */\n      pop\n        /* \"#utility.yul\":26785:27672   */\n      jump(tag_626)\n        /* \"#utility.yul\":26815:27433   */\n    tag_627:\n        /* \"#utility.yul\":26867:26871   */\n      0x1f\n        /* \"#utility.yul\":26863:26872   */\n      not\n        /* \"#utility.yul\":26855:26861   */\n      dup5\n        /* \"#utility.yul\":26851:26873   */\n      and\n        /* \"#utility.yul\":26901:26938   */\n      tag_630\n        /* \"#utility.yul\":26933:26937   */\n      dup7\n        /* \"#utility.yul\":26901:26938   */\n      tag_342\n      jump\t// in\n    tag_630:\n        /* \"#utility.yul\":26960:26961   */\n      0x00\n        /* \"#utility.yul\":26974:27182   */\n    tag_631:\n        /* \"#utility.yul\":26988:26995   */\n      dup3\n        /* \"#utility.yul\":26985:26986   */\n      dup2\n        /* \"#utility.yul\":26982:26996   */\n      lt\n        /* \"#utility.yul\":26974:27182   */\n      iszero\n      tag_633\n      jumpi\n        /* \"#utility.yul\":27067:27076   */\n      dup5\n        /* \"#utility.yul\":27062:27065   */\n      dup10\n        /* \"#utility.yul\":27058:27077   */\n      add\n        /* \"#utility.yul\":27052:27078   */\n      mload\n        /* \"#utility.yul\":27044:27050   */\n      dup3\n        /* \"#utility.yul\":27037:27079   */\n      sstore\n        /* \"#utility.yul\":27118:27119   */\n      0x01\n        /* \"#utility.yul\":27110:27116   */\n      dup3\n        /* \"#utility.yul\":27106:27120   */\n      add\n        /* \"#utility.yul\":27096:27120   */\n      swap2\n      pop\n        /* \"#utility.yul\":27165:27167   */\n      0x20\n        /* \"#utility.yul\":27154:27163   */\n      dup6\n        /* \"#utility.yul\":27150:27168   */\n      add\n        /* \"#utility.yul\":27137:27168   */\n      swap5\n      pop\n        /* \"#utility.yul\":27011:27015   */\n      0x20\n        /* \"#utility.yul\":27008:27009   */\n      dup2\n        /* \"#utility.yul\":27004:27016   */\n      add\n        /* \"#utility.yul\":26999:27016   */\n      swap1\n      pop\n        /* \"#utility.yul\":26974:27182   */\n      jump(tag_631)\n    tag_633:\n        /* \"#utility.yul\":27210:27216   */\n      dup7\n        /* \"#utility.yul\":27201:27208   */\n      dup4\n        /* \"#utility.yul\":27198:27217   */\n      lt\n        /* \"#utility.yul\":27195:27374   */\n      iszero\n      tag_634\n      jumpi\n        /* \"#utility.yul\":27268:27277   */\n      dup5\n        /* \"#utility.yul\":27263:27266   */\n      dup10\n        /* \"#utility.yul\":27259:27278   */\n      add\n        /* \"#utility.yul\":27253:27279   */\n      mload\n        /* \"#utility.yul\":27311:27359   */\n      tag_635\n        /* \"#utility.yul\":27353:27357   */\n      0x1f\n        /* \"#utility.yul\":27345:27351   */\n      dup10\n        /* \"#utility.yul\":27341:27358   */\n      and\n        /* \"#utility.yul\":27330:27339   */\n      dup3\n        /* \"#utility.yul\":27311:27359   */\n      tag_355\n      jump\t// in\n    tag_635:\n        /* \"#utility.yul\":27303:27309   */\n      dup4\n        /* \"#utility.yul\":27296:27360   */\n      sstore\n        /* \"#utility.yul\":27218:27374   */\n      pop\n        /* \"#utility.yul\":27195:27374   */\n    tag_634:\n        /* \"#utility.yul\":27420:27421   */\n      0x01\n        /* \"#utility.yul\":27416:27417   */\n      0x02\n        /* \"#utility.yul\":27408:27414   */\n      dup9\n        /* \"#utility.yul\":27404:27418   */\n      mul\n        /* \"#utility.yul\":27400:27422   */\n      add\n        /* \"#utility.yul\":27394:27398   */\n      dup9\n        /* \"#utility.yul\":27387:27423   */\n      sstore\n        /* \"#utility.yul\":26822:27433   */\n      pop\n      pop\n      pop\n        /* \"#utility.yul\":26785:27672   */\n    tag_626:\n      pop\n        /* \"#utility.yul\":26375:27678   */\n      pop\n      pop\n      pop\n        /* \"#utility.yul\":26283:27678   */\n      pop\n      pop\n      jump\t// out\n        /* \"#utility.yul\":27684:27853   */\n    tag_359:\n        /* \"#utility.yul\":27824:27845   */\n      0x436f6e7472616374206973207061757365642e00000000000000000000000000\n        /* \"#utility.yul\":27820:27821   */\n      0x00\n        /* \"#utility.yul\":27812:27818   */\n      dup3\n        /* \"#utility.yul\":27808:27822   */\n      add\n        /* \"#utility.yul\":27801:27846   */\n      mstore\n        /* \"#utility.yul\":27684:27853   */\n      pop\n      jump\t// out\n        /* \"#utility.yul\":27859:28225   */\n    tag_360:\n        /* \"#utility.yul\":28001:28004   */\n      0x00\n        /* \"#utility.yul\":28022:28089   */\n      tag_638\n        /* \"#utility.yul\":28086:28088   */\n      0x13\n        /* \"#utility.yul\":28081:28084   */\n      dup4\n        /* \"#utility.yul\":28022:28089   */\n      tag_292\n      jump\t// in\n    tag_638:\n        /* \"#utility.yul\":28015:28089   */\n      swap2\n      pop\n        /* \"#utility.yul\":28098:28191   */\n      tag_639\n        /* \"#utility.yul\":28187:28190   */\n      dup3\n        /* \"#utility.yul\":28098:28191   */\n      tag_359\n      jump\t// in\n    tag_639:\n        /* \"#utility.yul\":28216:28218   */\n      0x20\n        /* \"#utility.yul\":28211:28214   */\n      dup3\n        /* \"#utility.yul\":28207:28219   */\n      add\n        /* \"#utility.yul\":28200:28219   */\n      swap1\n      pop\n        /* \"#utility.yul\":27859:28225   */\n      swap2\n      swap1\n      pop\n      jump\t// out\n        /* \"#utility.yul\":28231:28650   */\n    tag_235:\n        /* \"#utility.yul\":28397:28401   */\n      0x00\n        /* \"#utility.yul\":28435:28437   */\n      0x20\n        /* \"#utility.yul\":28424:28433   */\n      dup3\n        /* \"#utility.yul\":28420:28438   */\n      add\n        /* \"#utility.yul\":28412:28438   */\n      swap1\n      pop\n        /* \"#utility.yul\":28484:28493   */\n      dup2\n        /* \"#utility.yul\":28478:28482   */\n      dup2\n        /* \"#utility.yul\":28474:28494   */\n      sub\n        /* \"#utility.yul\":28470:28471   */\n      0x00\n        /* \"#utility.yul\":28459:28468   */\n      dup4\n        /* \"#utility.yul\":28455:28472   */\n      add\n        /* \"#utility.yul\":28448:28495   */\n      mstore\n        /* \"#utility.yul\":28512:28643   */\n      tag_641\n        /* \"#utility.yul\":28638:28642   */\n      dup2\n        /* \"#utility.yul\":28512:28643   */\n      tag_360\n      jump\t// in\n    tag_641:\n        /* \"#utility.yul\":28504:28643   */\n      swap1\n      pop\n        /* \"#utility.yul\":28231:28650   */\n      swap2\n      swap1\n      pop\n      jump\t// out\n        /* \"#utility.yul\":28656:28819   */\n    tag_361:\n        /* \"#utility.yul\":28796:28811   */\n      0x496e76616c696420546965722e00000000000000000000000000000000000000\n        /* \"#utility.yul\":28792:28793   */\n      0x00\n        /* \"#utility.yul\":28784:28790   */\n      dup3\n        /* \"#utility.yul\":28780:28794   */\n      add\n        /* \"#utility.yul\":28773:28812   */\n      mstore\n        /* \"#utility.yul\":28656:28819   */\n      pop\n      jump\t// out\n        /* \"#utility.yul\":28825:29191   */\n    tag_362:\n        /* \"#utility.yul\":28967:28970   */\n      0x00\n        /* \"#utility.yul\":28988:29055   */\n      tag_644\n        /* \"#utility.yul\":29052:29054   */\n      0x0d\n        /* \"#utility.yul\":29047:29050   */\n      dup4\n        /* \"#utility.yul\":28988:29055   */\n      tag_292\n      jump\t// in\n    tag_644:\n        /* \"#utility.yul\":28981:29055   */\n      swap2\n      pop\n        /* \"#utility.yul\":29064:29157   */\n      tag_645\n        /* \"#utility.yul\":29153:29156   */\n      dup3\n        /* \"#utility.yul\":29064:29157   */\n      tag_361\n      jump\t// in\n    tag_645:\n        /* \"#utility.yul\":29182:29184   */\n      0x20\n        /* \"#utility.yul\":29177:29180   */\n      dup3\n        /* \"#utility.yul\":29173:29185   */\n      add\n        /* \"#utility.yul\":29166:29185   */\n      swap1\n      pop\n        /* \"#utility.yul\":28825:29191   */\n      swap2\n      swap1\n      pop\n      jump\t// out\n        /* \"#utility.yul\":29197:29616   */\n    tag_239:\n        /* \"#utility.yul\":29363:29367   */\n      0x00\n        /* \"#utility.yul\":29401:29403   */\n      0x20\n        /* \"#utility.yul\":29390:29399   */\n      dup3\n        /* \"#utility.yul\":29386:29404   */\n      add\n        /* \"#utility.yul\":29378:29404   */\n      swap1\n      pop\n        /* \"#utility.yul\":29450:29459   */\n      dup2\n        /* \"#utility.yul\":29444:29448   */\n      dup2\n        /* \"#utility.yul\":29440:29460   */\n      sub\n        /* \"#utility.yul\":29436:29437   */\n      0x00\n        /* \"#utility.yul\":29425:29434   */\n      dup4\n        /* \"#utility.yul\":29421:29438   */\n      add\n        /* \"#utility.yul\":29414:29461   */\n      mstore\n        /* \"#utility.yul\":29478:29609   */\n      tag_647\n        /* \"#utility.yul\":29604:29608   */\n      dup2\n        /* \"#utility.yul\":29478:29609   */\n      tag_362\n      jump\t// in\n    tag_647:\n        /* \"#utility.yul\":29470:29609   */\n      swap1\n      pop\n        /* \"#utility.yul\":29197:29616   */\n      swap2\n      swap1\n      pop\n      jump\t// out\n        /* \"#utility.yul\":29622:29788   */\n    tag_363:\n        /* \"#utility.yul\":29762:29780   */\n      0x496e636f727265637420416d6f756e7400000000000000000000000000000000\n        /* \"#utility.yul\":29758:29759   */\n      0x00\n        /* \"#utility.yul\":29750:29756   */\n      dup3\n        /* \"#utility.yul\":29746:29760   */\n      add\n        /* \"#utility.yul\":29739:29781   */\n      mstore\n        /* \"#utility.yul\":29622:29788   */\n      pop\n      jump\t// out\n        /* \"#utility.yul\":29794:30160   */\n    tag_364:\n        /* \"#utility.yul\":29936:29939   */\n      0x00\n        /* \"#utility.yul\":29957:30024   */\n      tag_650\n        /* \"#utility.yul\":30021:30023   */\n      0x10\n        /* \"#utility.yul\":30016:30019   */\n      dup4\n        /* \"#utility.yul\":29957:30024   */\n      tag_292\n      jump\t// in\n    tag_650:\n        /* \"#utility.yul\":29950:30024   */\n      swap2\n      pop\n        /* \"#utility.yul\":30033:30126   */\n      tag_651\n        /* \"#utility.yul\":30122:30125   */\n      dup3\n        /* \"#utility.yul\":30033:30126   */\n      tag_363\n      jump\t// in\n    tag_651:\n        /* \"#utility.yul\":30151:30153   */\n      0x20\n        /* \"#utility.yul\":30146:30149   */\n      dup3\n        /* \"#utility.yul\":30142:30154   */\n      add\n        /* \"#utility.yul\":30135:30154   */\n      swap1\n      pop\n        /* \"#utility.yul\":29794:30160   */\n      swap2\n      swap1\n      pop\n      jump\t// out\n        /* \"#utility.yul\":30166:30585   */\n    tag_245:\n        /* \"#utility.yul\":30332:30336   */\n      0x00\n        /* \"#utility.yul\":30370:30372   */\n      0x20\n        /* \"#utility.yul\":30359:30368   */\n      dup3\n        /* \"#utility.yul\":30355:30373   */\n      add\n        /* \"#utility.yul\":30347:30373   */\n      swap1\n      pop\n        /* \"#utility.yul\":30419:30428   */\n      dup2\n        /* \"#utility.yul\":30413:30417   */\n      dup2\n        /* \"#utility.yul\":30409:30429   */\n      sub\n        /* \"#utility.yul\":30405:30406   */\n      0x00\n        /* \"#utility.yul\":30394:30403   */\n      dup4\n        /* \"#utility.yul\":30390:30407   */\n      add\n        /* \"#utility.yul\":30383:30430   */\n      mstore\n        /* \"#utility.yul\":30447:30578   */\n      tag_653\n        /* \"#utility.yul\":30573:30577   */\n      dup2\n        /* \"#utility.yul\":30447:30578   */\n      tag_364\n      jump\t// in\n    tag_653:\n        /* \"#utility.yul\":30439:30578   */\n      swap1\n      pop\n        /* \"#utility.yul\":30166:30585   */\n      swap2\n      swap1\n      pop\n      jump\t// out\n        /* \"#utility.yul\":30591:30824   */\n    tag_250:\n        /* \"#utility.yul\":30630:30633   */\n      0x00\n        /* \"#utility.yul\":30653:30677   */\n      tag_655\n        /* \"#utility.yul\":30671:30676   */\n      dup3\n        /* \"#utility.yul\":30653:30677   */\n      tag_288\n      jump\t// in\n    tag_655:\n        /* \"#utility.yul\":30644:30677   */\n      swap2\n      pop\n        /* \"#utility.yul\":30699:30765   */\n      0xffffffffffffffffffffffffffffffffffffffffffffffffffffffffffffffff\n        /* \"#utility.yul\":30692:30697   */\n      dup3\n        /* \"#utility.yul\":30689:30766   */\n      sub\n        /* \"#utility.yul\":30686:30789   */\n      tag_656\n      jumpi\n        /* \"#utility.yul\":30769:30787   */\n      tag_657\n      tag_332\n      jump\t// in\n    tag_657:\n        /* \"#utility.yul\":30686:30789   */\n    tag_656:\n        /* \"#utility.yul\":30816:30817   */\n      0x01\n        /* \"#utility.yul\":30809:30814   */\n      dup3\n        /* \"#utility.yul\":30805:30818   */\n      add\n        /* \"#utility.yul\":30798:30818   */\n      swap1\n      pop\n        /* \"#utility.yul\":30591:30824   */\n      swap2\n      swap1\n      pop\n      jump\t// out\n\n    auxdata: 0xa26469706673582212203031a8cb67cd19492282f7d82d3c169c52354da7b102078bffa3d3441878eb4c64736f6c634300081a0033\n}\n",
				"bytecode": {
					"linkReferences": {},
					"object": "608060405234801561000f575f80fd5b506040516129e23803806129e28339818101604052810190610031919061026a565b835f908161003f919061050a565b50826001908161004f919061050a565b508160028190555062015180816100669190610606565b426100719190610647565b6003819055503360045f6101000a81548173ffffffffffffffffffffffffffffffffffffffff021916908373ffffffffffffffffffffffffffffffffffffffff1602179055505f600460156101000a81548160ff021916908360028111156100dc576100db61067a565b5b0217905550505050506106a7565b5f604051905090565b5f80fd5b5f80fd5b5f80fd5b5f80fd5b5f601f19601f8301169050919050565b7f4e487b71000000000000000000000000000000000000000000000000000000005f52604160045260245ffd5b61014982610103565b810181811067ffffffffffffffff8211171561016857610167610113565b5b80604052505050565b5f61017a6100ea565b90506101868282610140565b919050565b5f67ffffffffffffffff8211156101a5576101a4610113565b5b6101ae82610103565b9050602081019050919050565b8281835e5f83830152505050565b5f6101db6101d68461018b565b610171565b9050828152602081018484840111156101f7576101f66100ff565b5b6102028482856101bb565b509392505050565b5f82601f83011261021e5761021d6100fb565b5b815161022e8482602086016101c9565b91505092915050565b5f819050919050565b61024981610237565b8114610253575f80fd5b50565b5f8151905061026481610240565b92915050565b5f805f8060808587031215610282576102816100f3565b5b5f85015167ffffffffffffffff81111561029f5761029e6100f7565b5b6102ab8782880161020a565b945050602085015167ffffffffffffffff8111156102cc576102cb6100f7565b5b6102d88782880161020a565b93505060406102e987828801610256565b92505060606102fa87828801610256565b91505092959194509250565b5f81519050919050565b7f4e487b71000000000000000000000000000000000000000000000000000000005f52602260045260245ffd5b5f600282049050600182168061035457607f821691505b60208210810361036757610366610310565b5b50919050565b5f819050815f5260205f209050919050565b5f6020601f8301049050919050565b5f82821b905092915050565b5f600883026103c97fffffffffffffffffffffffffffffffffffffffffffffffffffffffffffffffff8261038e565b6103d3868361038e565b95508019841693508086168417925050509392505050565b5f819050919050565b5f61040e61040961040484610237565b6103eb565b610237565b9050919050565b5f819050919050565b610427836103f4565b61043b61043382610415565b84845461039a565b825550505050565b5f90565b61044f610443565b61045a81848461041e565b505050565b5b8181101561047d576104725f82610447565b600181019050610460565b5050565b601f8211156104c2576104938161036d565b61049c8461037f565b810160208510156104ab578190505b6104bf6104b78561037f565b83018261045f565b50505b505050565b5f82821c905092915050565b5f6104e25f19846008026104c7565b1980831691505092915050565b5f6104fa83836104d3565b9150826002028217905092915050565b61051382610306565b67ffffffffffffffff81111561052c5761052b610113565b5b610536825461033d565b610541828285610481565b5f60209050601f831160018114610572575f8415610560578287015190505b61056a85826104ef565b8655506105d1565b601f1984166105808661036d565b5f5b828110156105a757848901518255600182019150602085019450602081019050610582565b868310156105c457848901516105c0601f8916826104d3565b8355505b6001600288020188555050505b505050505050565b7f4e487b71000000000000000000000000000000000000000000000000000000005f52601160045260245ffd5b5f61061082610237565b915061061b83610237565b925082820261062981610237565b915082820484148315176106405761063f6105d9565b5b5092915050565b5f61065182610237565b915061065c83610237565b9250828201905080821115610674576106736105d9565b5b92915050565b7f4e487b71000000000000000000000000000000000000000000000000000000005f52602160045260245ffd5b61232e806106b45f395ff3fe60806040526004361061011e575f3560e01c80637284e4161161009f578063b85dfb8011610063578063b85dfb8014610390578063c19d93fb146103cc578063c4ae3168146103f6578063ca1d209d1461040c578063de170570146104285761011e565b80637284e416146102b05780637497211b146102da5780637adba527146103025780638da5cb5b1461033e5780638ece7b91146103685761011e565b80633ccfd60b116100e65780633ccfd60b14610206578063401938831461021c578063590e1ae3146102465780635c975abb1461025c5780636f9fb98a146102865761011e565b8063039af9eb1461012257806306fdde0314610160578063105505151461018a57806329dcb0cf146101b4578063389b7533146101de575b5f80fd5b34801561012d575f80fd5b50610148600480360381019061014391906113e2565b610452565b6040516101579392919061148c565b60405180910390f35b34801561016b575f80fd5b5061017461050d565b60405161018191906114c8565b60405180910390f35b348015610195575f80fd5b5061019e610598565b6040516101ab919061155b565b60405180910390f35b3480156101bf575f80fd5b506101c8610612565b6040516101d59190611574565b60405180910390f35b3480156101e9575f80fd5b5061020460048036038101906101ff91906113e2565b610618565b005b348015610211575f80fd5b5061021a610745565b005b348015610227575f80fd5b50610230610901565b60405161023d9190611574565b60405180910390f35b348015610251575f80fd5b5061025a610907565b005b348015610267575f80fd5b50610270610a1f565b60405161027d91906115a7565b60405180910390f35b348015610291575f80fd5b5061029a610a32565b6040516102a79190611574565b60405180910390f35b3480156102bb575f80fd5b506102c4610a39565b6040516102d191906114c8565b60405180910390f35b3480156102e5575f80fd5b5061030060048036038101906102fb91906113e2565b610ac5565b005b34801561030d575f80fd5b506103286004803603810190610323919061161a565b610c5e565b60405161033591906115a7565b60405180910390f35b348015610349575f80fd5b50610352610cc3565b60405161035f9190611667565b60405180910390f35b348015610373575f80fd5b5061038e600480360381019061038991906117ac565b610ce8565b005b34801561039b575f80fd5b506103b660048036038101906103b19190611806565b610e2a565b6040516103c39190611574565b60405180910390f35b3480156103d7575f80fd5b506103e0610e44565b6040516103ed919061155b565b60405180910390f35b348015610401575f80fd5b5061040a610e57565b005b610426600480360381019061042191906113e2565b610f12565b005b348015610433575f80fd5b5061043c611182565b6040516104499190611990565b60405180910390f35b60058181548110610461575f80fd5b905f5260205f2090600302015f91509050805f018054610480906119dd565b80601f01602080910402602001604051908101604052809291908181526020018280546104ac906119dd565b80156104f75780601f106104ce576101008083540402835291602001916104f7565b820191905f5260205f20905b8154815290600101906020018083116104da57829003601f168201915b5050505050908060010154908060020154905083565b5f8054610519906119dd565b80601f0160208091040260200160405190810160405280929190818152602001828054610545906119dd565b80156105905780601f1061056757610100808354040283529160200191610590565b820191905f5260205f20905b81548152906001019060200180831161057357829003601f168201915b505050505081565b5f8060028111156105ac576105ab6114e8565b5b600460159054906101000a900460ff1660028111156105ce576105cd6114e8565b5b1480156105dc575060035442115b156105fc576002544710156105f25760026105f5565b60015b905061060f565b600460159054906101000a900460ff1690505b90565b60035481565b60045f9054906101000a900473ffffffffffffffffffffffffffffffffffffffff1673ffffffffffffffffffffffffffffffffffffffff163373ffffffffffffffffffffffffffffffffffffffff16146106a7576040517f08c379a000000000000000000000000000000000000000000000000000000000815260040161069e90611a57565b60405180910390fd5b5f60028111156106ba576106b96114e8565b5b600460159054906101000a900460ff1660028111156106dc576106db6114e8565b5b1461071c576040517f08c379a000000000000000000000000000000000000000000000000000000000815260040161071390611abf565b60405180910390fd5b620151808161072b9190611b0a565b60035f82825461073b9190611b4b565b9250508190555050565b60045f9054906101000a900473ffffffffffffffffffffffffffffffffffffffff1673ffffffffffffffffffffffffffffffffffffffff163373ffffffffffffffffffffffffffffffffffffffff16146107d4576040517f08c379a00000000000000000000000000000000000000000000000000000000081526004016107cb90611a57565b60405180910390fd5b6107dc611281565b600160028111156107f0576107ef6114e8565b5b600460159054906101000a900460ff166002811115610812576108116114e8565b5b14610852576040517f08c379a000000000000000000000000000000000000000000000000000000000815260040161084990611bc8565b60405180910390fd5b5f4790505f811015610899576040517f08c379a000000000000000000000000000000000000000000000000000000000815260040161089090611c30565b60405180910390fd5b60045f9054906101000a900473ffffffffffffffffffffffffffffffffffffffff1673ffffffffffffffffffffffffffffffffffffffff166108fc8290811502906040515f60405180830381858888f193505050501580156108fd573d5f803e3d5ffd5b5050565b60025481565b61090f611281565b5f60065f3373ffffffffffffffffffffffffffffffffffffffff1673ffffffffffffffffffffffffffffffffffffffff1681526020019081526020015f205f015490505f8111610994576040517f08c379a000000000000000000000000000000000000000000000000000000000815260040161098b90611c98565b60405180910390fd5b5f60065f3373ffffffffffffffffffffffffffffffffffffffff1673ffffffffffffffffffffffffffffffffffffffff1681526020019081526020015f205f01819055503373ffffffffffffffffffffffffffffffffffffffff166108fc8290811502906040515f60405180830381858888f19350505050158015610a1b573d5f803e3d5ffd5b5050565b600460149054906101000a900460ff1681565b5f47905090565b60018054610a46906119dd565b80601f0160208091040260200160405190810160405280929190818152602001828054610a72906119dd565b8015610abd5780601f10610a9457610100808354040283529160200191610abd565b820191905f5260205f20905b815481529060010190602001808311610aa057829003601f168201915b505050505081565b60045f9054906101000a900473ffffffffffffffffffffffffffffffffffffffff1673ffffffffffffffffffffffffffffffffffffffff163373ffffffffffffffffffffffffffffffffffffffff1614610b54576040517f08c379a0000000000000000000000000000000000000000000000000000000008152600401610b4b90611a57565b60405180910390fd5b6005805490508110610b9b576040517f08c379a0000000000000000000000000000000000000000000000000000000008152600401610b9290611d00565b60405180910390fd5b60056001600580549050610baf9190611d1e565b81548110610bc057610bbf611d51565b5b905f5260205f20906003020160058281548110610be057610bdf611d51565b5b905f5260205f2090600302015f8201815f019081610bfe9190611f30565b5060018201548160010155600282015481600201559050506005805480610c2857610c27612015565b5b600190038181905f5260205f2090600302015f8082015f610c499190611346565b600182015f9055600282015f90555050905550565b5f60065f8473ffffffffffffffffffffffffffffffffffffffff1673ffffffffffffffffffffffffffffffffffffffff1681526020019081526020015f206001015f8381526020019081526020015f205f9054906101000a900460ff16905092915050565b60045f9054906101000a900473ffffffffffffffffffffffffffffffffffffffff1681565b60045f9054906101000a900473ffffffffffffffffffffffffffffffffffffffff1673ffffffffffffffffffffffffffffffffffffffff163373ffffffffffffffffffffffffffffffffffffffff1614610d77576040517f08c379a0000000000000000000000000000000000000000000000000000000008152600401610d6e90611a57565b60405180910390fd5b5f8111610db9576040517f08c379a0000000000000000000000000000000000000000000000000000000008152600401610db09061208c565b60405180910390fd5b600560405180606001604052808481526020018381526020015f815250908060018154018082558091505060019003905f5260205f2090600302015f909190919091505f820151815f019081610e0f91906120aa565b50602082015181600101556040820151816002015550505050565b6006602052805f5260405f205f91509050805f0154905081565b600460159054906101000a900460ff1681565b60045f9054906101000a900473ffffffffffffffffffffffffffffffffffffffff1673ffffffffffffffffffffffffffffffffffffffff163373ffffffffffffffffffffffffffffffffffffffff1614610ee6576040517f08c379a0000000000000000000000000000000000000000000000000000000008152600401610edd90611a57565b60405180910390fd5b600460149054906101000a900460ff1615600460146101000a81548160ff021916908315150217905550565b5f6002811115610f2557610f246114e8565b5b600460159054906101000a900460ff166002811115610f4757610f466114e8565b5b14610f87576040517f08c379a0000000000000000000000000000000000000000000000000000000008152600401610f7e90611abf565b60405180910390fd5b600460149054906101000a900460ff1615610fd7576040517f08c379a0000000000000000000000000000000000000000000000000000000008152600401610fce906121c3565b60405180910390fd5b600580549050811061101e576040517f08c379a00000000000000000000000000000000000000000000000000000000081526004016110159061222b565b60405180910390fd5b6005818154811061103257611031611d51565b5b905f5260205f209060030201600101543414611083576040517f08c379a000000000000000000000000000000000000000000000000000000000815260040161107a90612293565b60405180910390fd5b6005818154811061109757611096611d51565b5b905f5260205f2090600302016002015f8154809291906110b6906122b1565b91905055503460065f3373ffffffffffffffffffffffffffffffffffffffff1673ffffffffffffffffffffffffffffffffffffffff1681526020019081526020015f205f015f8282546111099190611b4b565b92505081905550600160065f3373ffffffffffffffffffffffffffffffffffffffff1673ffffffffffffffffffffffffffffffffffffffff1681526020019081526020015f206001015f8381526020019081526020015f205f6101000a81548160ff02191690831515021790555061117f611281565b50565b60606005805480602002602001604051908101604052809291908181526020015f905b82821015611278578382905f5260205f2090600302016040518060600160405290815f820180546111d5906119dd565b80601f0160208091040260200160405190810160405280929190818152602001828054611201906119dd565b801561124c5780601f106112235761010080835404028352916020019161124c565b820191905f5260205f20905b81548152906001019060200180831161122f57829003601f168201915b5050505050815260200160018201548152602001600282015481525050815260200190600101906111a5565b50505050905090565b5f6002811115611294576112936114e8565b5b600460159054906101000a900460ff1660028111156112b6576112b56114e8565b5b03611344576003544210611306576002544710156112d55760026112d8565b60015b600460156101000a81548160ff021916908360028111156112fc576112fb6114e8565b5b0217905550611343565b600254471015611316575f611319565b60015b600460156101000a81548160ff0219169083600281111561133d5761133c6114e8565b5b02179055505b5b565b508054611352906119dd565b5f825580601f106113635750611380565b601f0160209004905f5260205f209081019061137f9190611383565b5b50565b5b8082111561139a575f815f905550600101611384565b5090565b5f604051905090565b5f80fd5b5f80fd5b5f819050919050565b6113c1816113af565b81146113cb575f80fd5b50565b5f813590506113dc816113b8565b92915050565b5f602082840312156113f7576113f66113a7565b5b5f611404848285016113ce565b91505092915050565b5f81519050919050565b5f82825260208201905092915050565b8281835e5f83830152505050565b5f601f19601f8301169050919050565b5f61144f8261140d565b6114598185611417565b9350611469818560208601611427565b61147281611435565b840191505092915050565b611486816113af565b82525050565b5f6060820190508181035f8301526114a48186611445565b90506114b3602083018561147d565b6114c0604083018461147d565b949350505050565b5f6020820190508181035f8301526114e08184611445565b905092915050565b7f4e487b71000000000000000000000000000000000000000000000000000000005f52602160045260245ffd5b60038110611526576115256114e8565b5b50565b5f81905061153682611515565b919050565b5f61154582611529565b9050919050565b6115558161153b565b82525050565b5f60208201905061156e5f83018461154c565b92915050565b5f6020820190506115875f83018461147d565b92915050565b5f8115159050919050565b6115a18161158d565b82525050565b5f6020820190506115ba5f830184611598565b92915050565b5f73ffffffffffffffffffffffffffffffffffffffff82169050919050565b5f6115e9826115c0565b9050919050565b6115f9816115df565b8114611603575f80fd5b50565b5f81359050611614816115f0565b92915050565b5f80604083850312156116305761162f6113a7565b5b5f61163d85828601611606565b925050602061164e858286016113ce565b9150509250929050565b611661816115df565b82525050565b5f60208201905061167a5f830184611658565b92915050565b5f80fd5b5f80fd5b7f4e487b71000000000000000000000000000000000000000000000000000000005f52604160045260245ffd5b6116be82611435565b810181811067ffffffffffffffff821117156116dd576116dc611688565b5b80604052505050565b5f6116ef61139e565b90506116fb82826116b5565b919050565b5f67ffffffffffffffff82111561171a57611719611688565b5b61172382611435565b9050602081019050919050565b828183375f83830152505050565b5f61175061174b84611700565b6116e6565b90508281526020810184848401111561176c5761176b611684565b5b611777848285611730565b509392505050565b5f82601f83011261179357611792611680565b5b81356117a384826020860161173e565b91505092915050565b5f80604083850312156117c2576117c16113a7565b5b5f83013567ffffffffffffffff8111156117df576117de6113ab565b5b6117eb8582860161177f565b92505060206117fc858286016113ce565b9150509250929050565b5f6020828403121561181b5761181a6113a7565b5b5f61182884828501611606565b91505092915050565b5f81519050919050565b5f82825260208201905092915050565b5f819050602082019050919050565b5f82825260208201905092915050565b5f6118748261140d565b61187e818561185a565b935061188e818560208601611427565b61189781611435565b840191505092915050565b6118ab816113af565b82525050565b5f606083015f8301518482035f8601526118cb828261186a565b91505060208301516118e060208601826118a2565b5060408301516118f360408601826118a2565b508091505092915050565b5f61190983836118b1565b905092915050565b5f602082019050919050565b5f61192782611831565b611931818561183b565b9350836020820285016119438561184b565b805f5b8581101561197e578484038952815161195f85826118fe565b945061196a83611911565b925060208a01995050600181019050611946565b50829750879550505050505092915050565b5f6020820190508181035f8301526119a8818461191d565b905092915050565b7f4e487b71000000000000000000000000000000000000000000000000000000005f52602260045260245ffd5b5f60028204905060018216806119f457607f821691505b602082108103611a0757611a066119b0565b5b50919050565b7f4e6f7420746865206f776e6572000000000000000000000000000000000000005f82015250565b5f611a41600d83611417565b9150611a4c82611a0d565b602082019050919050565b5f6020820190508181035f830152611a6e81611a35565b9050919050565b7f43616d706961676e206973206e6f7420616374697665000000000000000000005f82015250565b5f611aa9601683611417565b9150611ab482611a75565b602082019050919050565b5f6020820190508181035f830152611ad681611a9d565b9050919050565b7f4e487b71000000000000000000000000000000000000000000000000000000005f52601160045260245ffd5b5f611b14826113af565b9150611b1f836113af565b9250828202611b2d816113af565b91508282048414831517611b4457611b43611add565b5b5092915050565b5f611b55826113af565b9150611b60836113af565b9250828201905080821115611b7857611b77611add565b5b92915050565b7f43616d706169676e206e6f207375636365737366756c207965742e00000000005f82015250565b5f611bb2601b83611417565b9150611bbd82611b7e565b602082019050919050565b5f6020820190508181035f830152611bdf81611ba6565b9050919050565b7f4e6f2062616c616e636520746f207769746864726177000000000000000000005f82015250565b5f611c1a601683611417565b9150611c2582611be6565b602082019050919050565b5f6020820190508181035f830152611c4781611c0e565b9050919050565b7f4e6f20636f6e747269627574696f6e20746f20726566756e64000000000000005f82015250565b5f611c82601983611417565b9150611c8d82611c4e565b602082019050919050565b5f6020820190508181035f830152611caf81611c76565b9050919050565b7f5469657220646f6573206e6f74206578697374000000000000000000000000005f82015250565b5f611cea601383611417565b9150611cf582611cb6565b602082019050919050565b5f6020820190508181035f830152611d1781611cde565b9050919050565b5f611d28826113af565b9150611d33836113af565b9250828203905081811115611d4b57611d4a611add565b5b92915050565b7f4e487b71000000000000000000000000000000000000000000000000000000005f52603260045260245ffd5b5f81549050611d8c816119dd565b9050919050565b5f819050815f5260205f209050919050565b5f6020601f8301049050919050565b5f82821b905092915050565b5f60088302611def7fffffffffffffffffffffffffffffffffffffffffffffffffffffffffffffffff82611db4565b611df98683611db4565b95508019841693508086168417925050509392505050565b5f819050919050565b5f611e34611e2f611e2a846113af565b611e11565b6113af565b9050919050565b5f819050919050565b611e4d83611e1a565b611e61611e5982611e3b565b848454611dc0565b825550505050565b5f90565b611e75611e69565b611e80818484611e44565b505050565b5b81811015611ea357611e985f82611e6d565b600181019050611e86565b5050565b601f821115611ee857611eb981611d93565b611ec284611da5565b81016020851015611ed1578190505b611ee5611edd85611da5565b830182611e85565b50505b505050565b5f82821c905092915050565b5f611f085f1984600802611eed565b1980831691505092915050565b5f611f208383611ef9565b9150826002028217905092915050565b818103611f3e575050612013565b611f4782611d7e565b67ffffffffffffffff811115611f6057611f5f611688565b5b611f6a82546119dd565b611f75828285611ea7565b5f601f831160018114611fa2575f8415611f90578287015490505b611f9a8582611f15565b86555061200c565b601f198416611fb087611d93565b9650611fbb86611d93565b5f5b82811015611fe257848901548255600182019150600185019450602081019050611fbd565b86831015611fff5784890154611ffb601f891682611ef9565b8355505b6001600288020188555050505b5050505050505b565b7f4e487b71000000000000000000000000000000000000000000000000000000005f52603160045260245ffd5b7f416d6f756e74206d7573742062652067726561746572207468616e204f2e00005f82015250565b5f612076601e83611417565b915061208182612042565b602082019050919050565b5f6020820190508181035f8301526120a38161206a565b9050919050565b6120b38261140d565b67ffffffffffffffff8111156120cc576120cb611688565b5b6120d682546119dd565b6120e1828285611ea7565b5f60209050601f831160018114612112575f8415612100578287015190505b61210a8582611f15565b865550612171565b601f19841661212086611d93565b5f5b8281101561214757848901518255600182019150602085019450602081019050612122565b868310156121645784890151612160601f891682611ef9565b8355505b6001600288020188555050505b505050505050565b7f436f6e7472616374206973207061757365642e000000000000000000000000005f82015250565b5f6121ad601383611417565b91506121b882612179565b602082019050919050565b5f6020820190508181035f8301526121da816121a1565b9050919050565b7f496e76616c696420546965722e000000000000000000000000000000000000005f82015250565b5f612215600d83611417565b9150612220826121e1565b602082019050919050565b5f6020820190508181035f83015261224281612209565b9050919050565b7f496e636f727265637420416d6f756e74000000000000000000000000000000005f82015250565b5f61227d601083611417565b915061228882612249565b602082019050919050565b5f6020820190508181035f8301526122aa81612271565b9050919050565b5f6122bb826113af565b91507fffffffffffffffffffffffffffffffffffffffffffffffffffffffffffffffff82036122ed576122ec611add565b5b60018201905091905056fea26469706673582212203031a8cb67cd19492282f7d82d3c169c52354da7b102078bffa3d3441878eb4c64736f6c634300081a0033",
					"opcodes": "PUSH1 0x80 PUSH1 0x40 MSTORE CALLVALUE DUP1 ISZERO PUSH2 0xF JUMPI PUSH0 DUP1 REVERT JUMPDEST POP PUSH1 0x40 MLOAD PUSH2 0x29E2 CODESIZE SUB DUP1 PUSH2 0x29E2 DUP4 CODECOPY DUP2 DUP2 ADD PUSH1 0x40 MSTORE DUP2 ADD SWAP1 PUSH2 0x31 SWAP2 SWAP1 PUSH2 0x26A JUMP JUMPDEST DUP4 PUSH0 SWAP1 DUP2 PUSH2 0x3F SWAP2 SWAP1 PUSH2 0x50A JUMP JUMPDEST POP DUP3 PUSH1 0x1 SWAP1 DUP2 PUSH2 0x4F SWAP2 SWAP1 PUSH2 0x50A JUMP JUMPDEST POP DUP2 PUSH1 0x2 DUP2 SWAP1 SSTORE POP PUSH3 0x15180 DUP2 PUSH2 0x66 SWAP2 SWAP1 PUSH2 0x606 JUMP JUMPDEST TIMESTAMP PUSH2 0x71 SWAP2 SWAP1 PUSH2 0x647 JUMP JUMPDEST PUSH1 0x3 DUP2 SWAP1 SSTORE POP CALLER PUSH1 0x4 PUSH0 PUSH2 0x100 EXP DUP2 SLOAD DUP2 PUSH20 0xFFFFFFFFFFFFFFFFFFFFFFFFFFFFFFFFFFFFFFFF MUL NOT AND SWAP1 DUP4 PUSH20 0xFFFFFFFFFFFFFFFFFFFFFFFFFFFFFFFFFFFFFFFF AND MUL OR SWAP1 SSTORE POP PUSH0 PUSH1 0x4 PUSH1 0x15 PUSH2 0x100 EXP DUP2 SLOAD DUP2 PUSH1 0xFF MUL NOT AND SWAP1 DUP4 PUSH1 0x2 DUP2 GT ISZERO PUSH2 0xDC JUMPI PUSH2 0xDB PUSH2 0x67A JUMP JUMPDEST JUMPDEST MUL OR SWAP1 SSTORE POP POP POP POP POP PUSH2 0x6A7 JUMP JUMPDEST PUSH0 PUSH1 0x40 MLOAD SWAP1 POP SWAP1 JUMP JUMPDEST PUSH0 DUP1 REVERT JUMPDEST PUSH0 DUP1 REVERT JUMPDEST PUSH0 DUP1 REVERT JUMPDEST PUSH0 DUP1 REVERT JUMPDEST PUSH0 PUSH1 0x1F NOT PUSH1 0x1F DUP4 ADD AND SWAP1 POP SWAP2 SWAP1 POP JUMP JUMPDEST PUSH32 0x4E487B7100000000000000000000000000000000000000000000000000000000 PUSH0 MSTORE PUSH1 0x41 PUSH1 0x4 MSTORE PUSH1 0x24 PUSH0 REVERT JUMPDEST PUSH2 0x149 DUP3 PUSH2 0x103 JUMP JUMPDEST DUP2 ADD DUP2 DUP2 LT PUSH8 0xFFFFFFFFFFFFFFFF DUP3 GT OR ISZERO PUSH2 0x168 JUMPI PUSH2 0x167 PUSH2 0x113 JUMP JUMPDEST JUMPDEST DUP1 PUSH1 0x40 MSTORE POP POP POP JUMP JUMPDEST PUSH0 PUSH2 0x17A PUSH2 0xEA JUMP JUMPDEST SWAP1 POP PUSH2 0x186 DUP3 DUP3 PUSH2 0x140 JUMP JUMPDEST SWAP2 SWAP1 POP JUMP JUMPDEST PUSH0 PUSH8 0xFFFFFFFFFFFFFFFF DUP3 GT ISZERO PUSH2 0x1A5 JUMPI PUSH2 0x1A4 PUSH2 0x113 JUMP JUMPDEST JUMPDEST PUSH2 0x1AE DUP3 PUSH2 0x103 JUMP JUMPDEST SWAP1 POP PUSH1 0x20 DUP2 ADD SWAP1 POP SWAP2 SWAP1 POP JUMP JUMPDEST DUP3 DUP2 DUP4 MCOPY PUSH0 DUP4 DUP4 ADD MSTORE POP POP POP JUMP JUMPDEST PUSH0 PUSH2 0x1DB PUSH2 0x1D6 DUP5 PUSH2 0x18B JUMP JUMPDEST PUSH2 0x171 JUMP JUMPDEST SWAP1 POP DUP3 DUP2 MSTORE PUSH1 0x20 DUP2 ADD DUP5 DUP5 DUP5 ADD GT ISZERO PUSH2 0x1F7 JUMPI PUSH2 0x1F6 PUSH2 0xFF JUMP JUMPDEST JUMPDEST PUSH2 0x202 DUP5 DUP3 DUP6 PUSH2 0x1BB JUMP JUMPDEST POP SWAP4 SWAP3 POP POP POP JUMP JUMPDEST PUSH0 DUP3 PUSH1 0x1F DUP4 ADD SLT PUSH2 0x21E JUMPI PUSH2 0x21D PUSH2 0xFB JUMP JUMPDEST JUMPDEST DUP2 MLOAD PUSH2 0x22E DUP5 DUP3 PUSH1 0x20 DUP7 ADD PUSH2 0x1C9 JUMP JUMPDEST SWAP2 POP POP SWAP3 SWAP2 POP POP JUMP JUMPDEST PUSH0 DUP2 SWAP1 POP SWAP2 SWAP1 POP JUMP JUMPDEST PUSH2 0x249 DUP2 PUSH2 0x237 JUMP JUMPDEST DUP2 EQ PUSH2 0x253 JUMPI PUSH0 DUP1 REVERT JUMPDEST POP JUMP JUMPDEST PUSH0 DUP2 MLOAD SWAP1 POP PUSH2 0x264 DUP2 PUSH2 0x240 JUMP JUMPDEST SWAP3 SWAP2 POP POP JUMP JUMPDEST PUSH0 DUP1 PUSH0 DUP1 PUSH1 0x80 DUP6 DUP8 SUB SLT ISZERO PUSH2 0x282 JUMPI PUSH2 0x281 PUSH2 0xF3 JUMP JUMPDEST JUMPDEST PUSH0 DUP6 ADD MLOAD PUSH8 0xFFFFFFFFFFFFFFFF DUP2 GT ISZERO PUSH2 0x29F JUMPI PUSH2 0x29E PUSH2 0xF7 JUMP JUMPDEST JUMPDEST PUSH2 0x2AB DUP8 DUP3 DUP9 ADD PUSH2 0x20A JUMP JUMPDEST SWAP5 POP POP PUSH1 0x20 DUP6 ADD MLOAD PUSH8 0xFFFFFFFFFFFFFFFF DUP2 GT ISZERO PUSH2 0x2CC JUMPI PUSH2 0x2CB PUSH2 0xF7 JUMP JUMPDEST JUMPDEST PUSH2 0x2D8 DUP8 DUP3 DUP9 ADD PUSH2 0x20A JUMP JUMPDEST SWAP4 POP POP PUSH1 0x40 PUSH2 0x2E9 DUP8 DUP3 DUP9 ADD PUSH2 0x256 JUMP JUMPDEST SWAP3 POP POP PUSH1 0x60 PUSH2 0x2FA DUP8 DUP3 DUP9 ADD PUSH2 0x256 JUMP JUMPDEST SWAP2 POP POP SWAP3 SWAP6 SWAP2 SWAP5 POP SWAP3 POP JUMP JUMPDEST PUSH0 DUP2 MLOAD SWAP1 POP SWAP2 SWAP1 POP JUMP JUMPDEST PUSH32 0x4E487B7100000000000000000000000000000000000000000000000000000000 PUSH0 MSTORE PUSH1 0x22 PUSH1 0x4 MSTORE PUSH1 0x24 PUSH0 REVERT JUMPDEST PUSH0 PUSH1 0x2 DUP3 DIV SWAP1 POP PUSH1 0x1 DUP3 AND DUP1 PUSH2 0x354 JUMPI PUSH1 0x7F DUP3 AND SWAP2 POP JUMPDEST PUSH1 0x20 DUP3 LT DUP2 SUB PUSH2 0x367 JUMPI PUSH2 0x366 PUSH2 0x310 JUMP JUMPDEST JUMPDEST POP SWAP2 SWAP1 POP JUMP JUMPDEST PUSH0 DUP2 SWAP1 POP DUP2 PUSH0 MSTORE PUSH1 0x20 PUSH0 KECCAK256 SWAP1 POP SWAP2 SWAP1 POP JUMP JUMPDEST PUSH0 PUSH1 0x20 PUSH1 0x1F DUP4 ADD DIV SWAP1 POP SWAP2 SWAP1 POP JUMP JUMPDEST PUSH0 DUP3 DUP3 SHL SWAP1 POP SWAP3 SWAP2 POP POP JUMP JUMPDEST PUSH0 PUSH1 0x8 DUP4 MUL PUSH2 0x3C9 PUSH32 0xFFFFFFFFFFFFFFFFFFFFFFFFFFFFFFFFFFFFFFFFFFFFFFFFFFFFFFFFFFFFFFFF DUP3 PUSH2 0x38E JUMP JUMPDEST PUSH2 0x3D3 DUP7 DUP4 PUSH2 0x38E JUMP JUMPDEST SWAP6 POP DUP1 NOT DUP5 AND SWAP4 POP DUP1 DUP7 AND DUP5 OR SWAP3 POP POP POP SWAP4 SWAP3 POP POP POP JUMP JUMPDEST PUSH0 DUP2 SWAP1 POP SWAP2 SWAP1 POP JUMP JUMPDEST PUSH0 PUSH2 0x40E PUSH2 0x409 PUSH2 0x404 DUP5 PUSH2 0x237 JUMP JUMPDEST PUSH2 0x3EB JUMP JUMPDEST PUSH2 0x237 JUMP JUMPDEST SWAP1 POP SWAP2 SWAP1 POP JUMP JUMPDEST PUSH0 DUP2 SWAP1 POP SWAP2 SWAP1 POP JUMP JUMPDEST PUSH2 0x427 DUP4 PUSH2 0x3F4 JUMP JUMPDEST PUSH2 0x43B PUSH2 0x433 DUP3 PUSH2 0x415 JUMP JUMPDEST DUP5 DUP5 SLOAD PUSH2 0x39A JUMP JUMPDEST DUP3 SSTORE POP POP POP POP JUMP JUMPDEST PUSH0 SWAP1 JUMP JUMPDEST PUSH2 0x44F PUSH2 0x443 JUMP JUMPDEST PUSH2 0x45A DUP2 DUP5 DUP5 PUSH2 0x41E JUMP JUMPDEST POP POP POP JUMP JUMPDEST JUMPDEST DUP2 DUP2 LT ISZERO PUSH2 0x47D JUMPI PUSH2 0x472 PUSH0 DUP3 PUSH2 0x447 JUMP JUMPDEST PUSH1 0x1 DUP2 ADD SWAP1 POP PUSH2 0x460 JUMP JUMPDEST POP POP JUMP JUMPDEST PUSH1 0x1F DUP3 GT ISZERO PUSH2 0x4C2 JUMPI PUSH2 0x493 DUP2 PUSH2 0x36D JUMP JUMPDEST PUSH2 0x49C DUP5 PUSH2 0x37F JUMP JUMPDEST DUP2 ADD PUSH1 0x20 DUP6 LT ISZERO PUSH2 0x4AB JUMPI DUP2 SWAP1 POP JUMPDEST PUSH2 0x4BF PUSH2 0x4B7 DUP6 PUSH2 0x37F JUMP JUMPDEST DUP4 ADD DUP3 PUSH2 0x45F JUMP JUMPDEST POP POP JUMPDEST POP POP POP JUMP JUMPDEST PUSH0 DUP3 DUP3 SHR SWAP1 POP SWAP3 SWAP2 POP POP JUMP JUMPDEST PUSH0 PUSH2 0x4E2 PUSH0 NOT DUP5 PUSH1 0x8 MUL PUSH2 0x4C7 JUMP JUMPDEST NOT DUP1 DUP4 AND SWAP2 POP POP SWAP3 SWAP2 POP POP JUMP JUMPDEST PUSH0 PUSH2 0x4FA DUP4 DUP4 PUSH2 0x4D3 JUMP JUMPDEST SWAP2 POP DUP3 PUSH1 0x2 MUL DUP3 OR SWAP1 POP SWAP3 SWAP2 POP POP JUMP JUMPDEST PUSH2 0x513 DUP3 PUSH2 0x306 JUMP JUMPDEST PUSH8 0xFFFFFFFFFFFFFFFF DUP2 GT ISZERO PUSH2 0x52C JUMPI PUSH2 0x52B PUSH2 0x113 JUMP JUMPDEST JUMPDEST PUSH2 0x536 DUP3 SLOAD PUSH2 0x33D JUMP JUMPDEST PUSH2 0x541 DUP3 DUP3 DUP6 PUSH2 0x481 JUMP JUMPDEST PUSH0 PUSH1 0x20 SWAP1 POP PUSH1 0x1F DUP4 GT PUSH1 0x1 DUP2 EQ PUSH2 0x572 JUMPI PUSH0 DUP5 ISZERO PUSH2 0x560 JUMPI DUP3 DUP8 ADD MLOAD SWAP1 POP JUMPDEST PUSH2 0x56A DUP6 DUP3 PUSH2 0x4EF JUMP JUMPDEST DUP7 SSTORE POP PUSH2 0x5D1 JUMP JUMPDEST PUSH1 0x1F NOT DUP5 AND PUSH2 0x580 DUP7 PUSH2 0x36D JUMP JUMPDEST PUSH0 JUMPDEST DUP3 DUP2 LT ISZERO PUSH2 0x5A7 JUMPI DUP5 DUP10 ADD MLOAD DUP3 SSTORE PUSH1 0x1 DUP3 ADD SWAP2 POP PUSH1 0x20 DUP6 ADD SWAP5 POP PUSH1 0x20 DUP2 ADD SWAP1 POP PUSH2 0x582 JUMP JUMPDEST DUP7 DUP4 LT ISZERO PUSH2 0x5C4 JUMPI DUP5 DUP10 ADD MLOAD PUSH2 0x5C0 PUSH1 0x1F DUP10 AND DUP3 PUSH2 0x4D3 JUMP JUMPDEST DUP4 SSTORE POP JUMPDEST PUSH1 0x1 PUSH1 0x2 DUP9 MUL ADD DUP9 SSTORE POP POP POP JUMPDEST POP POP POP POP POP POP JUMP JUMPDEST PUSH32 0x4E487B7100000000000000000000000000000000000000000000000000000000 PUSH0 MSTORE PUSH1 0x11 PUSH1 0x4 MSTORE PUSH1 0x24 PUSH0 REVERT JUMPDEST PUSH0 PUSH2 0x610 DUP3 PUSH2 0x237 JUMP JUMPDEST SWAP2 POP PUSH2 0x61B DUP4 PUSH2 0x237 JUMP JUMPDEST SWAP3 POP DUP3 DUP3 MUL PUSH2 0x629 DUP2 PUSH2 0x237 JUMP JUMPDEST SWAP2 POP DUP3 DUP3 DIV DUP5 EQ DUP4 ISZERO OR PUSH2 0x640 JUMPI PUSH2 0x63F PUSH2 0x5D9 JUMP JUMPDEST JUMPDEST POP SWAP3 SWAP2 POP POP JUMP JUMPDEST PUSH0 PUSH2 0x651 DUP3 PUSH2 0x237 JUMP JUMPDEST SWAP2 POP PUSH2 0x65C DUP4 PUSH2 0x237 JUMP JUMPDEST SWAP3 POP DUP3 DUP3 ADD SWAP1 POP DUP1 DUP3 GT ISZERO PUSH2 0x674 JUMPI PUSH2 0x673 PUSH2 0x5D9 JUMP JUMPDEST JUMPDEST SWAP3 SWAP2 POP POP JUMP JUMPDEST PUSH32 0x4E487B7100000000000000000000000000000000000000000000000000000000 PUSH0 MSTORE PUSH1 0x21 PUSH1 0x4 MSTORE PUSH1 0x24 PUSH0 REVERT JUMPDEST PUSH2 0x232E DUP1 PUSH2 0x6B4 PUSH0 CODECOPY PUSH0 RETURN INVALID PUSH1 0x80 PUSH1 0x40 MSTORE PUSH1 0x4 CALLDATASIZE LT PUSH2 0x11E JUMPI PUSH0 CALLDATALOAD PUSH1 0xE0 SHR DUP1 PUSH4 0x7284E416 GT PUSH2 0x9F JUMPI DUP1 PUSH4 0xB85DFB80 GT PUSH2 0x63 JUMPI DUP1 PUSH4 0xB85DFB80 EQ PUSH2 0x390 JUMPI DUP1 PUSH4 0xC19D93FB EQ PUSH2 0x3CC JUMPI DUP1 PUSH4 0xC4AE3168 EQ PUSH2 0x3F6 JUMPI DUP1 PUSH4 0xCA1D209D EQ PUSH2 0x40C JUMPI DUP1 PUSH4 0xDE170570 EQ PUSH2 0x428 JUMPI PUSH2 0x11E JUMP JUMPDEST DUP1 PUSH4 0x7284E416 EQ PUSH2 0x2B0 JUMPI DUP1 PUSH4 0x7497211B EQ PUSH2 0x2DA JUMPI DUP1 PUSH4 0x7ADBA527 EQ PUSH2 0x302 JUMPI DUP1 PUSH4 0x8DA5CB5B EQ PUSH2 0x33E JUMPI DUP1 PUSH4 0x8ECE7B91 EQ PUSH2 0x368 JUMPI PUSH2 0x11E JUMP JUMPDEST DUP1 PUSH4 0x3CCFD60B GT PUSH2 0xE6 JUMPI DUP1 PUSH4 0x3CCFD60B EQ PUSH2 0x206 JUMPI DUP1 PUSH4 0x40193883 EQ PUSH2 0x21C JUMPI DUP1 PUSH4 0x590E1AE3 EQ PUSH2 0x246 JUMPI DUP1 PUSH4 0x5C975ABB EQ PUSH2 0x25C JUMPI DUP1 PUSH4 0x6F9FB98A EQ PUSH2 0x286 JUMPI PUSH2 0x11E JUMP JUMPDEST DUP1 PUSH4 0x39AF9EB EQ PUSH2 0x122 JUMPI DUP1 PUSH4 0x6FDDE03 EQ PUSH2 0x160 JUMPI DUP1 PUSH4 0x10550515 EQ PUSH2 0x18A JUMPI DUP1 PUSH4 0x29DCB0CF EQ PUSH2 0x1B4 JUMPI DUP1 PUSH4 0x389B7533 EQ PUSH2 0x1DE JUMPI JUMPDEST PUSH0 DUP1 REVERT JUMPDEST CALLVALUE DUP1 ISZERO PUSH2 0x12D JUMPI PUSH0 DUP1 REVERT JUMPDEST POP PUSH2 0x148 PUSH1 0x4 DUP1 CALLDATASIZE SUB DUP2 ADD SWAP1 PUSH2 0x143 SWAP2 SWAP1 PUSH2 0x13E2 JUMP JUMPDEST PUSH2 0x452 JUMP JUMPDEST PUSH1 0x40 MLOAD PUSH2 0x157 SWAP4 SWAP3 SWAP2 SWAP1 PUSH2 0x148C JUMP JUMPDEST PUSH1 0x40 MLOAD DUP1 SWAP2 SUB SWAP1 RETURN JUMPDEST CALLVALUE DUP1 ISZERO PUSH2 0x16B JUMPI PUSH0 DUP1 REVERT JUMPDEST POP PUSH2 0x174 PUSH2 0x50D JUMP JUMPDEST PUSH1 0x40 MLOAD PUSH2 0x181 SWAP2 SWAP1 PUSH2 0x14C8 JUMP JUMPDEST PUSH1 0x40 MLOAD DUP1 SWAP2 SUB SWAP1 RETURN JUMPDEST CALLVALUE DUP1 ISZERO PUSH2 0x195 JUMPI PUSH0 DUP1 REVERT JUMPDEST POP PUSH2 0x19E PUSH2 0x598 JUMP JUMPDEST PUSH1 0x40 MLOAD PUSH2 0x1AB SWAP2 SWAP1 PUSH2 0x155B JUMP JUMPDEST PUSH1 0x40 MLOAD DUP1 SWAP2 SUB SWAP1 RETURN JUMPDEST CALLVALUE DUP1 ISZERO PUSH2 0x1BF JUMPI PUSH0 DUP1 REVERT JUMPDEST POP PUSH2 0x1C8 PUSH2 0x612 JUMP JUMPDEST PUSH1 0x40 MLOAD PUSH2 0x1D5 SWAP2 SWAP1 PUSH2 0x1574 JUMP JUMPDEST PUSH1 0x40 MLOAD DUP1 SWAP2 SUB SWAP1 RETURN JUMPDEST CALLVALUE DUP1 ISZERO PUSH2 0x1E9 JUMPI PUSH0 DUP1 REVERT JUMPDEST POP PUSH2 0x204 PUSH1 0x4 DUP1 CALLDATASIZE SUB DUP2 ADD SWAP1 PUSH2 0x1FF SWAP2 SWAP1 PUSH2 0x13E2 JUMP JUMPDEST PUSH2 0x618 JUMP JUMPDEST STOP JUMPDEST CALLVALUE DUP1 ISZERO PUSH2 0x211 JUMPI PUSH0 DUP1 REVERT JUMPDEST POP PUSH2 0x21A PUSH2 0x745 JUMP JUMPDEST STOP JUMPDEST CALLVALUE DUP1 ISZERO PUSH2 0x227 JUMPI PUSH0 DUP1 REVERT JUMPDEST POP PUSH2 0x230 PUSH2 0x901 JUMP JUMPDEST PUSH1 0x40 MLOAD PUSH2 0x23D SWAP2 SWAP1 PUSH2 0x1574 JUMP JUMPDEST PUSH1 0x40 MLOAD DUP1 SWAP2 SUB SWAP1 RETURN JUMPDEST CALLVALUE DUP1 ISZERO PUSH2 0x251 JUMPI PUSH0 DUP1 REVERT JUMPDEST POP PUSH2 0x25A PUSH2 0x907 JUMP JUMPDEST STOP JUMPDEST CALLVALUE DUP1 ISZERO PUSH2 0x267 JUMPI PUSH0 DUP1 REVERT JUMPDEST POP PUSH2 0x270 PUSH2 0xA1F JUMP JUMPDEST PUSH1 0x40 MLOAD PUSH2 0x27D SWAP2 SWAP1 PUSH2 0x15A7 JUMP JUMPDEST PUSH1 0x40 MLOAD DUP1 SWAP2 SUB SWAP1 RETURN JUMPDEST CALLVALUE DUP1 ISZERO PUSH2 0x291 JUMPI PUSH0 DUP1 REVERT JUMPDEST POP PUSH2 0x29A PUSH2 0xA32 JUMP JUMPDEST PUSH1 0x40 MLOAD PUSH2 0x2A7 SWAP2 SWAP1 PUSH2 0x1574 JUMP JUMPDEST PUSH1 0x40 MLOAD DUP1 SWAP2 SUB SWAP1 RETURN JUMPDEST CALLVALUE DUP1 ISZERO PUSH2 0x2BB JUMPI PUSH0 DUP1 REVERT JUMPDEST POP PUSH2 0x2C4 PUSH2 0xA39 JUMP JUMPDEST PUSH1 0x40 MLOAD PUSH2 0x2D1 SWAP2 SWAP1 PUSH2 0x14C8 JUMP JUMPDEST PUSH1 0x40 MLOAD DUP1 SWAP2 SUB SWAP1 RETURN JUMPDEST CALLVALUE DUP1 ISZERO PUSH2 0x2E5 JUMPI PUSH0 DUP1 REVERT JUMPDEST POP PUSH2 0x300 PUSH1 0x4 DUP1 CALLDATASIZE SUB DUP2 ADD SWAP1 PUSH2 0x2FB SWAP2 SWAP1 PUSH2 0x13E2 JUMP JUMPDEST PUSH2 0xAC5 JUMP JUMPDEST STOP JUMPDEST CALLVALUE DUP1 ISZERO PUSH2 0x30D JUMPI PUSH0 DUP1 REVERT JUMPDEST POP PUSH2 0x328 PUSH1 0x4 DUP1 CALLDATASIZE SUB DUP2 ADD SWAP1 PUSH2 0x323 SWAP2 SWAP1 PUSH2 0x161A JUMP JUMPDEST PUSH2 0xC5E JUMP JUMPDEST PUSH1 0x40 MLOAD PUSH2 0x335 SWAP2 SWAP1 PUSH2 0x15A7 JUMP JUMPDEST PUSH1 0x40 MLOAD DUP1 SWAP2 SUB SWAP1 RETURN JUMPDEST CALLVALUE DUP1 ISZERO PUSH2 0x349 JUMPI PUSH0 DUP1 REVERT JUMPDEST POP PUSH2 0x352 PUSH2 0xCC3 JUMP JUMPDEST PUSH1 0x40 MLOAD PUSH2 0x35F SWAP2 SWAP1 PUSH2 0x1667 JUMP JUMPDEST PUSH1 0x40 MLOAD DUP1 SWAP2 SUB SWAP1 RETURN JUMPDEST CALLVALUE DUP1 ISZERO PUSH2 0x373 JUMPI PUSH0 DUP1 REVERT JUMPDEST POP PUSH2 0x38E PUSH1 0x4 DUP1 CALLDATASIZE SUB DUP2 ADD SWAP1 PUSH2 0x389 SWAP2 SWAP1 PUSH2 0x17AC JUMP JUMPDEST PUSH2 0xCE8 JUMP JUMPDEST STOP JUMPDEST CALLVALUE DUP1 ISZERO PUSH2 0x39B JUMPI PUSH0 DUP1 REVERT JUMPDEST POP PUSH2 0x3B6 PUSH1 0x4 DUP1 CALLDATASIZE SUB DUP2 ADD SWAP1 PUSH2 0x3B1 SWAP2 SWAP1 PUSH2 0x1806 JUMP JUMPDEST PUSH2 0xE2A JUMP JUMPDEST PUSH1 0x40 MLOAD PUSH2 0x3C3 SWAP2 SWAP1 PUSH2 0x1574 JUMP JUMPDEST PUSH1 0x40 MLOAD DUP1 SWAP2 SUB SWAP1 RETURN JUMPDEST CALLVALUE DUP1 ISZERO PUSH2 0x3D7 JUMPI PUSH0 DUP1 REVERT JUMPDEST POP PUSH2 0x3E0 PUSH2 0xE44 JUMP JUMPDEST PUSH1 0x40 MLOAD PUSH2 0x3ED SWAP2 SWAP1 PUSH2 0x155B JUMP JUMPDEST PUSH1 0x40 MLOAD DUP1 SWAP2 SUB SWAP1 RETURN JUMPDEST CALLVALUE DUP1 ISZERO PUSH2 0x401 JUMPI PUSH0 DUP1 REVERT JUMPDEST POP PUSH2 0x40A PUSH2 0xE57 JUMP JUMPDEST STOP JUMPDEST PUSH2 0x426 PUSH1 0x4 DUP1 CALLDATASIZE SUB DUP2 ADD SWAP1 PUSH2 0x421 SWAP2 SWAP1 PUSH2 0x13E2 JUMP JUMPDEST PUSH2 0xF12 JUMP JUMPDEST STOP JUMPDEST CALLVALUE DUP1 ISZERO PUSH2 0x433 JUMPI PUSH0 DUP1 REVERT JUMPDEST POP PUSH2 0x43C PUSH2 0x1182 JUMP JUMPDEST PUSH1 0x40 MLOAD PUSH2 0x449 SWAP2 SWAP1 PUSH2 0x1990 JUMP JUMPDEST PUSH1 0x40 MLOAD DUP1 SWAP2 SUB SWAP1 RETURN JUMPDEST PUSH1 0x5 DUP2 DUP2 SLOAD DUP2 LT PUSH2 0x461 JUMPI PUSH0 DUP1 REVERT JUMPDEST SWAP1 PUSH0 MSTORE PUSH1 0x20 PUSH0 KECCAK256 SWAP1 PUSH1 0x3 MUL ADD PUSH0 SWAP2 POP SWAP1 POP DUP1 PUSH0 ADD DUP1 SLOAD PUSH2 0x480 SWAP1 PUSH2 0x19DD JUMP JUMPDEST DUP1 PUSH1 0x1F ADD PUSH1 0x20 DUP1 SWAP2 DIV MUL PUSH1 0x20 ADD PUSH1 0x40 MLOAD SWAP1 DUP2 ADD PUSH1 0x40 MSTORE DUP1 SWAP3 SWAP2 SWAP1 DUP2 DUP2 MSTORE PUSH1 0x20 ADD DUP3 DUP1 SLOAD PUSH2 0x4AC SWAP1 PUSH2 0x19DD JUMP JUMPDEST DUP1 ISZERO PUSH2 0x4F7 JUMPI DUP1 PUSH1 0x1F LT PUSH2 0x4CE JUMPI PUSH2 0x100 DUP1 DUP4 SLOAD DIV MUL DUP4 MSTORE SWAP2 PUSH1 0x20 ADD SWAP2 PUSH2 0x4F7 JUMP JUMPDEST DUP3 ADD SWAP2 SWAP1 PUSH0 MSTORE PUSH1 0x20 PUSH0 KECCAK256 SWAP1 JUMPDEST DUP2 SLOAD DUP2 MSTORE SWAP1 PUSH1 0x1 ADD SWAP1 PUSH1 0x20 ADD DUP1 DUP4 GT PUSH2 0x4DA JUMPI DUP3 SWAP1 SUB PUSH1 0x1F AND DUP3 ADD SWAP2 JUMPDEST POP POP POP POP POP SWAP1 DUP1 PUSH1 0x1 ADD SLOAD SWAP1 DUP1 PUSH1 0x2 ADD SLOAD SWAP1 POP DUP4 JUMP JUMPDEST PUSH0 DUP1 SLOAD PUSH2 0x519 SWAP1 PUSH2 0x19DD JUMP JUMPDEST DUP1 PUSH1 0x1F ADD PUSH1 0x20 DUP1 SWAP2 DIV MUL PUSH1 0x20 ADD PUSH1 0x40 MLOAD SWAP1 DUP2 ADD PUSH1 0x40 MSTORE DUP1 SWAP3 SWAP2 SWAP1 DUP2 DUP2 MSTORE PUSH1 0x20 ADD DUP3 DUP1 SLOAD PUSH2 0x545 SWAP1 PUSH2 0x19DD JUMP JUMPDEST DUP1 ISZERO PUSH2 0x590 JUMPI DUP1 PUSH1 0x1F LT PUSH2 0x567 JUMPI PUSH2 0x100 DUP1 DUP4 SLOAD DIV MUL DUP4 MSTORE SWAP2 PUSH1 0x20 ADD SWAP2 PUSH2 0x590 JUMP JUMPDEST DUP3 ADD SWAP2 SWAP1 PUSH0 MSTORE PUSH1 0x20 PUSH0 KECCAK256 SWAP1 JUMPDEST DUP2 SLOAD DUP2 MSTORE SWAP1 PUSH1 0x1 ADD SWAP1 PUSH1 0x20 ADD DUP1 DUP4 GT PUSH2 0x573 JUMPI DUP3 SWAP1 SUB PUSH1 0x1F AND DUP3 ADD SWAP2 JUMPDEST POP POP POP POP POP DUP2 JUMP JUMPDEST PUSH0 DUP1 PUSH1 0x2 DUP2 GT ISZERO PUSH2 0x5AC JUMPI PUSH2 0x5AB PUSH2 0x14E8 JUMP JUMPDEST JUMPDEST PUSH1 0x4 PUSH1 0x15 SWAP1 SLOAD SWAP1 PUSH2 0x100 EXP SWAP1 DIV PUSH1 0xFF AND PUSH1 0x2 DUP2 GT ISZERO PUSH2 0x5CE JUMPI PUSH2 0x5CD PUSH2 0x14E8 JUMP JUMPDEST JUMPDEST EQ DUP1 ISZERO PUSH2 0x5DC JUMPI POP PUSH1 0x3 SLOAD TIMESTAMP GT JUMPDEST ISZERO PUSH2 0x5FC JUMPI PUSH1 0x2 SLOAD SELFBALANCE LT ISZERO PUSH2 0x5F2 JUMPI PUSH1 0x2 PUSH2 0x5F5 JUMP JUMPDEST PUSH1 0x1 JUMPDEST SWAP1 POP PUSH2 0x60F JUMP JUMPDEST PUSH1 0x4 PUSH1 0x15 SWAP1 SLOAD SWAP1 PUSH2 0x100 EXP SWAP1 DIV PUSH1 0xFF AND SWAP1 POP JUMPDEST SWAP1 JUMP JUMPDEST PUSH1 0x3 SLOAD DUP2 JUMP JUMPDEST PUSH1 0x4 PUSH0 SWAP1 SLOAD SWAP1 PUSH2 0x100 EXP SWAP1 DIV PUSH20 0xFFFFFFFFFFFFFFFFFFFFFFFFFFFFFFFFFFFFFFFF AND PUSH20 0xFFFFFFFFFFFFFFFFFFFFFFFFFFFFFFFFFFFFFFFF AND CALLER PUSH20 0xFFFFFFFFFFFFFFFFFFFFFFFFFFFFFFFFFFFFFFFF AND EQ PUSH2 0x6A7 JUMPI PUSH1 0x40 MLOAD PUSH32 0x8C379A000000000000000000000000000000000000000000000000000000000 DUP2 MSTORE PUSH1 0x4 ADD PUSH2 0x69E SWAP1 PUSH2 0x1A57 JUMP JUMPDEST PUSH1 0x40 MLOAD DUP1 SWAP2 SUB SWAP1 REVERT JUMPDEST PUSH0 PUSH1 0x2 DUP2 GT ISZERO PUSH2 0x6BA JUMPI PUSH2 0x6B9 PUSH2 0x14E8 JUMP JUMPDEST JUMPDEST PUSH1 0x4 PUSH1 0x15 SWAP1 SLOAD SWAP1 PUSH2 0x100 EXP SWAP1 DIV PUSH1 0xFF AND PUSH1 0x2 DUP2 GT ISZERO PUSH2 0x6DC JUMPI PUSH2 0x6DB PUSH2 0x14E8 JUMP JUMPDEST JUMPDEST EQ PUSH2 0x71C JUMPI PUSH1 0x40 MLOAD PUSH32 0x8C379A000000000000000000000000000000000000000000000000000000000 DUP2 MSTORE PUSH1 0x4 ADD PUSH2 0x713 SWAP1 PUSH2 0x1ABF JUMP JUMPDEST PUSH1 0x40 MLOAD DUP1 SWAP2 SUB SWAP1 REVERT JUMPDEST PUSH3 0x15180 DUP2 PUSH2 0x72B SWAP2 SWAP1 PUSH2 0x1B0A JUMP JUMPDEST PUSH1 0x3 PUSH0 DUP3 DUP3 SLOAD PUSH2 0x73B SWAP2 SWAP1 PUSH2 0x1B4B JUMP JUMPDEST SWAP3 POP POP DUP2 SWAP1 SSTORE POP POP JUMP JUMPDEST PUSH1 0x4 PUSH0 SWAP1 SLOAD SWAP1 PUSH2 0x100 EXP SWAP1 DIV PUSH20 0xFFFFFFFFFFFFFFFFFFFFFFFFFFFFFFFFFFFFFFFF AND PUSH20 0xFFFFFFFFFFFFFFFFFFFFFFFFFFFFFFFFFFFFFFFF AND CALLER PUSH20 0xFFFFFFFFFFFFFFFFFFFFFFFFFFFFFFFFFFFFFFFF AND EQ PUSH2 0x7D4 JUMPI PUSH1 0x40 MLOAD PUSH32 0x8C379A000000000000000000000000000000000000000000000000000000000 DUP2 MSTORE PUSH1 0x4 ADD PUSH2 0x7CB SWAP1 PUSH2 0x1A57 JUMP JUMPDEST PUSH1 0x40 MLOAD DUP1 SWAP2 SUB SWAP1 REVERT JUMPDEST PUSH2 0x7DC PUSH2 0x1281 JUMP JUMPDEST PUSH1 0x1 PUSH1 0x2 DUP2 GT ISZERO PUSH2 0x7F0 JUMPI PUSH2 0x7EF PUSH2 0x14E8 JUMP JUMPDEST JUMPDEST PUSH1 0x4 PUSH1 0x15 SWAP1 SLOAD SWAP1 PUSH2 0x100 EXP SWAP1 DIV PUSH1 0xFF AND PUSH1 0x2 DUP2 GT ISZERO PUSH2 0x812 JUMPI PUSH2 0x811 PUSH2 0x14E8 JUMP JUMPDEST JUMPDEST EQ PUSH2 0x852 JUMPI PUSH1 0x40 MLOAD PUSH32 0x8C379A000000000000000000000000000000000000000000000000000000000 DUP2 MSTORE PUSH1 0x4 ADD PUSH2 0x849 SWAP1 PUSH2 0x1BC8 JUMP JUMPDEST PUSH1 0x40 MLOAD DUP1 SWAP2 SUB SWAP1 REVERT JUMPDEST PUSH0 SELFBALANCE SWAP1 POP PUSH0 DUP2 LT ISZERO PUSH2 0x899 JUMPI PUSH1 0x40 MLOAD PUSH32 0x8C379A000000000000000000000000000000000000000000000000000000000 DUP2 MSTORE PUSH1 0x4 ADD PUSH2 0x890 SWAP1 PUSH2 0x1C30 JUMP JUMPDEST PUSH1 0x40 MLOAD DUP1 SWAP2 SUB SWAP1 REVERT JUMPDEST PUSH1 0x4 PUSH0 SWAP1 SLOAD SWAP1 PUSH2 0x100 EXP SWAP1 DIV PUSH20 0xFFFFFFFFFFFFFFFFFFFFFFFFFFFFFFFFFFFFFFFF AND PUSH20 0xFFFFFFFFFFFFFFFFFFFFFFFFFFFFFFFFFFFFFFFF AND PUSH2 0x8FC DUP3 SWAP1 DUP2 ISZERO MUL SWAP1 PUSH1 0x40 MLOAD PUSH0 PUSH1 0x40 MLOAD DUP1 DUP4 SUB DUP2 DUP6 DUP9 DUP9 CALL SWAP4 POP POP POP POP ISZERO DUP1 ISZERO PUSH2 0x8FD JUMPI RETURNDATASIZE PUSH0 DUP1 RETURNDATACOPY RETURNDATASIZE PUSH0 REVERT JUMPDEST POP POP JUMP JUMPDEST PUSH1 0x2 SLOAD DUP2 JUMP JUMPDEST PUSH2 0x90F PUSH2 0x1281 JUMP JUMPDEST PUSH0 PUSH1 0x6 PUSH0 CALLER PUSH20 0xFFFFFFFFFFFFFFFFFFFFFFFFFFFFFFFFFFFFFFFF AND PUSH20 0xFFFFFFFFFFFFFFFFFFFFFFFFFFFFFFFFFFFFFFFF AND DUP2 MSTORE PUSH1 0x20 ADD SWAP1 DUP2 MSTORE PUSH1 0x20 ADD PUSH0 KECCAK256 PUSH0 ADD SLOAD SWAP1 POP PUSH0 DUP2 GT PUSH2 0x994 JUMPI PUSH1 0x40 MLOAD PUSH32 0x8C379A000000000000000000000000000000000000000000000000000000000 DUP2 MSTORE PUSH1 0x4 ADD PUSH2 0x98B SWAP1 PUSH2 0x1C98 JUMP JUMPDEST PUSH1 0x40 MLOAD DUP1 SWAP2 SUB SWAP1 REVERT JUMPDEST PUSH0 PUSH1 0x6 PUSH0 CALLER PUSH20 0xFFFFFFFFFFFFFFFFFFFFFFFFFFFFFFFFFFFFFFFF AND PUSH20 0xFFFFFFFFFFFFFFFFFFFFFFFFFFFFFFFFFFFFFFFF AND DUP2 MSTORE PUSH1 0x20 ADD SWAP1 DUP2 MSTORE PUSH1 0x20 ADD PUSH0 KECCAK256 PUSH0 ADD DUP2 SWAP1 SSTORE POP CALLER PUSH20 0xFFFFFFFFFFFFFFFFFFFFFFFFFFFFFFFFFFFFFFFF AND PUSH2 0x8FC DUP3 SWAP1 DUP2 ISZERO MUL SWAP1 PUSH1 0x40 MLOAD PUSH0 PUSH1 0x40 MLOAD DUP1 DUP4 SUB DUP2 DUP6 DUP9 DUP9 CALL SWAP4 POP POP POP POP ISZERO DUP1 ISZERO PUSH2 0xA1B JUMPI RETURNDATASIZE PUSH0 DUP1 RETURNDATACOPY RETURNDATASIZE PUSH0 REVERT JUMPDEST POP POP JUMP JUMPDEST PUSH1 0x4 PUSH1 0x14 SWAP1 SLOAD SWAP1 PUSH2 0x100 EXP SWAP1 DIV PUSH1 0xFF AND DUP2 JUMP JUMPDEST PUSH0 SELFBALANCE SWAP1 POP SWAP1 JUMP JUMPDEST PUSH1 0x1 DUP1 SLOAD PUSH2 0xA46 SWAP1 PUSH2 0x19DD JUMP JUMPDEST DUP1 PUSH1 0x1F ADD PUSH1 0x20 DUP1 SWAP2 DIV MUL PUSH1 0x20 ADD PUSH1 0x40 MLOAD SWAP1 DUP2 ADD PUSH1 0x40 MSTORE DUP1 SWAP3 SWAP2 SWAP1 DUP2 DUP2 MSTORE PUSH1 0x20 ADD DUP3 DUP1 SLOAD PUSH2 0xA72 SWAP1 PUSH2 0x19DD JUMP JUMPDEST DUP1 ISZERO PUSH2 0xABD JUMPI DUP1 PUSH1 0x1F LT PUSH2 0xA94 JUMPI PUSH2 0x100 DUP1 DUP4 SLOAD DIV MUL DUP4 MSTORE SWAP2 PUSH1 0x20 ADD SWAP2 PUSH2 0xABD JUMP JUMPDEST DUP3 ADD SWAP2 SWAP1 PUSH0 MSTORE PUSH1 0x20 PUSH0 KECCAK256 SWAP1 JUMPDEST DUP2 SLOAD DUP2 MSTORE SWAP1 PUSH1 0x1 ADD SWAP1 PUSH1 0x20 ADD DUP1 DUP4 GT PUSH2 0xAA0 JUMPI DUP3 SWAP1 SUB PUSH1 0x1F AND DUP3 ADD SWAP2 JUMPDEST POP POP POP POP POP DUP2 JUMP JUMPDEST PUSH1 0x4 PUSH0 SWAP1 SLOAD SWAP1 PUSH2 0x100 EXP SWAP1 DIV PUSH20 0xFFFFFFFFFFFFFFFFFFFFFFFFFFFFFFFFFFFFFFFF AND PUSH20 0xFFFFFFFFFFFFFFFFFFFFFFFFFFFFFFFFFFFFFFFF AND CALLER PUSH20 0xFFFFFFFFFFFFFFFFFFFFFFFFFFFFFFFFFFFFFFFF AND EQ PUSH2 0xB54 JUMPI PUSH1 0x40 MLOAD PUSH32 0x8C379A000000000000000000000000000000000000000000000000000000000 DUP2 MSTORE PUSH1 0x4 ADD PUSH2 0xB4B SWAP1 PUSH2 0x1A57 JUMP JUMPDEST PUSH1 0x40 MLOAD DUP1 SWAP2 SUB SWAP1 REVERT JUMPDEST PUSH1 0x5 DUP1 SLOAD SWAP1 POP DUP2 LT PUSH2 0xB9B JUMPI PUSH1 0x40 MLOAD PUSH32 0x8C379A000000000000000000000000000000000000000000000000000000000 DUP2 MSTORE PUSH1 0x4 ADD PUSH2 0xB92 SWAP1 PUSH2 0x1D00 JUMP JUMPDEST PUSH1 0x40 MLOAD DUP1 SWAP2 SUB SWAP1 REVERT JUMPDEST PUSH1 0x5 PUSH1 0x1 PUSH1 0x5 DUP1 SLOAD SWAP1 POP PUSH2 0xBAF SWAP2 SWAP1 PUSH2 0x1D1E JUMP JUMPDEST DUP2 SLOAD DUP2 LT PUSH2 0xBC0 JUMPI PUSH2 0xBBF PUSH2 0x1D51 JUMP JUMPDEST JUMPDEST SWAP1 PUSH0 MSTORE PUSH1 0x20 PUSH0 KECCAK256 SWAP1 PUSH1 0x3 MUL ADD PUSH1 0x5 DUP3 DUP2 SLOAD DUP2 LT PUSH2 0xBE0 JUMPI PUSH2 0xBDF PUSH2 0x1D51 JUMP JUMPDEST JUMPDEST SWAP1 PUSH0 MSTORE PUSH1 0x20 PUSH0 KECCAK256 SWAP1 PUSH1 0x3 MUL ADD PUSH0 DUP3 ADD DUP2 PUSH0 ADD SWAP1 DUP2 PUSH2 0xBFE SWAP2 SWAP1 PUSH2 0x1F30 JUMP JUMPDEST POP PUSH1 0x1 DUP3 ADD SLOAD DUP2 PUSH1 0x1 ADD SSTORE PUSH1 0x2 DUP3 ADD SLOAD DUP2 PUSH1 0x2 ADD SSTORE SWAP1 POP POP PUSH1 0x5 DUP1 SLOAD DUP1 PUSH2 0xC28 JUMPI PUSH2 0xC27 PUSH2 0x2015 JUMP JUMPDEST JUMPDEST PUSH1 0x1 SWAP1 SUB DUP2 DUP2 SWAP1 PUSH0 MSTORE PUSH1 0x20 PUSH0 KECCAK256 SWAP1 PUSH1 0x3 MUL ADD PUSH0 DUP1 DUP3 ADD PUSH0 PUSH2 0xC49 SWAP2 SWAP1 PUSH2 0x1346 JUMP JUMPDEST PUSH1 0x1 DUP3 ADD PUSH0 SWAP1 SSTORE PUSH1 0x2 DUP3 ADD PUSH0 SWAP1 SSTORE POP POP SWAP1 SSTORE POP JUMP JUMPDEST PUSH0 PUSH1 0x6 PUSH0 DUP5 PUSH20 0xFFFFFFFFFFFFFFFFFFFFFFFFFFFFFFFFFFFFFFFF AND PUSH20 0xFFFFFFFFFFFFFFFFFFFFFFFFFFFFFFFFFFFFFFFF AND DUP2 MSTORE PUSH1 0x20 ADD SWAP1 DUP2 MSTORE PUSH1 0x20 ADD PUSH0 KECCAK256 PUSH1 0x1 ADD PUSH0 DUP4 DUP2 MSTORE PUSH1 0x20 ADD SWAP1 DUP2 MSTORE PUSH1 0x20 ADD PUSH0 KECCAK256 PUSH0 SWAP1 SLOAD SWAP1 PUSH2 0x100 EXP SWAP1 DIV PUSH1 0xFF AND SWAP1 POP SWAP3 SWAP2 POP POP JUMP JUMPDEST PUSH1 0x4 PUSH0 SWAP1 SLOAD SWAP1 PUSH2 0x100 EXP SWAP1 DIV PUSH20 0xFFFFFFFFFFFFFFFFFFFFFFFFFFFFFFFFFFFFFFFF AND DUP2 JUMP JUMPDEST PUSH1 0x4 PUSH0 SWAP1 SLOAD SWAP1 PUSH2 0x100 EXP SWAP1 DIV PUSH20 0xFFFFFFFFFFFFFFFFFFFFFFFFFFFFFFFFFFFFFFFF AND PUSH20 0xFFFFFFFFFFFFFFFFFFFFFFFFFFFFFFFFFFFFFFFF AND CALLER PUSH20 0xFFFFFFFFFFFFFFFFFFFFFFFFFFFFFFFFFFFFFFFF AND EQ PUSH2 0xD77 JUMPI PUSH1 0x40 MLOAD PUSH32 0x8C379A000000000000000000000000000000000000000000000000000000000 DUP2 MSTORE PUSH1 0x4 ADD PUSH2 0xD6E SWAP1 PUSH2 0x1A57 JUMP JUMPDEST PUSH1 0x40 MLOAD DUP1 SWAP2 SUB SWAP1 REVERT JUMPDEST PUSH0 DUP2 GT PUSH2 0xDB9 JUMPI PUSH1 0x40 MLOAD PUSH32 0x8C379A000000000000000000000000000000000000000000000000000000000 DUP2 MSTORE PUSH1 0x4 ADD PUSH2 0xDB0 SWAP1 PUSH2 0x208C JUMP JUMPDEST PUSH1 0x40 MLOAD DUP1 SWAP2 SUB SWAP1 REVERT JUMPDEST PUSH1 0x5 PUSH1 0x40 MLOAD DUP1 PUSH1 0x60 ADD PUSH1 0x40 MSTORE DUP1 DUP5 DUP2 MSTORE PUSH1 0x20 ADD DUP4 DUP2 MSTORE PUSH1 0x20 ADD PUSH0 DUP2 MSTORE POP SWAP1 DUP1 PUSH1 0x1 DUP2 SLOAD ADD DUP1 DUP3 SSTORE DUP1 SWAP2 POP POP PUSH1 0x1 SWAP1 SUB SWAP1 PUSH0 MSTORE PUSH1 0x20 PUSH0 KECCAK256 SWAP1 PUSH1 0x3 MUL ADD PUSH0 SWAP1 SWAP2 SWAP1 SWAP2 SWAP1 SWAP2 POP PUSH0 DUP3 ADD MLOAD DUP2 PUSH0 ADD SWAP1 DUP2 PUSH2 0xE0F SWAP2 SWAP1 PUSH2 0x20AA JUMP JUMPDEST POP PUSH1 0x20 DUP3 ADD MLOAD DUP2 PUSH1 0x1 ADD SSTORE PUSH1 0x40 DUP3 ADD MLOAD DUP2 PUSH1 0x2 ADD SSTORE POP POP POP POP JUMP JUMPDEST PUSH1 0x6 PUSH1 0x20 MSTORE DUP1 PUSH0 MSTORE PUSH1 0x40 PUSH0 KECCAK256 PUSH0 SWAP2 POP SWAP1 POP DUP1 PUSH0 ADD SLOAD SWAP1 POP DUP2 JUMP JUMPDEST PUSH1 0x4 PUSH1 0x15 SWAP1 SLOAD SWAP1 PUSH2 0x100 EXP SWAP1 DIV PUSH1 0xFF AND DUP2 JUMP JUMPDEST PUSH1 0x4 PUSH0 SWAP1 SLOAD SWAP1 PUSH2 0x100 EXP SWAP1 DIV PUSH20 0xFFFFFFFFFFFFFFFFFFFFFFFFFFFFFFFFFFFFFFFF AND PUSH20 0xFFFFFFFFFFFFFFFFFFFFFFFFFFFFFFFFFFFFFFFF AND CALLER PUSH20 0xFFFFFFFFFFFFFFFFFFFFFFFFFFFFFFFFFFFFFFFF AND EQ PUSH2 0xEE6 JUMPI PUSH1 0x40 MLOAD PUSH32 0x8C379A000000000000000000000000000000000000000000000000000000000 DUP2 MSTORE PUSH1 0x4 ADD PUSH2 0xEDD SWAP1 PUSH2 0x1A57 JUMP JUMPDEST PUSH1 0x40 MLOAD DUP1 SWAP2 SUB SWAP1 REVERT JUMPDEST PUSH1 0x4 PUSH1 0x14 SWAP1 SLOAD SWAP1 PUSH2 0x100 EXP SWAP1 DIV PUSH1 0xFF AND ISZERO PUSH1 0x4 PUSH1 0x14 PUSH2 0x100 EXP DUP2 SLOAD DUP2 PUSH1 0xFF MUL NOT AND SWAP1 DUP4 ISZERO ISZERO MUL OR SWAP1 SSTORE POP JUMP JUMPDEST PUSH0 PUSH1 0x2 DUP2 GT ISZERO PUSH2 0xF25 JUMPI PUSH2 0xF24 PUSH2 0x14E8 JUMP JUMPDEST JUMPDEST PUSH1 0x4 PUSH1 0x15 SWAP1 SLOAD SWAP1 PUSH2 0x100 EXP SWAP1 DIV PUSH1 0xFF AND PUSH1 0x2 DUP2 GT ISZERO PUSH2 0xF47 JUMPI PUSH2 0xF46 PUSH2 0x14E8 JUMP JUMPDEST JUMPDEST EQ PUSH2 0xF87 JUMPI PUSH1 0x40 MLOAD PUSH32 0x8C379A000000000000000000000000000000000000000000000000000000000 DUP2 MSTORE PUSH1 0x4 ADD PUSH2 0xF7E SWAP1 PUSH2 0x1ABF JUMP JUMPDEST PUSH1 0x40 MLOAD DUP1 SWAP2 SUB SWAP1 REVERT JUMPDEST PUSH1 0x4 PUSH1 0x14 SWAP1 SLOAD SWAP1 PUSH2 0x100 EXP SWAP1 DIV PUSH1 0xFF AND ISZERO PUSH2 0xFD7 JUMPI PUSH1 0x40 MLOAD PUSH32 0x8C379A000000000000000000000000000000000000000000000000000000000 DUP2 MSTORE PUSH1 0x4 ADD PUSH2 0xFCE SWAP1 PUSH2 0x21C3 JUMP JUMPDEST PUSH1 0x40 MLOAD DUP1 SWAP2 SUB SWAP1 REVERT JUMPDEST PUSH1 0x5 DUP1 SLOAD SWAP1 POP DUP2 LT PUSH2 0x101E JUMPI PUSH1 0x40 MLOAD PUSH32 0x8C379A000000000000000000000000000000000000000000000000000000000 DUP2 MSTORE PUSH1 0x4 ADD PUSH2 0x1015 SWAP1 PUSH2 0x222B JUMP JUMPDEST PUSH1 0x40 MLOAD DUP1 SWAP2 SUB SWAP1 REVERT JUMPDEST PUSH1 0x5 DUP2 DUP2 SLOAD DUP2 LT PUSH2 0x1032 JUMPI PUSH2 0x1031 PUSH2 0x1D51 JUMP JUMPDEST JUMPDEST SWAP1 PUSH0 MSTORE PUSH1 0x20 PUSH0 KECCAK256 SWAP1 PUSH1 0x3 MUL ADD PUSH1 0x1 ADD SLOAD CALLVALUE EQ PUSH2 0x1083 JUMPI PUSH1 0x40 MLOAD PUSH32 0x8C379A000000000000000000000000000000000000000000000000000000000 DUP2 MSTORE PUSH1 0x4 ADD PUSH2 0x107A SWAP1 PUSH2 0x2293 JUMP JUMPDEST PUSH1 0x40 MLOAD DUP1 SWAP2 SUB SWAP1 REVERT JUMPDEST PUSH1 0x5 DUP2 DUP2 SLOAD DUP2 LT PUSH2 0x1097 JUMPI PUSH2 0x1096 PUSH2 0x1D51 JUMP JUMPDEST JUMPDEST SWAP1 PUSH0 MSTORE PUSH1 0x20 PUSH0 KECCAK256 SWAP1 PUSH1 0x3 MUL ADD PUSH1 0x2 ADD PUSH0 DUP2 SLOAD DUP1 SWAP3 SWAP2 SWAP1 PUSH2 0x10B6 SWAP1 PUSH2 0x22B1 JUMP JUMPDEST SWAP2 SWAP1 POP SSTORE POP CALLVALUE PUSH1 0x6 PUSH0 CALLER PUSH20 0xFFFFFFFFFFFFFFFFFFFFFFFFFFFFFFFFFFFFFFFF AND PUSH20 0xFFFFFFFFFFFFFFFFFFFFFFFFFFFFFFFFFFFFFFFF AND DUP2 MSTORE PUSH1 0x20 ADD SWAP1 DUP2 MSTORE PUSH1 0x20 ADD PUSH0 KECCAK256 PUSH0 ADD PUSH0 DUP3 DUP3 SLOAD PUSH2 0x1109 SWAP2 SWAP1 PUSH2 0x1B4B JUMP JUMPDEST SWAP3 POP POP DUP2 SWAP1 SSTORE POP PUSH1 0x1 PUSH1 0x6 PUSH0 CALLER PUSH20 0xFFFFFFFFFFFFFFFFFFFFFFFFFFFFFFFFFFFFFFFF AND PUSH20 0xFFFFFFFFFFFFFFFFFFFFFFFFFFFFFFFFFFFFFFFF AND DUP2 MSTORE PUSH1 0x20 ADD SWAP1 DUP2 MSTORE PUSH1 0x20 ADD PUSH0 KECCAK256 PUSH1 0x1 ADD PUSH0 DUP4 DUP2 MSTORE PUSH1 0x20 ADD SWAP1 DUP2 MSTORE PUSH1 0x20 ADD PUSH0 KECCAK256 PUSH0 PUSH2 0x100 EXP DUP2 SLOAD DUP2 PUSH1 0xFF MUL NOT AND SWAP1 DUP4 ISZERO ISZERO MUL OR SWAP1 SSTORE POP PUSH2 0x117F PUSH2 0x1281 JUMP JUMPDEST POP JUMP JUMPDEST PUSH1 0x60 PUSH1 0x5 DUP1 SLOAD DUP1 PUSH1 0x20 MUL PUSH1 0x20 ADD PUSH1 0x40 MLOAD SWAP1 DUP2 ADD PUSH1 0x40 MSTORE DUP1 SWAP3 SWAP2 SWAP1 DUP2 DUP2 MSTORE PUSH1 0x20 ADD PUSH0 SWAP1 JUMPDEST DUP3 DUP3 LT ISZERO PUSH2 0x1278 JUMPI DUP4 DUP3 SWAP1 PUSH0 MSTORE PUSH1 0x20 PUSH0 KECCAK256 SWAP1 PUSH1 0x3 MUL ADD PUSH1 0x40 MLOAD DUP1 PUSH1 0x60 ADD PUSH1 0x40 MSTORE SWAP1 DUP2 PUSH0 DUP3 ADD DUP1 SLOAD PUSH2 0x11D5 SWAP1 PUSH2 0x19DD JUMP JUMPDEST DUP1 PUSH1 0x1F ADD PUSH1 0x20 DUP1 SWAP2 DIV MUL PUSH1 0x20 ADD PUSH1 0x40 MLOAD SWAP1 DUP2 ADD PUSH1 0x40 MSTORE DUP1 SWAP3 SWAP2 SWAP1 DUP2 DUP2 MSTORE PUSH1 0x20 ADD DUP3 DUP1 SLOAD PUSH2 0x1201 SWAP1 PUSH2 0x19DD JUMP JUMPDEST DUP1 ISZERO PUSH2 0x124C JUMPI DUP1 PUSH1 0x1F LT PUSH2 0x1223 JUMPI PUSH2 0x100 DUP1 DUP4 SLOAD DIV MUL DUP4 MSTORE SWAP2 PUSH1 0x20 ADD SWAP2 PUSH2 0x124C JUMP JUMPDEST DUP3 ADD SWAP2 SWAP1 PUSH0 MSTORE PUSH1 0x20 PUSH0 KECCAK256 SWAP1 JUMPDEST DUP2 SLOAD DUP2 MSTORE SWAP1 PUSH1 0x1 ADD SWAP1 PUSH1 0x20 ADD DUP1 DUP4 GT PUSH2 0x122F JUMPI DUP3 SWAP1 SUB PUSH1 0x1F AND DUP3 ADD SWAP2 JUMPDEST POP POP POP POP POP DUP2 MSTORE PUSH1 0x20 ADD PUSH1 0x1 DUP3 ADD SLOAD DUP2 MSTORE PUSH1 0x20 ADD PUSH1 0x2 DUP3 ADD SLOAD DUP2 MSTORE POP POP DUP2 MSTORE PUSH1 0x20 ADD SWAP1 PUSH1 0x1 ADD SWAP1 PUSH2 0x11A5 JUMP JUMPDEST POP POP POP POP SWAP1 POP SWAP1 JUMP JUMPDEST PUSH0 PUSH1 0x2 DUP2 GT ISZERO PUSH2 0x1294 JUMPI PUSH2 0x1293 PUSH2 0x14E8 JUMP JUMPDEST JUMPDEST PUSH1 0x4 PUSH1 0x15 SWAP1 SLOAD SWAP1 PUSH2 0x100 EXP SWAP1 DIV PUSH1 0xFF AND PUSH1 0x2 DUP2 GT ISZERO PUSH2 0x12B6 JUMPI PUSH2 0x12B5 PUSH2 0x14E8 JUMP JUMPDEST JUMPDEST SUB PUSH2 0x1344 JUMPI PUSH1 0x3 SLOAD TIMESTAMP LT PUSH2 0x1306 JUMPI PUSH1 0x2 SLOAD SELFBALANCE LT ISZERO PUSH2 0x12D5 JUMPI PUSH1 0x2 PUSH2 0x12D8 JUMP JUMPDEST PUSH1 0x1 JUMPDEST PUSH1 0x4 PUSH1 0x15 PUSH2 0x100 EXP DUP2 SLOAD DUP2 PUSH1 0xFF MUL NOT AND SWAP1 DUP4 PUSH1 0x2 DUP2 GT ISZERO PUSH2 0x12FC JUMPI PUSH2 0x12FB PUSH2 0x14E8 JUMP JUMPDEST JUMPDEST MUL OR SWAP1 SSTORE POP PUSH2 0x1343 JUMP JUMPDEST PUSH1 0x2 SLOAD SELFBALANCE LT ISZERO PUSH2 0x1316 JUMPI PUSH0 PUSH2 0x1319 JUMP JUMPDEST PUSH1 0x1 JUMPDEST PUSH1 0x4 PUSH1 0x15 PUSH2 0x100 EXP DUP2 SLOAD DUP2 PUSH1 0xFF MUL NOT AND SWAP1 DUP4 PUSH1 0x2 DUP2 GT ISZERO PUSH2 0x133D JUMPI PUSH2 0x133C PUSH2 0x14E8 JUMP JUMPDEST JUMPDEST MUL OR SWAP1 SSTORE POP JUMPDEST JUMPDEST JUMP JUMPDEST POP DUP1 SLOAD PUSH2 0x1352 SWAP1 PUSH2 0x19DD JUMP JUMPDEST PUSH0 DUP3 SSTORE DUP1 PUSH1 0x1F LT PUSH2 0x1363 JUMPI POP PUSH2 0x1380 JUMP JUMPDEST PUSH1 0x1F ADD PUSH1 0x20 SWAP1 DIV SWAP1 PUSH0 MSTORE PUSH1 0x20 PUSH0 KECCAK256 SWAP1 DUP2 ADD SWAP1 PUSH2 0x137F SWAP2 SWAP1 PUSH2 0x1383 JUMP JUMPDEST JUMPDEST POP JUMP JUMPDEST JUMPDEST DUP1 DUP3 GT ISZERO PUSH2 0x139A JUMPI PUSH0 DUP2 PUSH0 SWAP1 SSTORE POP PUSH1 0x1 ADD PUSH2 0x1384 JUMP JUMPDEST POP SWAP1 JUMP JUMPDEST PUSH0 PUSH1 0x40 MLOAD SWAP1 POP SWAP1 JUMP JUMPDEST PUSH0 DUP1 REVERT JUMPDEST PUSH0 DUP1 REVERT JUMPDEST PUSH0 DUP2 SWAP1 POP SWAP2 SWAP1 POP JUMP JUMPDEST PUSH2 0x13C1 DUP2 PUSH2 0x13AF JUMP JUMPDEST DUP2 EQ PUSH2 0x13CB JUMPI PUSH0 DUP1 REVERT JUMPDEST POP JUMP JUMPDEST PUSH0 DUP2 CALLDATALOAD SWAP1 POP PUSH2 0x13DC DUP2 PUSH2 0x13B8 JUMP JUMPDEST SWAP3 SWAP2 POP POP JUMP JUMPDEST PUSH0 PUSH1 0x20 DUP3 DUP5 SUB SLT ISZERO PUSH2 0x13F7 JUMPI PUSH2 0x13F6 PUSH2 0x13A7 JUMP JUMPDEST JUMPDEST PUSH0 PUSH2 0x1404 DUP5 DUP3 DUP6 ADD PUSH2 0x13CE JUMP JUMPDEST SWAP2 POP POP SWAP3 SWAP2 POP POP JUMP JUMPDEST PUSH0 DUP2 MLOAD SWAP1 POP SWAP2 SWAP1 POP JUMP JUMPDEST PUSH0 DUP3 DUP3 MSTORE PUSH1 0x20 DUP3 ADD SWAP1 POP SWAP3 SWAP2 POP POP JUMP JUMPDEST DUP3 DUP2 DUP4 MCOPY PUSH0 DUP4 DUP4 ADD MSTORE POP POP POP JUMP JUMPDEST PUSH0 PUSH1 0x1F NOT PUSH1 0x1F DUP4 ADD AND SWAP1 POP SWAP2 SWAP1 POP JUMP JUMPDEST PUSH0 PUSH2 0x144F DUP3 PUSH2 0x140D JUMP JUMPDEST PUSH2 0x1459 DUP2 DUP6 PUSH2 0x1417 JUMP JUMPDEST SWAP4 POP PUSH2 0x1469 DUP2 DUP6 PUSH1 0x20 DUP7 ADD PUSH2 0x1427 JUMP JUMPDEST PUSH2 0x1472 DUP2 PUSH2 0x1435 JUMP JUMPDEST DUP5 ADD SWAP2 POP POP SWAP3 SWAP2 POP POP JUMP JUMPDEST PUSH2 0x1486 DUP2 PUSH2 0x13AF JUMP JUMPDEST DUP3 MSTORE POP POP JUMP JUMPDEST PUSH0 PUSH1 0x60 DUP3 ADD SWAP1 POP DUP2 DUP2 SUB PUSH0 DUP4 ADD MSTORE PUSH2 0x14A4 DUP2 DUP7 PUSH2 0x1445 JUMP JUMPDEST SWAP1 POP PUSH2 0x14B3 PUSH1 0x20 DUP4 ADD DUP6 PUSH2 0x147D JUMP JUMPDEST PUSH2 0x14C0 PUSH1 0x40 DUP4 ADD DUP5 PUSH2 0x147D JUMP JUMPDEST SWAP5 SWAP4 POP POP POP POP JUMP JUMPDEST PUSH0 PUSH1 0x20 DUP3 ADD SWAP1 POP DUP2 DUP2 SUB PUSH0 DUP4 ADD MSTORE PUSH2 0x14E0 DUP2 DUP5 PUSH2 0x1445 JUMP JUMPDEST SWAP1 POP SWAP3 SWAP2 POP POP JUMP JUMPDEST PUSH32 0x4E487B7100000000000000000000000000000000000000000000000000000000 PUSH0 MSTORE PUSH1 0x21 PUSH1 0x4 MSTORE PUSH1 0x24 PUSH0 REVERT JUMPDEST PUSH1 0x3 DUP2 LT PUSH2 0x1526 JUMPI PUSH2 0x1525 PUSH2 0x14E8 JUMP JUMPDEST JUMPDEST POP JUMP JUMPDEST PUSH0 DUP2 SWAP1 POP PUSH2 0x1536 DUP3 PUSH2 0x1515 JUMP JUMPDEST SWAP2 SWAP1 POP JUMP JUMPDEST PUSH0 PUSH2 0x1545 DUP3 PUSH2 0x1529 JUMP JUMPDEST SWAP1 POP SWAP2 SWAP1 POP JUMP JUMPDEST PUSH2 0x1555 DUP2 PUSH2 0x153B JUMP JUMPDEST DUP3 MSTORE POP POP JUMP JUMPDEST PUSH0 PUSH1 0x20 DUP3 ADD SWAP1 POP PUSH2 0x156E PUSH0 DUP4 ADD DUP5 PUSH2 0x154C JUMP JUMPDEST SWAP3 SWAP2 POP POP JUMP JUMPDEST PUSH0 PUSH1 0x20 DUP3 ADD SWAP1 POP PUSH2 0x1587 PUSH0 DUP4 ADD DUP5 PUSH2 0x147D JUMP JUMPDEST SWAP3 SWAP2 POP POP JUMP JUMPDEST PUSH0 DUP2 ISZERO ISZERO SWAP1 POP SWAP2 SWAP1 POP JUMP JUMPDEST PUSH2 0x15A1 DUP2 PUSH2 0x158D JUMP JUMPDEST DUP3 MSTORE POP POP JUMP JUMPDEST PUSH0 PUSH1 0x20 DUP3 ADD SWAP1 POP PUSH2 0x15BA PUSH0 DUP4 ADD DUP5 PUSH2 0x1598 JUMP JUMPDEST SWAP3 SWAP2 POP POP JUMP JUMPDEST PUSH0 PUSH20 0xFFFFFFFFFFFFFFFFFFFFFFFFFFFFFFFFFFFFFFFF DUP3 AND SWAP1 POP SWAP2 SWAP1 POP JUMP JUMPDEST PUSH0 PUSH2 0x15E9 DUP3 PUSH2 0x15C0 JUMP JUMPDEST SWAP1 POP SWAP2 SWAP1 POP JUMP JUMPDEST PUSH2 0x15F9 DUP2 PUSH2 0x15DF JUMP JUMPDEST DUP2 EQ PUSH2 0x1603 JUMPI PUSH0 DUP1 REVERT JUMPDEST POP JUMP JUMPDEST PUSH0 DUP2 CALLDATALOAD SWAP1 POP PUSH2 0x1614 DUP2 PUSH2 0x15F0 JUMP JUMPDEST SWAP3 SWAP2 POP POP JUMP JUMPDEST PUSH0 DUP1 PUSH1 0x40 DUP4 DUP6 SUB SLT ISZERO PUSH2 0x1630 JUMPI PUSH2 0x162F PUSH2 0x13A7 JUMP JUMPDEST JUMPDEST PUSH0 PUSH2 0x163D DUP6 DUP3 DUP7 ADD PUSH2 0x1606 JUMP JUMPDEST SWAP3 POP POP PUSH1 0x20 PUSH2 0x164E DUP6 DUP3 DUP7 ADD PUSH2 0x13CE JUMP JUMPDEST SWAP2 POP POP SWAP3 POP SWAP3 SWAP1 POP JUMP JUMPDEST PUSH2 0x1661 DUP2 PUSH2 0x15DF JUMP JUMPDEST DUP3 MSTORE POP POP JUMP JUMPDEST PUSH0 PUSH1 0x20 DUP3 ADD SWAP1 POP PUSH2 0x167A PUSH0 DUP4 ADD DUP5 PUSH2 0x1658 JUMP JUMPDEST SWAP3 SWAP2 POP POP JUMP JUMPDEST PUSH0 DUP1 REVERT JUMPDEST PUSH0 DUP1 REVERT JUMPDEST PUSH32 0x4E487B7100000000000000000000000000000000000000000000000000000000 PUSH0 MSTORE PUSH1 0x41 PUSH1 0x4 MSTORE PUSH1 0x24 PUSH0 REVERT JUMPDEST PUSH2 0x16BE DUP3 PUSH2 0x1435 JUMP JUMPDEST DUP2 ADD DUP2 DUP2 LT PUSH8 0xFFFFFFFFFFFFFFFF DUP3 GT OR ISZERO PUSH2 0x16DD JUMPI PUSH2 0x16DC PUSH2 0x1688 JUMP JUMPDEST JUMPDEST DUP1 PUSH1 0x40 MSTORE POP POP POP JUMP JUMPDEST PUSH0 PUSH2 0x16EF PUSH2 0x139E JUMP JUMPDEST SWAP1 POP PUSH2 0x16FB DUP3 DUP3 PUSH2 0x16B5 JUMP JUMPDEST SWAP2 SWAP1 POP JUMP JUMPDEST PUSH0 PUSH8 0xFFFFFFFFFFFFFFFF DUP3 GT ISZERO PUSH2 0x171A JUMPI PUSH2 0x1719 PUSH2 0x1688 JUMP JUMPDEST JUMPDEST PUSH2 0x1723 DUP3 PUSH2 0x1435 JUMP JUMPDEST SWAP1 POP PUSH1 0x20 DUP2 ADD SWAP1 POP SWAP2 SWAP1 POP JUMP JUMPDEST DUP3 DUP2 DUP4 CALLDATACOPY PUSH0 DUP4 DUP4 ADD MSTORE POP POP POP JUMP JUMPDEST PUSH0 PUSH2 0x1750 PUSH2 0x174B DUP5 PUSH2 0x1700 JUMP JUMPDEST PUSH2 0x16E6 JUMP JUMPDEST SWAP1 POP DUP3 DUP2 MSTORE PUSH1 0x20 DUP2 ADD DUP5 DUP5 DUP5 ADD GT ISZERO PUSH2 0x176C JUMPI PUSH2 0x176B PUSH2 0x1684 JUMP JUMPDEST JUMPDEST PUSH2 0x1777 DUP5 DUP3 DUP6 PUSH2 0x1730 JUMP JUMPDEST POP SWAP4 SWAP3 POP POP POP JUMP JUMPDEST PUSH0 DUP3 PUSH1 0x1F DUP4 ADD SLT PUSH2 0x1793 JUMPI PUSH2 0x1792 PUSH2 0x1680 JUMP JUMPDEST JUMPDEST DUP2 CALLDATALOAD PUSH2 0x17A3 DUP5 DUP3 PUSH1 0x20 DUP7 ADD PUSH2 0x173E JUMP JUMPDEST SWAP2 POP POP SWAP3 SWAP2 POP POP JUMP JUMPDEST PUSH0 DUP1 PUSH1 0x40 DUP4 DUP6 SUB SLT ISZERO PUSH2 0x17C2 JUMPI PUSH2 0x17C1 PUSH2 0x13A7 JUMP JUMPDEST JUMPDEST PUSH0 DUP4 ADD CALLDATALOAD PUSH8 0xFFFFFFFFFFFFFFFF DUP2 GT ISZERO PUSH2 0x17DF JUMPI PUSH2 0x17DE PUSH2 0x13AB JUMP JUMPDEST JUMPDEST PUSH2 0x17EB DUP6 DUP3 DUP7 ADD PUSH2 0x177F JUMP JUMPDEST SWAP3 POP POP PUSH1 0x20 PUSH2 0x17FC DUP6 DUP3 DUP7 ADD PUSH2 0x13CE JUMP JUMPDEST SWAP2 POP POP SWAP3 POP SWAP3 SWAP1 POP JUMP JUMPDEST PUSH0 PUSH1 0x20 DUP3 DUP5 SUB SLT ISZERO PUSH2 0x181B JUMPI PUSH2 0x181A PUSH2 0x13A7 JUMP JUMPDEST JUMPDEST PUSH0 PUSH2 0x1828 DUP5 DUP3 DUP6 ADD PUSH2 0x1606 JUMP JUMPDEST SWAP2 POP POP SWAP3 SWAP2 POP POP JUMP JUMPDEST PUSH0 DUP2 MLOAD SWAP1 POP SWAP2 SWAP1 POP JUMP JUMPDEST PUSH0 DUP3 DUP3 MSTORE PUSH1 0x20 DUP3 ADD SWAP1 POP SWAP3 SWAP2 POP POP JUMP JUMPDEST PUSH0 DUP2 SWAP1 POP PUSH1 0x20 DUP3 ADD SWAP1 POP SWAP2 SWAP1 POP JUMP JUMPDEST PUSH0 DUP3 DUP3 MSTORE PUSH1 0x20 DUP3 ADD SWAP1 POP SWAP3 SWAP2 POP POP JUMP JUMPDEST PUSH0 PUSH2 0x1874 DUP3 PUSH2 0x140D JUMP JUMPDEST PUSH2 0x187E DUP2 DUP6 PUSH2 0x185A JUMP JUMPDEST SWAP4 POP PUSH2 0x188E DUP2 DUP6 PUSH1 0x20 DUP7 ADD PUSH2 0x1427 JUMP JUMPDEST PUSH2 0x1897 DUP2 PUSH2 0x1435 JUMP JUMPDEST DUP5 ADD SWAP2 POP POP SWAP3 SWAP2 POP POP JUMP JUMPDEST PUSH2 0x18AB DUP2 PUSH2 0x13AF JUMP JUMPDEST DUP3 MSTORE POP POP JUMP JUMPDEST PUSH0 PUSH1 0x60 DUP4 ADD PUSH0 DUP4 ADD MLOAD DUP5 DUP3 SUB PUSH0 DUP7 ADD MSTORE PUSH2 0x18CB DUP3 DUP3 PUSH2 0x186A JUMP JUMPDEST SWAP2 POP POP PUSH1 0x20 DUP4 ADD MLOAD PUSH2 0x18E0 PUSH1 0x20 DUP7 ADD DUP3 PUSH2 0x18A2 JUMP JUMPDEST POP PUSH1 0x40 DUP4 ADD MLOAD PUSH2 0x18F3 PUSH1 0x40 DUP7 ADD DUP3 PUSH2 0x18A2 JUMP JUMPDEST POP DUP1 SWAP2 POP POP SWAP3 SWAP2 POP POP JUMP JUMPDEST PUSH0 PUSH2 0x1909 DUP4 DUP4 PUSH2 0x18B1 JUMP JUMPDEST SWAP1 POP SWAP3 SWAP2 POP POP JUMP JUMPDEST PUSH0 PUSH1 0x20 DUP3 ADD SWAP1 POP SWAP2 SWAP1 POP JUMP JUMPDEST PUSH0 PUSH2 0x1927 DUP3 PUSH2 0x1831 JUMP JUMPDEST PUSH2 0x1931 DUP2 DUP6 PUSH2 0x183B JUMP JUMPDEST SWAP4 POP DUP4 PUSH1 0x20 DUP3 MUL DUP6 ADD PUSH2 0x1943 DUP6 PUSH2 0x184B JUMP JUMPDEST DUP1 PUSH0 JUMPDEST DUP6 DUP2 LT ISZERO PUSH2 0x197E JUMPI DUP5 DUP5 SUB DUP10 MSTORE DUP2 MLOAD PUSH2 0x195F DUP6 DUP3 PUSH2 0x18FE JUMP JUMPDEST SWAP5 POP PUSH2 0x196A DUP4 PUSH2 0x1911 JUMP JUMPDEST SWAP3 POP PUSH1 0x20 DUP11 ADD SWAP10 POP POP PUSH1 0x1 DUP2 ADD SWAP1 POP PUSH2 0x1946 JUMP JUMPDEST POP DUP3 SWAP8 POP DUP8 SWAP6 POP POP POP POP POP POP SWAP3 SWAP2 POP POP JUMP JUMPDEST PUSH0 PUSH1 0x20 DUP3 ADD SWAP1 POP DUP2 DUP2 SUB PUSH0 DUP4 ADD MSTORE PUSH2 0x19A8 DUP2 DUP5 PUSH2 0x191D JUMP JUMPDEST SWAP1 POP SWAP3 SWAP2 POP POP JUMP JUMPDEST PUSH32 0x4E487B7100000000000000000000000000000000000000000000000000000000 PUSH0 MSTORE PUSH1 0x22 PUSH1 0x4 MSTORE PUSH1 0x24 PUSH0 REVERT JUMPDEST PUSH0 PUSH1 0x2 DUP3 DIV SWAP1 POP PUSH1 0x1 DUP3 AND DUP1 PUSH2 0x19F4 JUMPI PUSH1 0x7F DUP3 AND SWAP2 POP JUMPDEST PUSH1 0x20 DUP3 LT DUP2 SUB PUSH2 0x1A07 JUMPI PUSH2 0x1A06 PUSH2 0x19B0 JUMP JUMPDEST JUMPDEST POP SWAP2 SWAP1 POP JUMP JUMPDEST PUSH32 0x4E6F7420746865206F776E657200000000000000000000000000000000000000 PUSH0 DUP3 ADD MSTORE POP JUMP JUMPDEST PUSH0 PUSH2 0x1A41 PUSH1 0xD DUP4 PUSH2 0x1417 JUMP JUMPDEST SWAP2 POP PUSH2 0x1A4C DUP3 PUSH2 0x1A0D JUMP JUMPDEST PUSH1 0x20 DUP3 ADD SWAP1 POP SWAP2 SWAP1 POP JUMP JUMPDEST PUSH0 PUSH1 0x20 DUP3 ADD SWAP1 POP DUP2 DUP2 SUB PUSH0 DUP4 ADD MSTORE PUSH2 0x1A6E DUP2 PUSH2 0x1A35 JUMP JUMPDEST SWAP1 POP SWAP2 SWAP1 POP JUMP JUMPDEST PUSH32 0x43616D706961676E206973206E6F742061637469766500000000000000000000 PUSH0 DUP3 ADD MSTORE POP JUMP JUMPDEST PUSH0 PUSH2 0x1AA9 PUSH1 0x16 DUP4 PUSH2 0x1417 JUMP JUMPDEST SWAP2 POP PUSH2 0x1AB4 DUP3 PUSH2 0x1A75 JUMP JUMPDEST PUSH1 0x20 DUP3 ADD SWAP1 POP SWAP2 SWAP1 POP JUMP JUMPDEST PUSH0 PUSH1 0x20 DUP3 ADD SWAP1 POP DUP2 DUP2 SUB PUSH0 DUP4 ADD MSTORE PUSH2 0x1AD6 DUP2 PUSH2 0x1A9D JUMP JUMPDEST SWAP1 POP SWAP2 SWAP1 POP JUMP JUMPDEST PUSH32 0x4E487B7100000000000000000000000000000000000000000000000000000000 PUSH0 MSTORE PUSH1 0x11 PUSH1 0x4 MSTORE PUSH1 0x24 PUSH0 REVERT JUMPDEST PUSH0 PUSH2 0x1B14 DUP3 PUSH2 0x13AF JUMP JUMPDEST SWAP2 POP PUSH2 0x1B1F DUP4 PUSH2 0x13AF JUMP JUMPDEST SWAP3 POP DUP3 DUP3 MUL PUSH2 0x1B2D DUP2 PUSH2 0x13AF JUMP JUMPDEST SWAP2 POP DUP3 DUP3 DIV DUP5 EQ DUP4 ISZERO OR PUSH2 0x1B44 JUMPI PUSH2 0x1B43 PUSH2 0x1ADD JUMP JUMPDEST JUMPDEST POP SWAP3 SWAP2 POP POP JUMP JUMPDEST PUSH0 PUSH2 0x1B55 DUP3 PUSH2 0x13AF JUMP JUMPDEST SWAP2 POP PUSH2 0x1B60 DUP4 PUSH2 0x13AF JUMP JUMPDEST SWAP3 POP DUP3 DUP3 ADD SWAP1 POP DUP1 DUP3 GT ISZERO PUSH2 0x1B78 JUMPI PUSH2 0x1B77 PUSH2 0x1ADD JUMP JUMPDEST JUMPDEST SWAP3 SWAP2 POP POP JUMP JUMPDEST PUSH32 0x43616D706169676E206E6F207375636365737366756C207965742E0000000000 PUSH0 DUP3 ADD MSTORE POP JUMP JUMPDEST PUSH0 PUSH2 0x1BB2 PUSH1 0x1B DUP4 PUSH2 0x1417 JUMP JUMPDEST SWAP2 POP PUSH2 0x1BBD DUP3 PUSH2 0x1B7E JUMP JUMPDEST PUSH1 0x20 DUP3 ADD SWAP1 POP SWAP2 SWAP1 POP JUMP JUMPDEST PUSH0 PUSH1 0x20 DUP3 ADD SWAP1 POP DUP2 DUP2 SUB PUSH0 DUP4 ADD MSTORE PUSH2 0x1BDF DUP2 PUSH2 0x1BA6 JUMP JUMPDEST SWAP1 POP SWAP2 SWAP1 POP JUMP JUMPDEST PUSH32 0x4E6F2062616C616E636520746F20776974686472617700000000000000000000 PUSH0 DUP3 ADD MSTORE POP JUMP JUMPDEST PUSH0 PUSH2 0x1C1A PUSH1 0x16 DUP4 PUSH2 0x1417 JUMP JUMPDEST SWAP2 POP PUSH2 0x1C25 DUP3 PUSH2 0x1BE6 JUMP JUMPDEST PUSH1 0x20 DUP3 ADD SWAP1 POP SWAP2 SWAP1 POP JUMP JUMPDEST PUSH0 PUSH1 0x20 DUP3 ADD SWAP1 POP DUP2 DUP2 SUB PUSH0 DUP4 ADD MSTORE PUSH2 0x1C47 DUP2 PUSH2 0x1C0E JUMP JUMPDEST SWAP1 POP SWAP2 SWAP1 POP JUMP JUMPDEST PUSH32 0x4E6F20636F6E747269627574696F6E20746F20726566756E6400000000000000 PUSH0 DUP3 ADD MSTORE POP JUMP JUMPDEST PUSH0 PUSH2 0x1C82 PUSH1 0x19 DUP4 PUSH2 0x1417 JUMP JUMPDEST SWAP2 POP PUSH2 0x1C8D DUP3 PUSH2 0x1C4E JUMP JUMPDEST PUSH1 0x20 DUP3 ADD SWAP1 POP SWAP2 SWAP1 POP JUMP JUMPDEST PUSH0 PUSH1 0x20 DUP3 ADD SWAP1 POP DUP2 DUP2 SUB PUSH0 DUP4 ADD MSTORE PUSH2 0x1CAF DUP2 PUSH2 0x1C76 JUMP JUMPDEST SWAP1 POP SWAP2 SWAP1 POP JUMP JUMPDEST PUSH32 0x5469657220646F6573206E6F7420657869737400000000000000000000000000 PUSH0 DUP3 ADD MSTORE POP JUMP JUMPDEST PUSH0 PUSH2 0x1CEA PUSH1 0x13 DUP4 PUSH2 0x1417 JUMP JUMPDEST SWAP2 POP PUSH2 0x1CF5 DUP3 PUSH2 0x1CB6 JUMP JUMPDEST PUSH1 0x20 DUP3 ADD SWAP1 POP SWAP2 SWAP1 POP JUMP JUMPDEST PUSH0 PUSH1 0x20 DUP3 ADD SWAP1 POP DUP2 DUP2 SUB PUSH0 DUP4 ADD MSTORE PUSH2 0x1D17 DUP2 PUSH2 0x1CDE JUMP JUMPDEST SWAP1 POP SWAP2 SWAP1 POP JUMP JUMPDEST PUSH0 PUSH2 0x1D28 DUP3 PUSH2 0x13AF JUMP JUMPDEST SWAP2 POP PUSH2 0x1D33 DUP4 PUSH2 0x13AF JUMP JUMPDEST SWAP3 POP DUP3 DUP3 SUB SWAP1 POP DUP2 DUP2 GT ISZERO PUSH2 0x1D4B JUMPI PUSH2 0x1D4A PUSH2 0x1ADD JUMP JUMPDEST JUMPDEST SWAP3 SWAP2 POP POP JUMP JUMPDEST PUSH32 0x4E487B7100000000000000000000000000000000000000000000000000000000 PUSH0 MSTORE PUSH1 0x32 PUSH1 0x4 MSTORE PUSH1 0x24 PUSH0 REVERT JUMPDEST PUSH0 DUP2 SLOAD SWAP1 POP PUSH2 0x1D8C DUP2 PUSH2 0x19DD JUMP JUMPDEST SWAP1 POP SWAP2 SWAP1 POP JUMP JUMPDEST PUSH0 DUP2 SWAP1 POP DUP2 PUSH0 MSTORE PUSH1 0x20 PUSH0 KECCAK256 SWAP1 POP SWAP2 SWAP1 POP JUMP JUMPDEST PUSH0 PUSH1 0x20 PUSH1 0x1F DUP4 ADD DIV SWAP1 POP SWAP2 SWAP1 POP JUMP JUMPDEST PUSH0 DUP3 DUP3 SHL SWAP1 POP SWAP3 SWAP2 POP POP JUMP JUMPDEST PUSH0 PUSH1 0x8 DUP4 MUL PUSH2 0x1DEF PUSH32 0xFFFFFFFFFFFFFFFFFFFFFFFFFFFFFFFFFFFFFFFFFFFFFFFFFFFFFFFFFFFFFFFF DUP3 PUSH2 0x1DB4 JUMP JUMPDEST PUSH2 0x1DF9 DUP7 DUP4 PUSH2 0x1DB4 JUMP JUMPDEST SWAP6 POP DUP1 NOT DUP5 AND SWAP4 POP DUP1 DUP7 AND DUP5 OR SWAP3 POP POP POP SWAP4 SWAP3 POP POP POP JUMP JUMPDEST PUSH0 DUP2 SWAP1 POP SWAP2 SWAP1 POP JUMP JUMPDEST PUSH0 PUSH2 0x1E34 PUSH2 0x1E2F PUSH2 0x1E2A DUP5 PUSH2 0x13AF JUMP JUMPDEST PUSH2 0x1E11 JUMP JUMPDEST PUSH2 0x13AF JUMP JUMPDEST SWAP1 POP SWAP2 SWAP1 POP JUMP JUMPDEST PUSH0 DUP2 SWAP1 POP SWAP2 SWAP1 POP JUMP JUMPDEST PUSH2 0x1E4D DUP4 PUSH2 0x1E1A JUMP JUMPDEST PUSH2 0x1E61 PUSH2 0x1E59 DUP3 PUSH2 0x1E3B JUMP JUMPDEST DUP5 DUP5 SLOAD PUSH2 0x1DC0 JUMP JUMPDEST DUP3 SSTORE POP POP POP POP JUMP JUMPDEST PUSH0 SWAP1 JUMP JUMPDEST PUSH2 0x1E75 PUSH2 0x1E69 JUMP JUMPDEST PUSH2 0x1E80 DUP2 DUP5 DUP5 PUSH2 0x1E44 JUMP JUMPDEST POP POP POP JUMP JUMPDEST JUMPDEST DUP2 DUP2 LT ISZERO PUSH2 0x1EA3 JUMPI PUSH2 0x1E98 PUSH0 DUP3 PUSH2 0x1E6D JUMP JUMPDEST PUSH1 0x1 DUP2 ADD SWAP1 POP PUSH2 0x1E86 JUMP JUMPDEST POP POP JUMP JUMPDEST PUSH1 0x1F DUP3 GT ISZERO PUSH2 0x1EE8 JUMPI PUSH2 0x1EB9 DUP2 PUSH2 0x1D93 JUMP JUMPDEST PUSH2 0x1EC2 DUP5 PUSH2 0x1DA5 JUMP JUMPDEST DUP2 ADD PUSH1 0x20 DUP6 LT ISZERO PUSH2 0x1ED1 JUMPI DUP2 SWAP1 POP JUMPDEST PUSH2 0x1EE5 PUSH2 0x1EDD DUP6 PUSH2 0x1DA5 JUMP JUMPDEST DUP4 ADD DUP3 PUSH2 0x1E85 JUMP JUMPDEST POP POP JUMPDEST POP POP POP JUMP JUMPDEST PUSH0 DUP3 DUP3 SHR SWAP1 POP SWAP3 SWAP2 POP POP JUMP JUMPDEST PUSH0 PUSH2 0x1F08 PUSH0 NOT DUP5 PUSH1 0x8 MUL PUSH2 0x1EED JUMP JUMPDEST NOT DUP1 DUP4 AND SWAP2 POP POP SWAP3 SWAP2 POP POP JUMP JUMPDEST PUSH0 PUSH2 0x1F20 DUP4 DUP4 PUSH2 0x1EF9 JUMP JUMPDEST SWAP2 POP DUP3 PUSH1 0x2 MUL DUP3 OR SWAP1 POP SWAP3 SWAP2 POP POP JUMP JUMPDEST DUP2 DUP2 SUB PUSH2 0x1F3E JUMPI POP POP PUSH2 0x2013 JUMP JUMPDEST PUSH2 0x1F47 DUP3 PUSH2 0x1D7E JUMP JUMPDEST PUSH8 0xFFFFFFFFFFFFFFFF DUP2 GT ISZERO PUSH2 0x1F60 JUMPI PUSH2 0x1F5F PUSH2 0x1688 JUMP JUMPDEST JUMPDEST PUSH2 0x1F6A DUP3 SLOAD PUSH2 0x19DD JUMP JUMPDEST PUSH2 0x1F75 DUP3 DUP3 DUP6 PUSH2 0x1EA7 JUMP JUMPDEST PUSH0 PUSH1 0x1F DUP4 GT PUSH1 0x1 DUP2 EQ PUSH2 0x1FA2 JUMPI PUSH0 DUP5 ISZERO PUSH2 0x1F90 JUMPI DUP3 DUP8 ADD SLOAD SWAP1 POP JUMPDEST PUSH2 0x1F9A DUP6 DUP3 PUSH2 0x1F15 JUMP JUMPDEST DUP7 SSTORE POP PUSH2 0x200C JUMP JUMPDEST PUSH1 0x1F NOT DUP5 AND PUSH2 0x1FB0 DUP8 PUSH2 0x1D93 JUMP JUMPDEST SWAP7 POP PUSH2 0x1FBB DUP7 PUSH2 0x1D93 JUMP JUMPDEST PUSH0 JUMPDEST DUP3 DUP2 LT ISZERO PUSH2 0x1FE2 JUMPI DUP5 DUP10 ADD SLOAD DUP3 SSTORE PUSH1 0x1 DUP3 ADD SWAP2 POP PUSH1 0x1 DUP6 ADD SWAP5 POP PUSH1 0x20 DUP2 ADD SWAP1 POP PUSH2 0x1FBD JUMP JUMPDEST DUP7 DUP4 LT ISZERO PUSH2 0x1FFF JUMPI DUP5 DUP10 ADD SLOAD PUSH2 0x1FFB PUSH1 0x1F DUP10 AND DUP3 PUSH2 0x1EF9 JUMP JUMPDEST DUP4 SSTORE POP JUMPDEST PUSH1 0x1 PUSH1 0x2 DUP9 MUL ADD DUP9 SSTORE POP POP POP JUMPDEST POP POP POP POP POP POP JUMPDEST JUMP JUMPDEST PUSH32 0x4E487B7100000000000000000000000000000000000000000000000000000000 PUSH0 MSTORE PUSH1 0x31 PUSH1 0x4 MSTORE PUSH1 0x24 PUSH0 REVERT JUMPDEST PUSH32 0x416D6F756E74206D7573742062652067726561746572207468616E204F2E0000 PUSH0 DUP3 ADD MSTORE POP JUMP JUMPDEST PUSH0 PUSH2 0x2076 PUSH1 0x1E DUP4 PUSH2 0x1417 JUMP JUMPDEST SWAP2 POP PUSH2 0x2081 DUP3 PUSH2 0x2042 JUMP JUMPDEST PUSH1 0x20 DUP3 ADD SWAP1 POP SWAP2 SWAP1 POP JUMP JUMPDEST PUSH0 PUSH1 0x20 DUP3 ADD SWAP1 POP DUP2 DUP2 SUB PUSH0 DUP4 ADD MSTORE PUSH2 0x20A3 DUP2 PUSH2 0x206A JUMP JUMPDEST SWAP1 POP SWAP2 SWAP1 POP JUMP JUMPDEST PUSH2 0x20B3 DUP3 PUSH2 0x140D JUMP JUMPDEST PUSH8 0xFFFFFFFFFFFFFFFF DUP2 GT ISZERO PUSH2 0x20CC JUMPI PUSH2 0x20CB PUSH2 0x1688 JUMP JUMPDEST JUMPDEST PUSH2 0x20D6 DUP3 SLOAD PUSH2 0x19DD JUMP JUMPDEST PUSH2 0x20E1 DUP3 DUP3 DUP6 PUSH2 0x1EA7 JUMP JUMPDEST PUSH0 PUSH1 0x20 SWAP1 POP PUSH1 0x1F DUP4 GT PUSH1 0x1 DUP2 EQ PUSH2 0x2112 JUMPI PUSH0 DUP5 ISZERO PUSH2 0x2100 JUMPI DUP3 DUP8 ADD MLOAD SWAP1 POP JUMPDEST PUSH2 0x210A DUP6 DUP3 PUSH2 0x1F15 JUMP JUMPDEST DUP7 SSTORE POP PUSH2 0x2171 JUMP JUMPDEST PUSH1 0x1F NOT DUP5 AND PUSH2 0x2120 DUP7 PUSH2 0x1D93 JUMP JUMPDEST PUSH0 JUMPDEST DUP3 DUP2 LT ISZERO PUSH2 0x2147 JUMPI DUP5 DUP10 ADD MLOAD DUP3 SSTORE PUSH1 0x1 DUP3 ADD SWAP2 POP PUSH1 0x20 DUP6 ADD SWAP5 POP PUSH1 0x20 DUP2 ADD SWAP1 POP PUSH2 0x2122 JUMP JUMPDEST DUP7 DUP4 LT ISZERO PUSH2 0x2164 JUMPI DUP5 DUP10 ADD MLOAD PUSH2 0x2160 PUSH1 0x1F DUP10 AND DUP3 PUSH2 0x1EF9 JUMP JUMPDEST DUP4 SSTORE POP JUMPDEST PUSH1 0x1 PUSH1 0x2 DUP9 MUL ADD DUP9 SSTORE POP POP POP JUMPDEST POP POP POP POP POP POP JUMP JUMPDEST PUSH32 0x436F6E7472616374206973207061757365642E00000000000000000000000000 PUSH0 DUP3 ADD MSTORE POP JUMP JUMPDEST PUSH0 PUSH2 0x21AD PUSH1 0x13 DUP4 PUSH2 0x1417 JUMP JUMPDEST SWAP2 POP PUSH2 0x21B8 DUP3 PUSH2 0x2179 JUMP JUMPDEST PUSH1 0x20 DUP3 ADD SWAP1 POP SWAP2 SWAP1 POP JUMP JUMPDEST PUSH0 PUSH1 0x20 DUP3 ADD SWAP1 POP DUP2 DUP2 SUB PUSH0 DUP4 ADD MSTORE PUSH2 0x21DA DUP2 PUSH2 0x21A1 JUMP JUMPDEST SWAP1 POP SWAP2 SWAP1 POP JUMP JUMPDEST PUSH32 0x496E76616C696420546965722E00000000000000000000000000000000000000 PUSH0 DUP3 ADD MSTORE POP JUMP JUMPDEST PUSH0 PUSH2 0x2215 PUSH1 0xD DUP4 PUSH2 0x1417 JUMP JUMPDEST SWAP2 POP PUSH2 0x2220 DUP3 PUSH2 0x21E1 JUMP JUMPDEST PUSH1 0x20 DUP3 ADD SWAP1 POP SWAP2 SWAP1 POP JUMP JUMPDEST PUSH0 PUSH1 0x20 DUP3 ADD SWAP1 POP DUP2 DUP2 SUB PUSH0 DUP4 ADD MSTORE PUSH2 0x2242 DUP2 PUSH2 0x2209 JUMP JUMPDEST SWAP1 POP SWAP2 SWAP1 POP JUMP JUMPDEST PUSH32 0x496E636F727265637420416D6F756E7400000000000000000000000000000000 PUSH0 DUP3 ADD MSTORE POP JUMP JUMPDEST PUSH0 PUSH2 0x227D PUSH1 0x10 DUP4 PUSH2 0x1417 JUMP JUMPDEST SWAP2 POP PUSH2 0x2288 DUP3 PUSH2 0x2249 JUMP JUMPDEST PUSH1 0x20 DUP3 ADD SWAP1 POP SWAP2 SWAP1 POP JUMP JUMPDEST PUSH0 PUSH1 0x20 DUP3 ADD SWAP1 POP DUP2 DUP2 SUB PUSH0 DUP4 ADD MSTORE PUSH2 0x22AA DUP2 PUSH2 0x2271 JUMP JUMPDEST SWAP1 POP SWAP2 SWAP1 POP JUMP JUMPDEST PUSH0 PUSH2 0x22BB DUP3 PUSH2 0x13AF JUMP JUMPDEST SWAP2 POP PUSH32 0xFFFFFFFFFFFFFFFFFFFFFFFFFFFFFFFFFFFFFFFFFFFFFFFFFFFFFFFFFFFFFFFF DUP3 SUB PUSH2 0x22ED JUMPI PUSH2 0x22EC PUSH2 0x1ADD JUMP JUMPDEST JUMPDEST PUSH1 0x1 DUP3 ADD SWAP1 POP SWAP2 SWAP1 POP JUMP INVALID LOG2 PUSH5 0x6970667358 0x22 SLT KECCAK256 ADDRESS BALANCE 0xA8 0xCB PUSH8 0xCD19492282F7D82D EXTCODECOPY AND SWAP13 MSTORE CALLDATALOAD 0x4D 0xA7 0xB1 MUL SMOD DUP12 SELFDESTRUCT LOG3 0xD3 PREVRANDAO XOR PUSH25 0xEB4C64736F6C634300081A0033000000000000000000000000 "
				},
				"gasEstimates": {
					"creation": {
						"codeDepositCost": "1801200",
						"executionCost": "infinite",
						"totalCost": "infinite"
					},
					"external": {
						"addTier(string,uint256)": "infinite",
						"backers(address)": "2837",
						"deadline()": "2515",
						"description()": "infinite",
						"extendDeadline(uint256)": "infinite",
						"fund(uint256)": "infinite",
						"getCampaignStatus()": "7075",
						"getContractBalance()": "445",
						"getTiers()": "infinite",
						"goal()": "2470",
						"hasFundedTier(address,uint256)": "3190",
						"name()": "infinite",
						"owner()": "2597",
						"paused()": "2606",
						"refund()": "infinite",
						"removeTier(uint256)": "infinite",
						"state()": "2649",
						"tiers(uint256)": "infinite",
						"togglePause()": "28884",
						"withdraw()": "infinite"
					},
					"internal": {
						"checkandUpdateCampaignState()": "30878"
					}
				},
				"methodIdentifiers": {
					"addTier(string,uint256)": "8ece7b91",
					"backers(address)": "b85dfb80",
					"deadline()": "29dcb0cf",
					"description()": "7284e416",
					"extendDeadline(uint256)": "389b7533",
					"fund(uint256)": "ca1d209d",
					"getCampaignStatus()": "10550515",
					"getContractBalance()": "6f9fb98a",
					"getTiers()": "de170570",
					"goal()": "40193883",
					"hasFundedTier(address,uint256)": "7adba527",
					"name()": "06fdde03",
					"owner()": "8da5cb5b",
					"paused()": "5c975abb",
					"refund()": "590e1ae3",
					"removeTier(uint256)": "7497211b",
					"state()": "c19d93fb",
					"tiers(uint256)": "039af9eb",
					"togglePause()": "c4ae3168",
					"withdraw()": "3ccfd60b"
				}
			},
			"storageLayout": {
				"storage": [
					{
						"astId": 3,
						"contract": "contracts/Crowdfunding.sol:Crowdfunding",
						"label": "name",
						"offset": 0,
						"slot": "0",
						"type": "t_string_storage"
					},
					{
						"astId": 5,
						"contract": "contracts/Crowdfunding.sol:Crowdfunding",
						"label": "description",
						"offset": 0,
						"slot": "1",
						"type": "t_string_storage"
					},
					{
						"astId": 7,
						"contract": "contracts/Crowdfunding.sol:Crowdfunding",
						"label": "goal",
						"offset": 0,
						"slot": "2",
						"type": "t_uint256"
					},
					{
						"astId": 9,
						"contract": "contracts/Crowdfunding.sol:Crowdfunding",
						"label": "deadline",
						"offset": 0,
						"slot": "3",
						"type": "t_uint256"
					},
					{
						"astId": 11,
						"contract": "contracts/Crowdfunding.sol:Crowdfunding",
						"label": "owner",
						"offset": 0,
						"slot": "4",
						"type": "t_address"
					},
					{
						"astId": 13,
						"contract": "contracts/Crowdfunding.sol:Crowdfunding",
						"label": "paused",
						"offset": 20,
						"slot": "4",
						"type": "t_bool"
					},
					{
						"astId": 20,
						"contract": "contracts/Crowdfunding.sol:Crowdfunding",
						"label": "state",
						"offset": 21,
						"slot": "4",
						"type": "t_enum(CampaignState)17"
					},
					{
						"astId": 38,
						"contract": "contracts/Crowdfunding.sol:Crowdfunding",
						"label": "tiers",
						"offset": 0,
						"slot": "5",
						"type": "t_array(t_struct(Tier)27_storage)dyn_storage"
					},
					{
						"astId": 43,
						"contract": "contracts/Crowdfunding.sol:Crowdfunding",
						"label": "backers",
						"offset": 0,
						"slot": "6",
						"type": "t_mapping(t_address,t_struct(Backer)34_storage)"
					}
				],
				"types": {
					"t_address": {
						"encoding": "inplace",
						"label": "address",
						"numberOfBytes": "20"
					},
					"t_array(t_struct(Tier)27_storage)dyn_storage": {
						"base": "t_struct(Tier)27_storage",
						"encoding": "dynamic_array",
						"label": "struct Crowdfunding.Tier[]",
						"numberOfBytes": "32"
					},
					"t_bool": {
						"encoding": "inplace",
						"label": "bool",
						"numberOfBytes": "1"
					},
					"t_enum(CampaignState)17": {
						"encoding": "inplace",
						"label": "enum Crowdfunding.CampaignState",
						"numberOfBytes": "1"
					},
					"t_mapping(t_address,t_struct(Backer)34_storage)": {
						"encoding": "mapping",
						"key": "t_address",
						"label": "mapping(address => struct Crowdfunding.Backer)",
						"numberOfBytes": "32",
						"value": "t_struct(Backer)34_storage"
					},
					"t_mapping(t_uint256,t_bool)": {
						"encoding": "mapping",
						"key": "t_uint256",
						"label": "mapping(uint256 => bool)",
						"numberOfBytes": "32",
						"value": "t_bool"
					},
					"t_string_storage": {
						"encoding": "bytes",
						"label": "string",
						"numberOfBytes": "32"
					},
					"t_struct(Backer)34_storage": {
						"encoding": "inplace",
						"label": "struct Crowdfunding.Backer",
						"members": [
							{
								"astId": 29,
								"contract": "contracts/Crowdfunding.sol:Crowdfunding",
								"label": "totalContribution",
								"offset": 0,
								"slot": "0",
								"type": "t_uint256"
							},
							{
								"astId": 33,
								"contract": "contracts/Crowdfunding.sol:Crowdfunding",
								"label": "fundedTiers",
								"offset": 0,
								"slot": "1",
								"type": "t_mapping(t_uint256,t_bool)"
							}
						],
						"numberOfBytes": "64"
					},
					"t_struct(Tier)27_storage": {
						"encoding": "inplace",
						"label": "struct Crowdfunding.Tier",
						"members": [
							{
								"astId": 22,
								"contract": "contracts/Crowdfunding.sol:Crowdfunding",
								"label": "name",
								"offset": 0,
								"slot": "0",
								"type": "t_string_storage"
							},
							{
								"astId": 24,
								"contract": "contracts/Crowdfunding.sol:Crowdfunding",
								"label": "amount",
								"offset": 0,
								"slot": "1",
								"type": "t_uint256"
							},
							{
								"astId": 26,
								"contract": "contracts/Crowdfunding.sol:Crowdfunding",
								"label": "backers",
								"offset": 0,
								"slot": "2",
								"type": "t_uint256"
							}
						],
						"numberOfBytes": "96"
					},
					"t_uint256": {
						"encoding": "inplace",
						"label": "uint256",
						"numberOfBytes": "32"
					}
				}
			},
			"userdoc": {
				"kind": "user",
				"methods": {},
				"version": 1
			}
		}
	}
}